{
	"ERC20.sol": {
		"ERC20Token": {
			"abi": [
				{
					"inputs": [
						{
							"internalType": "address",
							"name": "",
							"type": "address"
						}
					],
					"name": "balanceOf",
					"outputs": [
						{
							"internalType": "uint256",
							"name": "",
							"type": "uint256"
						}
					],
					"stateMutability": "view",
					"type": "function"
				},
				{
					"inputs": [
						{
							"internalType": "address",
							"name": "from",
							"type": "address"
						},
						{
							"internalType": "address",
							"name": "to",
							"type": "address"
						},
						{
							"internalType": "uint256",
							"name": "amount",
							"type": "uint256"
						}
					],
					"name": "transferFrom",
					"outputs": [
						{
							"internalType": "bool",
							"name": "",
							"type": "bool"
						}
					],
					"stateMutability": "nonpayable",
					"type": "function"
				}
			],
			"devdoc": {
				"kind": "dev",
				"methods": {},
				"version": 1
			},
			"evm": {
				"assembly": "    /* \"ERC20.sol\":61:920  contract ERC20Token {... */\n  mstore(0x40, 0x80)\n  callvalue\n  dup1\n  iszero\n  tag_1\n  jumpi\n  0x00\n  dup1\n  revert\ntag_1:\n  pop\n  dataSize(sub_0)\n  dup1\n  dataOffset(sub_0)\n  0x00\n  codecopy\n  0x00\n  return\nstop\n\nsub_0: assembly {\n        /* \"ERC20.sol\":61:920  contract ERC20Token {... */\n      mstore(0x40, 0x80)\n      callvalue\n      dup1\n      iszero\n      tag_1\n      jumpi\n      0x00\n      dup1\n      revert\n    tag_1:\n      pop\n      jumpi(tag_2, lt(calldatasize, 0x04))\n      shr(0xe0, calldataload(0x00))\n      dup1\n      0x23b872dd\n      eq\n      tag_3\n      jumpi\n      dup1\n      0x70a08231\n      eq\n      tag_4\n      jumpi\n    tag_2:\n      0x00\n      dup1\n      revert\n        /* \"ERC20.sol\":138:390  function transferFrom(address from, address to, uint256 amount) external returns (bool) {... */\n    tag_3:\n      tag_5\n      0x04\n      dup1\n      calldatasize\n      sub\n      dup2\n      add\n      swap1\n      tag_6\n      swap2\n      swap1\n      tag_7\n      jump\t// in\n    tag_6:\n      tag_8\n      jump\t// in\n    tag_5:\n      mload(0x40)\n      tag_9\n      swap2\n      swap1\n      tag_10\n      jump\t// in\n    tag_9:\n      mload(0x40)\n      dup1\n      swap2\n      sub\n      swap1\n      return\n        /* \"ERC20.sol\":87:131  mapping(address => uint256) public balanceOf */\n    tag_4:\n      tag_11\n      0x04\n      dup1\n      calldatasize\n      sub\n      dup2\n      add\n      swap1\n      tag_12\n      swap2\n      swap1\n      tag_13\n      jump\t// in\n    tag_12:\n      tag_14\n      jump\t// in\n    tag_11:\n      mload(0x40)\n      tag_15\n      swap2\n      swap1\n      tag_16\n      jump\t// in\n    tag_15:\n      mload(0x40)\n      dup1\n      swap2\n      sub\n      swap1\n      return\n        /* \"ERC20.sol\":138:390  function transferFrom(address from, address to, uint256 amount) external returns (bool) {... */\n    tag_8:\n        /* \"ERC20.sol\":220:224  bool */\n      0x00\n        /* \"ERC20.sol\":263:269  amount */\n      dup2\n        /* \"ERC20.sol\":244:253  balanceOf */\n      0x00\n        /* \"ERC20.sol\":244:259  balanceOf[from] */\n      dup1\n        /* \"ERC20.sol\":254:258  from */\n      dup7\n        /* \"ERC20.sol\":244:259  balanceOf[from] */\n      0xffffffffffffffffffffffffffffffffffffffff\n      and\n      0xffffffffffffffffffffffffffffffffffffffff\n      and\n      dup2\n      mstore\n      0x20\n      add\n      swap1\n      dup2\n      mstore\n      0x20\n      add\n      0x00\n      keccak256\n      sload\n        /* \"ERC20.sol\":244:269  balanceOf[from] >= amount */\n      lt\n      iszero\n        /* \"ERC20.sol\":236:294  require(balanceOf[from] >= amount, \"Insufficient balance\") */\n      tag_18\n      jumpi\n      mload(0x40)\n      0x08c379a000000000000000000000000000000000000000000000000000000000\n      dup2\n      mstore\n      0x04\n      add\n      tag_19\n      swap1\n      tag_20\n      jump\t// in\n    tag_19:\n      mload(0x40)\n      dup1\n      swap2\n      sub\n      swap1\n      revert\n    tag_18:\n        /* \"ERC20.sol\":323:329  amount */\n      dup2\n        /* \"ERC20.sol\":304:313  balanceOf */\n      0x00\n        /* \"ERC20.sol\":304:319  balanceOf[from] */\n      dup1\n        /* \"ERC20.sol\":314:318  from */\n      dup7\n        /* \"ERC20.sol\":304:319  balanceOf[from] */\n      0xffffffffffffffffffffffffffffffffffffffff\n      and\n      0xffffffffffffffffffffffffffffffffffffffff\n      and\n      dup2\n      mstore\n      0x20\n      add\n      swap1\n      dup2\n      mstore\n      0x20\n      add\n      0x00\n      keccak256\n      0x00\n        /* \"ERC20.sol\":304:329  balanceOf[from] -= amount */\n      dup3\n      dup3\n      sload\n      tag_21\n      swap2\n      swap1\n      tag_22\n      jump\t// in\n    tag_21:\n      swap3\n      pop\n      pop\n      dup2\n      swap1\n      sstore\n      pop\n        /* \"ERC20.sol\":356:362  amount */\n      dup2\n        /* \"ERC20.sol\":339:348  balanceOf */\n      0x00\n        /* \"ERC20.sol\":339:352  balanceOf[to] */\n      dup1\n        /* \"ERC20.sol\":349:351  to */\n      dup6\n        /* \"ERC20.sol\":339:352  balanceOf[to] */\n      0xffffffffffffffffffffffffffffffffffffffff\n      and\n      0xffffffffffffffffffffffffffffffffffffffff\n      and\n      dup2\n      mstore\n      0x20\n      add\n      swap1\n      dup2\n      mstore\n      0x20\n      add\n      0x00\n      keccak256\n      0x00\n        /* \"ERC20.sol\":339:362  balanceOf[to] += amount */\n      dup3\n      dup3\n      sload\n      tag_23\n      swap2\n      swap1\n      tag_24\n      jump\t// in\n    tag_23:\n      swap3\n      pop\n      pop\n      dup2\n      swap1\n      sstore\n      pop\n        /* \"ERC20.sol\":379:383  true */\n      0x01\n        /* \"ERC20.sol\":372:383  return true */\n      swap1\n      pop\n        /* \"ERC20.sol\":138:390  function transferFrom(address from, address to, uint256 amount) external returns (bool) {... */\n      swap4\n      swap3\n      pop\n      pop\n      pop\n      jump\t// out\n        /* \"ERC20.sol\":87:131  mapping(address => uint256) public balanceOf */\n    tag_14:\n      mstore(0x20, 0x00)\n      dup1\n      0x00\n      mstore\n      keccak256(0x00, 0x40)\n      0x00\n      swap2\n      pop\n      swap1\n      pop\n      sload\n      dup2\n      jump\t// out\n        /* \"#utility.yul\":88:205   */\n    tag_26:\n        /* \"#utility.yul\":197:198   */\n      0x00\n        /* \"#utility.yul\":194:195   */\n      dup1\n        /* \"#utility.yul\":187:199   */\n      revert\n        /* \"#utility.yul\":334:460   */\n    tag_28:\n        /* \"#utility.yul\":371:378   */\n      0x00\n        /* \"#utility.yul\":411:453   */\n      0xffffffffffffffffffffffffffffffffffffffff\n        /* \"#utility.yul\":404:409   */\n      dup3\n        /* \"#utility.yul\":400:454   */\n      and\n        /* \"#utility.yul\":389:454   */\n      swap1\n      pop\n        /* \"#utility.yul\":334:460   */\n      swap2\n      swap1\n      pop\n      jump\t// out\n        /* \"#utility.yul\":466:562   */\n    tag_29:\n        /* \"#utility.yul\":503:510   */\n      0x00\n        /* \"#utility.yul\":532:556   */\n      tag_48\n        /* \"#utility.yul\":550:555   */\n      dup3\n        /* \"#utility.yul\":532:556   */\n      tag_28\n      jump\t// in\n    tag_48:\n        /* \"#utility.yul\":521:556   */\n      swap1\n      pop\n        /* \"#utility.yul\":466:562   */\n      swap2\n      swap1\n      pop\n      jump\t// out\n        /* \"#utility.yul\":568:690   */\n    tag_30:\n        /* \"#utility.yul\":641:665   */\n      tag_50\n        /* \"#utility.yul\":659:664   */\n      dup2\n        /* \"#utility.yul\":641:665   */\n      tag_29\n      jump\t// in\n    tag_50:\n        /* \"#utility.yul\":634:639   */\n      dup2\n        /* \"#utility.yul\":631:666   */\n      eq\n        /* \"#utility.yul\":621:684   */\n      tag_51\n      jumpi\n        /* \"#utility.yul\":680:681   */\n      0x00\n        /* \"#utility.yul\":677:678   */\n      dup1\n        /* \"#utility.yul\":670:682   */\n      revert\n        /* \"#utility.yul\":621:684   */\n    tag_51:\n        /* \"#utility.yul\":568:690   */\n      pop\n      jump\t// out\n        /* \"#utility.yul\":696:835   */\n    tag_31:\n        /* \"#utility.yul\":742:747   */\n      0x00\n        /* \"#utility.yul\":780:786   */\n      dup2\n        /* \"#utility.yul\":767:787   */\n      calldataload\n        /* \"#utility.yul\":758:787   */\n      swap1\n      pop\n        /* \"#utility.yul\":796:829   */\n      tag_53\n        /* \"#utility.yul\":823:828   */\n      dup2\n        /* \"#utility.yul\":796:829   */\n      tag_30\n      jump\t// in\n    tag_53:\n        /* \"#utility.yul\":696:835   */\n      swap3\n      swap2\n      pop\n      pop\n      jump\t// out\n        /* \"#utility.yul\":841:918   */\n    tag_32:\n        /* \"#utility.yul\":878:885   */\n      0x00\n        /* \"#utility.yul\":907:912   */\n      dup2\n        /* \"#utility.yul\":896:912   */\n      swap1\n      pop\n        /* \"#utility.yul\":841:918   */\n      swap2\n      swap1\n      pop\n      jump\t// out\n        /* \"#utility.yul\":924:1046   */\n    tag_33:\n        /* \"#utility.yul\":997:1021   */\n      tag_56\n        /* \"#utility.yul\":1015:1020   */\n      dup2\n        /* \"#utility.yul\":997:1021   */\n      tag_32\n      jump\t// in\n    tag_56:\n        /* \"#utility.yul\":990:995   */\n      dup2\n        /* \"#utility.yul\":987:1022   */\n      eq\n        /* \"#utility.yul\":977:1040   */\n      tag_57\n      jumpi\n        /* \"#utility.yul\":1036:1037   */\n      0x00\n        /* \"#utility.yul\":1033:1034   */\n      dup1\n        /* \"#utility.yul\":1026:1038   */\n      revert\n        /* \"#utility.yul\":977:1040   */\n    tag_57:\n        /* \"#utility.yul\":924:1046   */\n      pop\n      jump\t// out\n        /* \"#utility.yul\":1052:1191   */\n    tag_34:\n        /* \"#utility.yul\":1098:1103   */\n      0x00\n        /* \"#utility.yul\":1136:1142   */\n      dup2\n        /* \"#utility.yul\":1123:1143   */\n      calldataload\n        /* \"#utility.yul\":1114:1143   */\n      swap1\n      pop\n        /* \"#utility.yul\":1152:1185   */\n      tag_59\n        /* \"#utility.yul\":1179:1184   */\n      dup2\n        /* \"#utility.yul\":1152:1185   */\n      tag_33\n      jump\t// in\n    tag_59:\n        /* \"#utility.yul\":1052:1191   */\n      swap3\n      swap2\n      pop\n      pop\n      jump\t// out\n        /* \"#utility.yul\":1197:1816   */\n    tag_7:\n        /* \"#utility.yul\":1274:1280   */\n      0x00\n        /* \"#utility.yul\":1282:1288   */\n      dup1\n        /* \"#utility.yul\":1290:1296   */\n      0x00\n        /* \"#utility.yul\":1339:1341   */\n      0x60\n        /* \"#utility.yul\":1327:1336   */\n      dup5\n        /* \"#utility.yul\":1318:1325   */\n      dup7\n        /* \"#utility.yul\":1314:1337   */\n      sub\n        /* \"#utility.yul\":1310:1342   */\n      slt\n        /* \"#utility.yul\":1307:1426   */\n      iszero\n      tag_61\n      jumpi\n        /* \"#utility.yul\":1345:1424   */\n      tag_62\n      tag_26\n      jump\t// in\n    tag_62:\n        /* \"#utility.yul\":1307:1426   */\n    tag_61:\n        /* \"#utility.yul\":1465:1466   */\n      0x00\n        /* \"#utility.yul\":1490:1543   */\n      tag_63\n        /* \"#utility.yul\":1535:1542   */\n      dup7\n        /* \"#utility.yul\":1526:1532   */\n      dup3\n        /* \"#utility.yul\":1515:1524   */\n      dup8\n        /* \"#utility.yul\":1511:1533   */\n      add\n        /* \"#utility.yul\":1490:1543   */\n      tag_31\n      jump\t// in\n    tag_63:\n        /* \"#utility.yul\":1480:1543   */\n      swap4\n      pop\n        /* \"#utility.yul\":1436:1553   */\n      pop\n        /* \"#utility.yul\":1592:1594   */\n      0x20\n        /* \"#utility.yul\":1618:1671   */\n      tag_64\n        /* \"#utility.yul\":1663:1670   */\n      dup7\n        /* \"#utility.yul\":1654:1660   */\n      dup3\n        /* \"#utility.yul\":1643:1652   */\n      dup8\n        /* \"#utility.yul\":1639:1661   */\n      add\n        /* \"#utility.yul\":1618:1671   */\n      tag_31\n      jump\t// in\n    tag_64:\n        /* \"#utility.yul\":1608:1671   */\n      swap3\n      pop\n        /* \"#utility.yul\":1563:1681   */\n      pop\n        /* \"#utility.yul\":1720:1722   */\n      0x40\n        /* \"#utility.yul\":1746:1799   */\n      tag_65\n        /* \"#utility.yul\":1791:1798   */\n      dup7\n        /* \"#utility.yul\":1782:1788   */\n      dup3\n        /* \"#utility.yul\":1771:1780   */\n      dup8\n        /* \"#utility.yul\":1767:1789   */\n      add\n        /* \"#utility.yul\":1746:1799   */\n      tag_34\n      jump\t// in\n    tag_65:\n        /* \"#utility.yul\":1736:1799   */\n      swap2\n      pop\n        /* \"#utility.yul\":1691:1809   */\n      pop\n        /* \"#utility.yul\":1197:1816   */\n      swap3\n      pop\n      swap3\n      pop\n      swap3\n      jump\t// out\n        /* \"#utility.yul\":1822:1912   */\n    tag_35:\n        /* \"#utility.yul\":1856:1863   */\n      0x00\n        /* \"#utility.yul\":1899:1904   */\n      dup2\n        /* \"#utility.yul\":1892:1905   */\n      iszero\n        /* \"#utility.yul\":1885:1906   */\n      iszero\n        /* \"#utility.yul\":1874:1906   */\n      swap1\n      pop\n        /* \"#utility.yul\":1822:1912   */\n      swap2\n      swap1\n      pop\n      jump\t// out\n        /* \"#utility.yul\":1918:2027   */\n    tag_36:\n        /* \"#utility.yul\":1999:2020   */\n      tag_68\n        /* \"#utility.yul\":2014:2019   */\n      dup2\n        /* \"#utility.yul\":1999:2020   */\n      tag_35\n      jump\t// in\n    tag_68:\n        /* \"#utility.yul\":1994:1997   */\n      dup3\n        /* \"#utility.yul\":1987:2021   */\n      mstore\n        /* \"#utility.yul\":1918:2027   */\n      pop\n      pop\n      jump\t// out\n        /* \"#utility.yul\":2033:2243   */\n    tag_10:\n        /* \"#utility.yul\":2120:2124   */\n      0x00\n        /* \"#utility.yul\":2158:2160   */\n      0x20\n        /* \"#utility.yul\":2147:2156   */\n      dup3\n        /* \"#utility.yul\":2143:2161   */\n      add\n        /* \"#utility.yul\":2135:2161   */\n      swap1\n      pop\n        /* \"#utility.yul\":2171:2236   */\n      tag_70\n        /* \"#utility.yul\":2233:2234   */\n      0x00\n        /* \"#utility.yul\":2222:2231   */\n      dup4\n        /* \"#utility.yul\":2218:2235   */\n      add\n        /* \"#utility.yul\":2209:2215   */\n      dup5\n        /* \"#utility.yul\":2171:2236   */\n      tag_36\n      jump\t// in\n    tag_70:\n        /* \"#utility.yul\":2033:2243   */\n      swap3\n      swap2\n      pop\n      pop\n      jump\t// out\n        /* \"#utility.yul\":2249:2578   */\n    tag_13:\n        /* \"#utility.yul\":2308:2314   */\n      0x00\n        /* \"#utility.yul\":2357:2359   */\n      0x20\n        /* \"#utility.yul\":2345:2354   */\n      dup3\n        /* \"#utility.yul\":2336:2343   */\n      dup5\n        /* \"#utility.yul\":2332:2355   */\n      sub\n        /* \"#utility.yul\":2328:2360   */\n      slt\n        /* \"#utility.yul\":2325:2444   */\n      iszero\n      tag_72\n      jumpi\n        /* \"#utility.yul\":2363:2442   */\n      tag_73\n      tag_26\n      jump\t// in\n    tag_73:\n        /* \"#utility.yul\":2325:2444   */\n    tag_72:\n        /* \"#utility.yul\":2483:2484   */\n      0x00\n        /* \"#utility.yul\":2508:2561   */\n      tag_74\n        /* \"#utility.yul\":2553:2560   */\n      dup5\n        /* \"#utility.yul\":2544:2550   */\n      dup3\n        /* \"#utility.yul\":2533:2542   */\n      dup6\n        /* \"#utility.yul\":2529:2551   */\n      add\n        /* \"#utility.yul\":2508:2561   */\n      tag_31\n      jump\t// in\n    tag_74:\n        /* \"#utility.yul\":2498:2561   */\n      swap2\n      pop\n        /* \"#utility.yul\":2454:2571   */\n      pop\n        /* \"#utility.yul\":2249:2578   */\n      swap3\n      swap2\n      pop\n      pop\n      jump\t// out\n        /* \"#utility.yul\":2584:2702   */\n    tag_37:\n        /* \"#utility.yul\":2671:2695   */\n      tag_76\n        /* \"#utility.yul\":2689:2694   */\n      dup2\n        /* \"#utility.yul\":2671:2695   */\n      tag_32\n      jump\t// in\n    tag_76:\n        /* \"#utility.yul\":2666:2669   */\n      dup3\n        /* \"#utility.yul\":2659:2696   */\n      mstore\n        /* \"#utility.yul\":2584:2702   */\n      pop\n      pop\n      jump\t// out\n        /* \"#utility.yul\":2708:2930   */\n    tag_16:\n        /* \"#utility.yul\":2801:2805   */\n      0x00\n        /* \"#utility.yul\":2839:2841   */\n      0x20\n        /* \"#utility.yul\":2828:2837   */\n      dup3\n        /* \"#utility.yul\":2824:2842   */\n      add\n        /* \"#utility.yul\":2816:2842   */\n      swap1\n      pop\n        /* \"#utility.yul\":2852:2923   */\n      tag_78\n        /* \"#utility.yul\":2920:2921   */\n      0x00\n        /* \"#utility.yul\":2909:2918   */\n      dup4\n        /* \"#utility.yul\":2905:2922   */\n      add\n        /* \"#utility.yul\":2896:2902   */\n      dup5\n        /* \"#utility.yul\":2852:2923   */\n      tag_37\n      jump\t// in\n    tag_78:\n        /* \"#utility.yul\":2708:2930   */\n      swap3\n      swap2\n      pop\n      pop\n      jump\t// out\n        /* \"#utility.yul\":2936:3105   */\n    tag_38:\n        /* \"#utility.yul\":3020:3031   */\n      0x00\n        /* \"#utility.yul\":3054:3060   */\n      dup3\n        /* \"#utility.yul\":3049:3052   */\n      dup3\n        /* \"#utility.yul\":3042:3061   */\n      mstore\n        /* \"#utility.yul\":3094:3098   */\n      0x20\n        /* \"#utility.yul\":3089:3092   */\n      dup3\n        /* \"#utility.yul\":3085:3099   */\n      add\n        /* \"#utility.yul\":3070:3099   */\n      swap1\n      pop\n        /* \"#utility.yul\":2936:3105   */\n      swap3\n      swap2\n      pop\n      pop\n      jump\t// out\n        /* \"#utility.yul\":3111:3281   */\n    tag_39:\n        /* \"#utility.yul\":3251:3273   */\n      0x496e73756666696369656e742062616c616e6365000000000000000000000000\n        /* \"#utility.yul\":3247:3248   */\n      0x00\n        /* \"#utility.yul\":3239:3245   */\n      dup3\n        /* \"#utility.yul\":3235:3249   */\n      add\n        /* \"#utility.yul\":3228:3274   */\n      mstore\n        /* \"#utility.yul\":3111:3281   */\n      pop\n      jump\t// out\n        /* \"#utility.yul\":3287:3653   */\n    tag_40:\n        /* \"#utility.yul\":3429:3432   */\n      0x00\n        /* \"#utility.yul\":3450:3517   */\n      tag_82\n        /* \"#utility.yul\":3514:3516   */\n      0x14\n        /* \"#utility.yul\":3509:3512   */\n      dup4\n        /* \"#utility.yul\":3450:3517   */\n      tag_38\n      jump\t// in\n    tag_82:\n        /* \"#utility.yul\":3443:3517   */\n      swap2\n      pop\n        /* \"#utility.yul\":3526:3619   */\n      tag_83\n        /* \"#utility.yul\":3615:3618   */\n      dup3\n        /* \"#utility.yul\":3526:3619   */\n      tag_39\n      jump\t// in\n    tag_83:\n        /* \"#utility.yul\":3644:3646   */\n      0x20\n        /* \"#utility.yul\":3639:3642   */\n      dup3\n        /* \"#utility.yul\":3635:3647   */\n      add\n        /* \"#utility.yul\":3628:3647   */\n      swap1\n      pop\n        /* \"#utility.yul\":3287:3653   */\n      swap2\n      swap1\n      pop\n      jump\t// out\n        /* \"#utility.yul\":3659:4078   */\n    tag_20:\n        /* \"#utility.yul\":3825:3829   */\n      0x00\n        /* \"#utility.yul\":3863:3865   */\n      0x20\n        /* \"#utility.yul\":3852:3861   */\n      dup3\n        /* \"#utility.yul\":3848:3866   */\n      add\n        /* \"#utility.yul\":3840:3866   */\n      swap1\n      pop\n        /* \"#utility.yul\":3912:3921   */\n      dup2\n        /* \"#utility.yul\":3906:3910   */\n      dup2\n        /* \"#utility.yul\":3902:3922   */\n      sub\n        /* \"#utility.yul\":3898:3899   */\n      0x00\n        /* \"#utility.yul\":3887:3896   */\n      dup4\n        /* \"#utility.yul\":3883:3900   */\n      add\n        /* \"#utility.yul\":3876:3923   */\n      mstore\n        /* \"#utility.yul\":3940:4071   */\n      tag_85\n        /* \"#utility.yul\":4066:4070   */\n      dup2\n        /* \"#utility.yul\":3940:4071   */\n      tag_40\n      jump\t// in\n    tag_85:\n        /* \"#utility.yul\":3932:4071   */\n      swap1\n      pop\n        /* \"#utility.yul\":3659:4078   */\n      swap2\n      swap1\n      pop\n      jump\t// out\n        /* \"#utility.yul\":4084:4264   */\n    tag_41:\n        /* \"#utility.yul\":4132:4209   */\n      0x4e487b7100000000000000000000000000000000000000000000000000000000\n        /* \"#utility.yul\":4129:4130   */\n      0x00\n        /* \"#utility.yul\":4122:4210   */\n      mstore\n        /* \"#utility.yul\":4229:4233   */\n      0x11\n        /* \"#utility.yul\":4226:4227   */\n      0x04\n        /* \"#utility.yul\":4219:4234   */\n      mstore\n        /* \"#utility.yul\":4253:4257   */\n      0x24\n        /* \"#utility.yul\":4250:4251   */\n      0x00\n        /* \"#utility.yul\":4243:4258   */\n      revert\n        /* \"#utility.yul\":4270:4464   */\n    tag_22:\n        /* \"#utility.yul\":4310:4314   */\n      0x00\n        /* \"#utility.yul\":4330:4350   */\n      tag_88\n        /* \"#utility.yul\":4348:4349   */\n      dup3\n        /* \"#utility.yul\":4330:4350   */\n      tag_32\n      jump\t// in\n    tag_88:\n        /* \"#utility.yul\":4325:4350   */\n      swap2\n      pop\n        /* \"#utility.yul\":4364:4384   */\n      tag_89\n        /* \"#utility.yul\":4382:4383   */\n      dup4\n        /* \"#utility.yul\":4364:4384   */\n      tag_32\n      jump\t// in\n    tag_89:\n        /* \"#utility.yul\":4359:4384   */\n      swap3\n      pop\n        /* \"#utility.yul\":4408:4409   */\n      dup3\n        /* \"#utility.yul\":4405:4406   */\n      dup3\n        /* \"#utility.yul\":4401:4410   */\n      sub\n        /* \"#utility.yul\":4393:4410   */\n      swap1\n      pop\n        /* \"#utility.yul\":4432:4433   */\n      dup2\n        /* \"#utility.yul\":4426:4430   */\n      dup2\n        /* \"#utility.yul\":4423:4434   */\n      gt\n        /* \"#utility.yul\":4420:4457   */\n      iszero\n      tag_90\n      jumpi\n        /* \"#utility.yul\":4437:4455   */\n      tag_91\n      tag_41\n      jump\t// in\n    tag_91:\n        /* \"#utility.yul\":4420:4457   */\n    tag_90:\n        /* \"#utility.yul\":4270:4464   */\n      swap3\n      swap2\n      pop\n      pop\n      jump\t// out\n        /* \"#utility.yul\":4470:4661   */\n    tag_24:\n        /* \"#utility.yul\":4510:4513   */\n      0x00\n        /* \"#utility.yul\":4529:4549   */\n      tag_93\n        /* \"#utility.yul\":4547:4548   */\n      dup3\n        /* \"#utility.yul\":4529:4549   */\n      tag_32\n      jump\t// in\n    tag_93:\n        /* \"#utility.yul\":4524:4549   */\n      swap2\n      pop\n        /* \"#utility.yul\":4563:4583   */\n      tag_94\n        /* \"#utility.yul\":4581:4582   */\n      dup4\n        /* \"#utility.yul\":4563:4583   */\n      tag_32\n      jump\t// in\n    tag_94:\n        /* \"#utility.yul\":4558:4583   */\n      swap3\n      pop\n        /* \"#utility.yul\":4606:4607   */\n      dup3\n        /* \"#utility.yul\":4603:4604   */\n      dup3\n        /* \"#utility.yul\":4599:4608   */\n      add\n        /* \"#utility.yul\":4592:4608   */\n      swap1\n      pop\n        /* \"#utility.yul\":4627:4630   */\n      dup1\n        /* \"#utility.yul\":4624:4625   */\n      dup3\n        /* \"#utility.yul\":4621:4631   */\n      gt\n        /* \"#utility.yul\":4618:4654   */\n      iszero\n      tag_95\n      jumpi\n        /* \"#utility.yul\":4634:4652   */\n      tag_96\n      tag_41\n      jump\t// in\n    tag_96:\n        /* \"#utility.yul\":4618:4654   */\n    tag_95:\n        /* \"#utility.yul\":4470:4661   */\n      swap3\n      swap2\n      pop\n      pop\n      jump\t// out\n\n    auxdata: 0xa26469706673582212204e6a15174647bc738d3a1333e5aa11ecc47f1f8e88de98f229bcf1dc4045b73664736f6c63430008150033\n}\n",
				"bytecode": {
					"linkReferences": {},
					"object": "608060405234801561000f575f80fd5b506104838061001d5f395ff3fe608060405234801561000f575f80fd5b5060043610610034575f3560e01c806323b872dd1461003857806370a0823114610068575b5f80fd5b610052600480360381019061004d919061026c565b610098565b60405161005f91906102d6565b60405180910390f35b610082600480360381019061007d91906102ef565b6101c7565b60405161008f9190610329565b60405180910390f35b5f815f808673ffffffffffffffffffffffffffffffffffffffff1673ffffffffffffffffffffffffffffffffffffffff1681526020019081526020015f20541015610118576040517f08c379a000000000000000000000000000000000000000000000000000000000815260040161010f9061039c565b60405180910390fd5b815f808673ffffffffffffffffffffffffffffffffffffffff1673ffffffffffffffffffffffffffffffffffffffff1681526020019081526020015f205f82825461016391906103e7565b92505081905550815f808573ffffffffffffffffffffffffffffffffffffffff1673ffffffffffffffffffffffffffffffffffffffff1681526020019081526020015f205f8282546101b5919061041a565b92505081905550600190509392505050565b5f602052805f5260405f205f915090505481565b5f80fd5b5f73ffffffffffffffffffffffffffffffffffffffff82169050919050565b5f610208826101df565b9050919050565b610218816101fe565b8114610222575f80fd5b50565b5f813590506102338161020f565b92915050565b5f819050919050565b61024b81610239565b8114610255575f80fd5b50565b5f8135905061026681610242565b92915050565b5f805f60608486031215610283576102826101db565b5b5f61029086828701610225565b93505060206102a186828701610225565b92505060406102b286828701610258565b9150509250925092565b5f8115159050919050565b6102d0816102bc565b82525050565b5f6020820190506102e95f8301846102c7565b92915050565b5f60208284031215610304576103036101db565b5b5f61031184828501610225565b91505092915050565b61032381610239565b82525050565b5f60208201905061033c5f83018461031a565b92915050565b5f82825260208201905092915050565b7f496e73756666696369656e742062616c616e63650000000000000000000000005f82015250565b5f610386601483610342565b915061039182610352565b602082019050919050565b5f6020820190508181035f8301526103b38161037a565b9050919050565b7f4e487b71000000000000000000000000000000000000000000000000000000005f52601160045260245ffd5b5f6103f182610239565b91506103fc83610239565b9250828203905081811115610414576104136103ba565b5b92915050565b5f61042482610239565b915061042f83610239565b9250828201905080821115610447576104466103ba565b5b9291505056fea26469706673582212204e6a15174647bc738d3a1333e5aa11ecc47f1f8e88de98f229bcf1dc4045b73664736f6c63430008150033",
					"opcodes": "PUSH1 0x80 PUSH1 0x40 MSTORE CALLVALUE DUP1 ISZERO PUSH2 0xF JUMPI PUSH0 DUP1 REVERT JUMPDEST POP PUSH2 0x483 DUP1 PUSH2 0x1D PUSH0 CODECOPY PUSH0 RETURN INVALID PUSH1 0x80 PUSH1 0x40 MSTORE CALLVALUE DUP1 ISZERO PUSH2 0xF JUMPI PUSH0 DUP1 REVERT JUMPDEST POP PUSH1 0x4 CALLDATASIZE LT PUSH2 0x34 JUMPI PUSH0 CALLDATALOAD PUSH1 0xE0 SHR DUP1 PUSH4 0x23B872DD EQ PUSH2 0x38 JUMPI DUP1 PUSH4 0x70A08231 EQ PUSH2 0x68 JUMPI JUMPDEST PUSH0 DUP1 REVERT JUMPDEST PUSH2 0x52 PUSH1 0x4 DUP1 CALLDATASIZE SUB DUP2 ADD SWAP1 PUSH2 0x4D SWAP2 SWAP1 PUSH2 0x26C JUMP JUMPDEST PUSH2 0x98 JUMP JUMPDEST PUSH1 0x40 MLOAD PUSH2 0x5F SWAP2 SWAP1 PUSH2 0x2D6 JUMP JUMPDEST PUSH1 0x40 MLOAD DUP1 SWAP2 SUB SWAP1 RETURN JUMPDEST PUSH2 0x82 PUSH1 0x4 DUP1 CALLDATASIZE SUB DUP2 ADD SWAP1 PUSH2 0x7D SWAP2 SWAP1 PUSH2 0x2EF JUMP JUMPDEST PUSH2 0x1C7 JUMP JUMPDEST PUSH1 0x40 MLOAD PUSH2 0x8F SWAP2 SWAP1 PUSH2 0x329 JUMP JUMPDEST PUSH1 0x40 MLOAD DUP1 SWAP2 SUB SWAP1 RETURN JUMPDEST PUSH0 DUP2 PUSH0 DUP1 DUP7 PUSH20 0xFFFFFFFFFFFFFFFFFFFFFFFFFFFFFFFFFFFFFFFF AND PUSH20 0xFFFFFFFFFFFFFFFFFFFFFFFFFFFFFFFFFFFFFFFF AND DUP2 MSTORE PUSH1 0x20 ADD SWAP1 DUP2 MSTORE PUSH1 0x20 ADD PUSH0 KECCAK256 SLOAD LT ISZERO PUSH2 0x118 JUMPI PUSH1 0x40 MLOAD PUSH32 0x8C379A000000000000000000000000000000000000000000000000000000000 DUP2 MSTORE PUSH1 0x4 ADD PUSH2 0x10F SWAP1 PUSH2 0x39C JUMP JUMPDEST PUSH1 0x40 MLOAD DUP1 SWAP2 SUB SWAP1 REVERT JUMPDEST DUP2 PUSH0 DUP1 DUP7 PUSH20 0xFFFFFFFFFFFFFFFFFFFFFFFFFFFFFFFFFFFFFFFF AND PUSH20 0xFFFFFFFFFFFFFFFFFFFFFFFFFFFFFFFFFFFFFFFF AND DUP2 MSTORE PUSH1 0x20 ADD SWAP1 DUP2 MSTORE PUSH1 0x20 ADD PUSH0 KECCAK256 PUSH0 DUP3 DUP3 SLOAD PUSH2 0x163 SWAP2 SWAP1 PUSH2 0x3E7 JUMP JUMPDEST SWAP3 POP POP DUP2 SWAP1 SSTORE POP DUP2 PUSH0 DUP1 DUP6 PUSH20 0xFFFFFFFFFFFFFFFFFFFFFFFFFFFFFFFFFFFFFFFF AND PUSH20 0xFFFFFFFFFFFFFFFFFFFFFFFFFFFFFFFFFFFFFFFF AND DUP2 MSTORE PUSH1 0x20 ADD SWAP1 DUP2 MSTORE PUSH1 0x20 ADD PUSH0 KECCAK256 PUSH0 DUP3 DUP3 SLOAD PUSH2 0x1B5 SWAP2 SWAP1 PUSH2 0x41A JUMP JUMPDEST SWAP3 POP POP DUP2 SWAP1 SSTORE POP PUSH1 0x1 SWAP1 POP SWAP4 SWAP3 POP POP POP JUMP JUMPDEST PUSH0 PUSH1 0x20 MSTORE DUP1 PUSH0 MSTORE PUSH1 0x40 PUSH0 KECCAK256 PUSH0 SWAP2 POP SWAP1 POP SLOAD DUP2 JUMP JUMPDEST PUSH0 DUP1 REVERT JUMPDEST PUSH0 PUSH20 0xFFFFFFFFFFFFFFFFFFFFFFFFFFFFFFFFFFFFFFFF DUP3 AND SWAP1 POP SWAP2 SWAP1 POP JUMP JUMPDEST PUSH0 PUSH2 0x208 DUP3 PUSH2 0x1DF JUMP JUMPDEST SWAP1 POP SWAP2 SWAP1 POP JUMP JUMPDEST PUSH2 0x218 DUP2 PUSH2 0x1FE JUMP JUMPDEST DUP2 EQ PUSH2 0x222 JUMPI PUSH0 DUP1 REVERT JUMPDEST POP JUMP JUMPDEST PUSH0 DUP2 CALLDATALOAD SWAP1 POP PUSH2 0x233 DUP2 PUSH2 0x20F JUMP JUMPDEST SWAP3 SWAP2 POP POP JUMP JUMPDEST PUSH0 DUP2 SWAP1 POP SWAP2 SWAP1 POP JUMP JUMPDEST PUSH2 0x24B DUP2 PUSH2 0x239 JUMP JUMPDEST DUP2 EQ PUSH2 0x255 JUMPI PUSH0 DUP1 REVERT JUMPDEST POP JUMP JUMPDEST PUSH0 DUP2 CALLDATALOAD SWAP1 POP PUSH2 0x266 DUP2 PUSH2 0x242 JUMP JUMPDEST SWAP3 SWAP2 POP POP JUMP JUMPDEST PUSH0 DUP1 PUSH0 PUSH1 0x60 DUP5 DUP7 SUB SLT ISZERO PUSH2 0x283 JUMPI PUSH2 0x282 PUSH2 0x1DB JUMP JUMPDEST JUMPDEST PUSH0 PUSH2 0x290 DUP7 DUP3 DUP8 ADD PUSH2 0x225 JUMP JUMPDEST SWAP4 POP POP PUSH1 0x20 PUSH2 0x2A1 DUP7 DUP3 DUP8 ADD PUSH2 0x225 JUMP JUMPDEST SWAP3 POP POP PUSH1 0x40 PUSH2 0x2B2 DUP7 DUP3 DUP8 ADD PUSH2 0x258 JUMP JUMPDEST SWAP2 POP POP SWAP3 POP SWAP3 POP SWAP3 JUMP JUMPDEST PUSH0 DUP2 ISZERO ISZERO SWAP1 POP SWAP2 SWAP1 POP JUMP JUMPDEST PUSH2 0x2D0 DUP2 PUSH2 0x2BC JUMP JUMPDEST DUP3 MSTORE POP POP JUMP JUMPDEST PUSH0 PUSH1 0x20 DUP3 ADD SWAP1 POP PUSH2 0x2E9 PUSH0 DUP4 ADD DUP5 PUSH2 0x2C7 JUMP JUMPDEST SWAP3 SWAP2 POP POP JUMP JUMPDEST PUSH0 PUSH1 0x20 DUP3 DUP5 SUB SLT ISZERO PUSH2 0x304 JUMPI PUSH2 0x303 PUSH2 0x1DB JUMP JUMPDEST JUMPDEST PUSH0 PUSH2 0x311 DUP5 DUP3 DUP6 ADD PUSH2 0x225 JUMP JUMPDEST SWAP2 POP POP SWAP3 SWAP2 POP POP JUMP JUMPDEST PUSH2 0x323 DUP2 PUSH2 0x239 JUMP JUMPDEST DUP3 MSTORE POP POP JUMP JUMPDEST PUSH0 PUSH1 0x20 DUP3 ADD SWAP1 POP PUSH2 0x33C PUSH0 DUP4 ADD DUP5 PUSH2 0x31A JUMP JUMPDEST SWAP3 SWAP2 POP POP JUMP JUMPDEST PUSH0 DUP3 DUP3 MSTORE PUSH1 0x20 DUP3 ADD SWAP1 POP SWAP3 SWAP2 POP POP JUMP JUMPDEST PUSH32 0x496E73756666696369656E742062616C616E6365000000000000000000000000 PUSH0 DUP3 ADD MSTORE POP JUMP JUMPDEST PUSH0 PUSH2 0x386 PUSH1 0x14 DUP4 PUSH2 0x342 JUMP JUMPDEST SWAP2 POP PUSH2 0x391 DUP3 PUSH2 0x352 JUMP JUMPDEST PUSH1 0x20 DUP3 ADD SWAP1 POP SWAP2 SWAP1 POP JUMP JUMPDEST PUSH0 PUSH1 0x20 DUP3 ADD SWAP1 POP DUP2 DUP2 SUB PUSH0 DUP4 ADD MSTORE PUSH2 0x3B3 DUP2 PUSH2 0x37A JUMP JUMPDEST SWAP1 POP SWAP2 SWAP1 POP JUMP JUMPDEST PUSH32 0x4E487B7100000000000000000000000000000000000000000000000000000000 PUSH0 MSTORE PUSH1 0x11 PUSH1 0x4 MSTORE PUSH1 0x24 PUSH0 REVERT JUMPDEST PUSH0 PUSH2 0x3F1 DUP3 PUSH2 0x239 JUMP JUMPDEST SWAP2 POP PUSH2 0x3FC DUP4 PUSH2 0x239 JUMP JUMPDEST SWAP3 POP DUP3 DUP3 SUB SWAP1 POP DUP2 DUP2 GT ISZERO PUSH2 0x414 JUMPI PUSH2 0x413 PUSH2 0x3BA JUMP JUMPDEST JUMPDEST SWAP3 SWAP2 POP POP JUMP JUMPDEST PUSH0 PUSH2 0x424 DUP3 PUSH2 0x239 JUMP JUMPDEST SWAP2 POP PUSH2 0x42F DUP4 PUSH2 0x239 JUMP JUMPDEST SWAP3 POP DUP3 DUP3 ADD SWAP1 POP DUP1 DUP3 GT ISZERO PUSH2 0x447 JUMPI PUSH2 0x446 PUSH2 0x3BA JUMP JUMPDEST JUMPDEST SWAP3 SWAP2 POP POP JUMP INVALID LOG2 PUSH5 0x6970667358 0x22 SLT KECCAK256 0x4E PUSH11 0x15174647BC738D3A1333E5 0xAA GT 0xEC 0xC4 PUSH32 0x1F8E88DE98F229BCF1DC4045B73664736F6C6343000815003300000000000000 "
				},
				"gasEstimates": {
					"creation": {
						"codeDepositCost": "231000",
						"executionCost": "273",
						"totalCost": "231273"
					},
					"external": {
						"balanceOf(address)": "2801",
						"transferFrom(address,address,uint256)": "infinite"
					}
				},
				"methodIdentifiers": {
					"balanceOf(address)": "70a08231",
					"transferFrom(address,address,uint256)": "23b872dd"
				}
			},
			"storageLayout": {
				"storage": [
					{
						"astId": 99,
						"contract": "ERC20.sol:ERC20Token",
						"label": "balanceOf",
						"offset": 0,
						"slot": "0",
						"type": "t_mapping(t_address,t_uint256)"
					}
				],
				"types": {
					"t_address": {
						"encoding": "inplace",
						"label": "address",
						"numberOfBytes": "20"
					},
					"t_mapping(t_address,t_uint256)": {
						"encoding": "mapping",
						"key": "t_address",
						"label": "mapping(address => uint256)",
						"numberOfBytes": "32",
						"value": "t_uint256"
					},
					"t_uint256": {
						"encoding": "inplace",
						"label": "uint256",
						"numberOfBytes": "32"
					}
				}
			},
			"userdoc": {
				"kind": "user",
				"methods": {},
				"version": 1
			}
		}
	}
}