{
	"Betting.sol": {
		"Betting": {
			"abi": [
				{
					"inputs": [
						{
							"internalType": "uint256",
							"name": "_raceId",
							"type": "uint256"
						},
						{
							"internalType": "address",
							"name": "_tokenAddress",
							"type": "address"
						},
						{
							"internalType": "enum Betting.BetType",
							"name": "_betType",
							"type": "uint8"
						},
						{
							"internalType": "enum Betting.Arealocation",
							"name": "_location",
							"type": "uint8"
						},
						{
							"internalType": "uint256",
							"name": "_amount",
							"type": "uint256"
						},
						{
							"internalType": "uint256",
							"name": "_horseIndex",
							"type": "uint256"
						}
					],
					"stateMutability": "nonpayable",
					"type": "constructor"
				},
				{
					"inputs": [],
					"name": "amount",
					"outputs": [
						{
							"internalType": "uint256",
							"name": "",
							"type": "uint256"
						}
					],
					"stateMutability": "view",
					"type": "function"
				},
				{
					"inputs": [],
					"name": "betResult",
					"outputs": [
						{
							"internalType": "enum Betting.BetResult",
							"name": "",
							"type": "uint8"
						}
					],
					"stateMutability": "view",
					"type": "function"
				},
				{
					"inputs": [],
					"name": "horseIndex",
					"outputs": [
						{
							"internalType": "uint256",
							"name": "",
							"type": "uint256"
						}
					],
					"stateMutability": "view",
					"type": "function"
				},
				{
					"inputs": [],
					"name": "location",
					"outputs": [
						{
							"internalType": "enum Betting.Arealocation",
							"name": "",
							"type": "uint8"
						}
					],
					"stateMutability": "view",
					"type": "function"
				},
				{
					"inputs": [],
					"name": "raceId",
					"outputs": [
						{
							"internalType": "uint256",
							"name": "",
							"type": "uint256"
						}
					],
					"stateMutability": "view",
					"type": "function"
				},
				{
					"inputs": [],
					"name": "token",
					"outputs": [
						{
							"internalType": "contract ERC20Token",
							"name": "",
							"type": "address"
						}
					],
					"stateMutability": "view",
					"type": "function"
				},
				{
					"inputs": [
						{
							"internalType": "address",
							"name": "",
							"type": "address"
						}
					],
					"name": "userBets",
					"outputs": [
						{
							"internalType": "enum Betting.BetType",
							"name": "",
							"type": "uint8"
						}
					],
					"stateMutability": "view",
					"type": "function"
				}
			],
			"devdoc": {
				"kind": "dev",
				"methods": {},
				"version": 1
			},
			"evm": {
				"assembly": "    /* \"Betting.sol\":84:896  contract Betting {... */\n  mstore(0x40, 0x80)\n    /* \"Betting.sol\":483:894  constructor(uint256 _raceId, address _tokenAddress, BetType _betType, Arealocation _location, uint256 _amount, uint256 _horseIndex) {... */\n  callvalue\n  dup1\n  iszero\n  tag_1\n  jumpi\n  0x00\n  dup1\n  revert\ntag_1:\n  pop\n  mload(0x40)\n  sub(codesize, bytecodeSize)\n  dup1\n  bytecodeSize\n  dup4\n  codecopy\n  dup2\n  dup2\n  add\n  0x40\n  mstore\n  dup2\n  add\n  swap1\n  tag_2\n  swap2\n  swap1\n  tag_3\n  jump\t// in\ntag_2:\n    /* \"Betting.sol\":634:641  _raceId */\n  dup6\n    /* \"Betting.sol\":625:631  raceId */\n  0x00\n    /* \"Betting.sol\":625:641  raceId = _raceId */\n  dup2\n  swap1\n  sstore\n  pop\n    /* \"Betting.sol\":664:675  _horseIndex */\n  dup1\n    /* \"Betting.sol\":651:661  horseIndex */\n  0x02\n    /* \"Betting.sol\":651:675  horseIndex = _horseIndex */\n  dup2\n  swap1\n  sstore\n  pop\n    /* \"Betting.sol\":696:705  _location */\n  dup3\n    /* \"Betting.sol\":685:693  location */\n  0x03\n  0x14\n    /* \"Betting.sol\":685:705  location = _location */\n  0x0100\n  exp\n  dup2\n  sload\n  dup2\n  0xff\n  mul\n  not\n  and\n  swap1\n  dup4\n  0x01\n  dup2\n  gt\n  iszero\n  tag_6\n  jumpi\n  tag_7\n  tag_8\n  jump\t// in\ntag_7:\ntag_6:\n  mul\n  or\n  swap1\n  sstore\n  pop\n    /* \"Betting.sol\":727:739  BetResult.NA */\n  0x03\n    /* \"Betting.sol\":715:724  betResult */\n  dup1\n  0x15\n    /* \"Betting.sol\":715:739  betResult = BetResult.NA */\n  0x0100\n  exp\n  dup2\n  sload\n  dup2\n  0xff\n  mul\n  not\n  and\n  swap1\n  dup4\n  0x03\n  dup2\n  gt\n  iszero\n  tag_9\n  jumpi\n  tag_10\n  tag_8\n  jump\t// in\ntag_10:\ntag_9:\n  mul\n  or\n  swap1\n  sstore\n  pop\n    /* \"Betting.sol\":772:780  _betType */\n  dup4\n    /* \"Betting.sol\":749:757  userBets */\n  0x04\n    /* \"Betting.sol\":749:769  userBets[msg.sender] */\n  0x00\n    /* \"Betting.sol\":758:768  msg.sender */\n  caller\n    /* \"Betting.sol\":749:769  userBets[msg.sender] */\n  0xffffffffffffffffffffffffffffffffffffffff\n  and\n  0xffffffffffffffffffffffffffffffffffffffff\n  and\n  dup2\n  mstore\n  0x20\n  add\n  swap1\n  dup2\n  mstore\n  0x20\n  add\n  0x00\n  keccak256\n  0x00\n    /* \"Betting.sol\":749:780  userBets[msg.sender] = _betType */\n  0x0100\n  exp\n  dup2\n  sload\n  dup2\n  0xff\n  mul\n  not\n  and\n  swap1\n  dup4\n  0x02\n  dup2\n  gt\n  iszero\n  tag_11\n  jumpi\n  tag_12\n  tag_8\n  jump\t// in\ntag_12:\ntag_11:\n  mul\n  or\n  swap1\n  sstore\n  pop\n    /* \"Betting.sol\":799:806  _amount */\n  dup2\n    /* \"Betting.sol\":790:796  amount */\n  0x01\n    /* \"Betting.sol\":790:806  amount = _amount */\n  dup2\n  swap1\n  sstore\n  pop\n    /* \"Betting.sol\":831:844  _tokenAddress */\n  dup5\n    /* \"Betting.sol\":816:828  tokenAddress */\n  0x03\n  0x00\n    /* \"Betting.sol\":816:844  tokenAddress = _tokenAddress */\n  0x0100\n  exp\n  dup2\n  sload\n  dup2\n  0xffffffffffffffffffffffffffffffffffffffff\n  mul\n  not\n  and\n  swap1\n  dup4\n  0xffffffffffffffffffffffffffffffffffffffff\n  and\n  mul\n  or\n  swap1\n  sstore\n  pop\n    /* \"Betting.sol\":873:886  _tokenAddress */\n  dup5\n    /* \"Betting.sol\":854:859  token */\n  0x05\n  0x00\n    /* \"Betting.sol\":854:887  token = ERC20Token(_tokenAddress) */\n  0x0100\n  exp\n  dup2\n  sload\n  dup2\n  0xffffffffffffffffffffffffffffffffffffffff\n  mul\n  not\n  and\n  swap1\n  dup4\n  0xffffffffffffffffffffffffffffffffffffffff\n  and\n  mul\n  or\n  swap1\n  sstore\n  pop\n    /* \"Betting.sol\":483:894  constructor(uint256 _raceId, address _tokenAddress, BetType _betType, Arealocation _location, uint256 _amount, uint256 _horseIndex) {... */\n  pop\n  pop\n  pop\n  pop\n  pop\n  pop\n    /* \"Betting.sol\":84:896  contract Betting {... */\n  jump(tag_13)\n    /* \"#utility.yul\":88:205   */\ntag_15:\n    /* \"#utility.yul\":197:198   */\n  0x00\n    /* \"#utility.yul\":194:195   */\n  dup1\n    /* \"#utility.yul\":187:199   */\n  revert\n    /* \"#utility.yul\":334:411   */\ntag_17:\n    /* \"#utility.yul\":371:378   */\n  0x00\n    /* \"#utility.yul\":400:405   */\n  dup2\n    /* \"#utility.yul\":389:405   */\n  swap1\n  pop\n    /* \"#utility.yul\":334:411   */\n  swap2\n  swap1\n  pop\n  jump\t// out\n    /* \"#utility.yul\":417:539   */\ntag_18:\n    /* \"#utility.yul\":490:514   */\n  tag_34\n    /* \"#utility.yul\":508:513   */\n  dup2\n    /* \"#utility.yul\":490:514   */\n  tag_17\n  jump\t// in\ntag_34:\n    /* \"#utility.yul\":483:488   */\n  dup2\n    /* \"#utility.yul\":480:515   */\n  eq\n    /* \"#utility.yul\":470:533   */\n  tag_35\n  jumpi\n    /* \"#utility.yul\":529:530   */\n  0x00\n    /* \"#utility.yul\":526:527   */\n  dup1\n    /* \"#utility.yul\":519:531   */\n  revert\n    /* \"#utility.yul\":470:533   */\ntag_35:\n    /* \"#utility.yul\":417:539   */\n  pop\n  jump\t// out\n    /* \"#utility.yul\":545:688   */\ntag_19:\n    /* \"#utility.yul\":602:607   */\n  0x00\n    /* \"#utility.yul\":633:639   */\n  dup2\n    /* \"#utility.yul\":627:640   */\n  mload\n    /* \"#utility.yul\":618:640   */\n  swap1\n  pop\n    /* \"#utility.yul\":649:682   */\n  tag_37\n    /* \"#utility.yul\":676:681   */\n  dup2\n    /* \"#utility.yul\":649:682   */\n  tag_18\n  jump\t// in\ntag_37:\n    /* \"#utility.yul\":545:688   */\n  swap3\n  swap2\n  pop\n  pop\n  jump\t// out\n    /* \"#utility.yul\":694:820   */\ntag_20:\n    /* \"#utility.yul\":731:738   */\n  0x00\n    /* \"#utility.yul\":771:813   */\n  0xffffffffffffffffffffffffffffffffffffffff\n    /* \"#utility.yul\":764:769   */\n  dup3\n    /* \"#utility.yul\":760:814   */\n  and\n    /* \"#utility.yul\":749:814   */\n  swap1\n  pop\n    /* \"#utility.yul\":694:820   */\n  swap2\n  swap1\n  pop\n  jump\t// out\n    /* \"#utility.yul\":826:922   */\ntag_21:\n    /* \"#utility.yul\":863:870   */\n  0x00\n    /* \"#utility.yul\":892:916   */\n  tag_40\n    /* \"#utility.yul\":910:915   */\n  dup3\n    /* \"#utility.yul\":892:916   */\n  tag_20\n  jump\t// in\ntag_40:\n    /* \"#utility.yul\":881:916   */\n  swap1\n  pop\n    /* \"#utility.yul\":826:922   */\n  swap2\n  swap1\n  pop\n  jump\t// out\n    /* \"#utility.yul\":928:1050   */\ntag_22:\n    /* \"#utility.yul\":1001:1025   */\n  tag_42\n    /* \"#utility.yul\":1019:1024   */\n  dup2\n    /* \"#utility.yul\":1001:1025   */\n  tag_21\n  jump\t// in\ntag_42:\n    /* \"#utility.yul\":994:999   */\n  dup2\n    /* \"#utility.yul\":991:1026   */\n  eq\n    /* \"#utility.yul\":981:1044   */\n  tag_43\n  jumpi\n    /* \"#utility.yul\":1040:1041   */\n  0x00\n    /* \"#utility.yul\":1037:1038   */\n  dup1\n    /* \"#utility.yul\":1030:1042   */\n  revert\n    /* \"#utility.yul\":981:1044   */\ntag_43:\n    /* \"#utility.yul\":928:1050   */\n  pop\n  jump\t// out\n    /* \"#utility.yul\":1056:1199   */\ntag_23:\n    /* \"#utility.yul\":1113:1118   */\n  0x00\n    /* \"#utility.yul\":1144:1150   */\n  dup2\n    /* \"#utility.yul\":1138:1151   */\n  mload\n    /* \"#utility.yul\":1129:1151   */\n  swap1\n  pop\n    /* \"#utility.yul\":1160:1193   */\n  tag_45\n    /* \"#utility.yul\":1187:1192   */\n  dup2\n    /* \"#utility.yul\":1160:1193   */\n  tag_22\n  jump\t// in\ntag_45:\n    /* \"#utility.yul\":1056:1199   */\n  swap3\n  swap2\n  pop\n  pop\n  jump\t// out\n    /* \"#utility.yul\":1205:1314   */\ntag_24:\n    /* \"#utility.yul\":1288:1289   */\n  0x03\n    /* \"#utility.yul\":1281:1286   */\n  dup2\n    /* \"#utility.yul\":1278:1290   */\n  lt\n    /* \"#utility.yul\":1268:1308   */\n  tag_47\n  jumpi\n    /* \"#utility.yul\":1304:1305   */\n  0x00\n    /* \"#utility.yul\":1301:1302   */\n  dup1\n    /* \"#utility.yul\":1294:1306   */\n  revert\n    /* \"#utility.yul\":1268:1308   */\ntag_47:\n    /* \"#utility.yul\":1205:1314   */\n  pop\n  jump\t// out\n    /* \"#utility.yul\":1320:1483   */\ntag_25:\n    /* \"#utility.yul\":1387:1392   */\n  0x00\n    /* \"#utility.yul\":1418:1424   */\n  dup2\n    /* \"#utility.yul\":1412:1425   */\n  mload\n    /* \"#utility.yul\":1403:1425   */\n  swap1\n  pop\n    /* \"#utility.yul\":1434:1477   */\n  tag_49\n    /* \"#utility.yul\":1471:1476   */\n  dup2\n    /* \"#utility.yul\":1434:1477   */\n  tag_24\n  jump\t// in\ntag_49:\n    /* \"#utility.yul\":1320:1483   */\n  swap3\n  swap2\n  pop\n  pop\n  jump\t// out\n    /* \"#utility.yul\":1489:1603   */\ntag_26:\n    /* \"#utility.yul\":1577:1578   */\n  0x02\n    /* \"#utility.yul\":1570:1575   */\n  dup2\n    /* \"#utility.yul\":1567:1579   */\n  lt\n    /* \"#utility.yul\":1557:1597   */\n  tag_51\n  jumpi\n    /* \"#utility.yul\":1593:1594   */\n  0x00\n    /* \"#utility.yul\":1590:1591   */\n  dup1\n    /* \"#utility.yul\":1583:1595   */\n  revert\n    /* \"#utility.yul\":1557:1597   */\ntag_51:\n    /* \"#utility.yul\":1489:1603   */\n  pop\n  jump\t// out\n    /* \"#utility.yul\":1609:1782   */\ntag_27:\n    /* \"#utility.yul\":1681:1686   */\n  0x00\n    /* \"#utility.yul\":1712:1718   */\n  dup2\n    /* \"#utility.yul\":1706:1719   */\n  mload\n    /* \"#utility.yul\":1697:1719   */\n  swap1\n  pop\n    /* \"#utility.yul\":1728:1776   */\n  tag_53\n    /* \"#utility.yul\":1770:1775   */\n  dup2\n    /* \"#utility.yul\":1728:1776   */\n  tag_26\n  jump\t// in\ntag_53:\n    /* \"#utility.yul\":1609:1782   */\n  swap3\n  swap2\n  pop\n  pop\n  jump\t// out\n    /* \"#utility.yul\":1788:2972   */\ntag_3:\n    /* \"#utility.yul\":1928:1934   */\n  0x00\n    /* \"#utility.yul\":1936:1942   */\n  dup1\n    /* \"#utility.yul\":1944:1950   */\n  0x00\n    /* \"#utility.yul\":1952:1958   */\n  dup1\n    /* \"#utility.yul\":1960:1966   */\n  0x00\n    /* \"#utility.yul\":1968:1974   */\n  dup1\n    /* \"#utility.yul\":2017:2020   */\n  0xc0\n    /* \"#utility.yul\":2005:2014   */\n  dup8\n    /* \"#utility.yul\":1996:2003   */\n  dup10\n    /* \"#utility.yul\":1992:2015   */\n  sub\n    /* \"#utility.yul\":1988:2021   */\n  slt\n    /* \"#utility.yul\":1985:2105   */\n  iszero\n  tag_55\n  jumpi\n    /* \"#utility.yul\":2024:2103   */\n  tag_56\n  tag_15\n  jump\t// in\ntag_56:\n    /* \"#utility.yul\":1985:2105   */\ntag_55:\n    /* \"#utility.yul\":2144:2145   */\n  0x00\n    /* \"#utility.yul\":2169:2233   */\n  tag_57\n    /* \"#utility.yul\":2225:2232   */\n  dup10\n    /* \"#utility.yul\":2216:2222   */\n  dup3\n    /* \"#utility.yul\":2205:2214   */\n  dup11\n    /* \"#utility.yul\":2201:2223   */\n  add\n    /* \"#utility.yul\":2169:2233   */\n  tag_19\n  jump\t// in\ntag_57:\n    /* \"#utility.yul\":2159:2233   */\n  swap7\n  pop\n    /* \"#utility.yul\":2115:2243   */\n  pop\n    /* \"#utility.yul\":2282:2284   */\n  0x20\n    /* \"#utility.yul\":2308:2372   */\n  tag_58\n    /* \"#utility.yul\":2364:2371   */\n  dup10\n    /* \"#utility.yul\":2355:2361   */\n  dup3\n    /* \"#utility.yul\":2344:2353   */\n  dup11\n    /* \"#utility.yul\":2340:2362   */\n  add\n    /* \"#utility.yul\":2308:2372   */\n  tag_23\n  jump\t// in\ntag_58:\n    /* \"#utility.yul\":2298:2372   */\n  swap6\n  pop\n    /* \"#utility.yul\":2253:2382   */\n  pop\n    /* \"#utility.yul\":2421:2423   */\n  0x40\n    /* \"#utility.yul\":2447:2521   */\n  tag_59\n    /* \"#utility.yul\":2513:2520   */\n  dup10\n    /* \"#utility.yul\":2504:2510   */\n  dup3\n    /* \"#utility.yul\":2493:2502   */\n  dup11\n    /* \"#utility.yul\":2489:2511   */\n  add\n    /* \"#utility.yul\":2447:2521   */\n  tag_25\n  jump\t// in\ntag_59:\n    /* \"#utility.yul\":2437:2521   */\n  swap5\n  pop\n    /* \"#utility.yul\":2392:2531   */\n  pop\n    /* \"#utility.yul\":2570:2572   */\n  0x60\n    /* \"#utility.yul\":2596:2675   */\n  tag_60\n    /* \"#utility.yul\":2667:2674   */\n  dup10\n    /* \"#utility.yul\":2658:2664   */\n  dup3\n    /* \"#utility.yul\":2647:2656   */\n  dup11\n    /* \"#utility.yul\":2643:2665   */\n  add\n    /* \"#utility.yul\":2596:2675   */\n  tag_27\n  jump\t// in\ntag_60:\n    /* \"#utility.yul\":2586:2675   */\n  swap4\n  pop\n    /* \"#utility.yul\":2541:2685   */\n  pop\n    /* \"#utility.yul\":2724:2727   */\n  0x80\n    /* \"#utility.yul\":2751:2815   */\n  tag_61\n    /* \"#utility.yul\":2807:2814   */\n  dup10\n    /* \"#utility.yul\":2798:2804   */\n  dup3\n    /* \"#utility.yul\":2787:2796   */\n  dup11\n    /* \"#utility.yul\":2783:2805   */\n  add\n    /* \"#utility.yul\":2751:2815   */\n  tag_19\n  jump\t// in\ntag_61:\n    /* \"#utility.yul\":2741:2815   */\n  swap3\n  pop\n    /* \"#utility.yul\":2695:2825   */\n  pop\n    /* \"#utility.yul\":2864:2867   */\n  0xa0\n    /* \"#utility.yul\":2891:2955   */\n  tag_62\n    /* \"#utility.yul\":2947:2954   */\n  dup10\n    /* \"#utility.yul\":2938:2944   */\n  dup3\n    /* \"#utility.yul\":2927:2936   */\n  dup11\n    /* \"#utility.yul\":2923:2945   */\n  add\n    /* \"#utility.yul\":2891:2955   */\n  tag_19\n  jump\t// in\ntag_62:\n    /* \"#utility.yul\":2881:2955   */\n  swap2\n  pop\n    /* \"#utility.yul\":2835:2965   */\n  pop\n    /* \"#utility.yul\":1788:2972   */\n  swap3\n  swap6\n  pop\n  swap3\n  swap6\n  pop\n  swap3\n  swap6\n  jump\t// out\n    /* \"#utility.yul\":2978:3158   */\ntag_8:\n    /* \"#utility.yul\":3026:3103   */\n  0x4e487b7100000000000000000000000000000000000000000000000000000000\n    /* \"#utility.yul\":3023:3024   */\n  0x00\n    /* \"#utility.yul\":3016:3104   */\n  mstore\n    /* \"#utility.yul\":3123:3127   */\n  0x21\n    /* \"#utility.yul\":3120:3121   */\n  0x04\n    /* \"#utility.yul\":3113:3128   */\n  mstore\n    /* \"#utility.yul\":3147:3151   */\n  0x24\n    /* \"#utility.yul\":3144:3145   */\n  0x00\n    /* \"#utility.yul\":3137:3152   */\n  revert\n    /* \"Betting.sol\":84:896  contract Betting {... */\ntag_13:\n  dataSize(sub_0)\n  dup1\n  dataOffset(sub_0)\n  0x00\n  codecopy\n  0x00\n  return\nstop\n\nsub_0: assembly {\n        /* \"Betting.sol\":84:896  contract Betting {... */\n      mstore(0x40, 0x80)\n      callvalue\n      dup1\n      iszero\n      tag_1\n      jumpi\n      0x00\n      dup1\n      revert\n    tag_1:\n      pop\n      jumpi(tag_2, lt(calldatasize, 0x04))\n      shr(0xe0, calldataload(0x00))\n      dup1\n      0xbfb3047f\n      gt\n      tag_10\n      jumpi\n      dup1\n      0xbfb3047f\n      eq\n      tag_6\n      jumpi\n      dup1\n      0xc41a0c60\n      eq\n      tag_7\n      jumpi\n      dup1\n      0xed3a865e\n      eq\n      tag_8\n      jumpi\n      dup1\n      0xfc0c546a\n      eq\n      tag_9\n      jumpi\n      jump(tag_2)\n    tag_10:\n      dup1\n      0x4e92a646\n      eq\n      tag_3\n      jumpi\n      dup1\n      0x516f279e\n      eq\n      tag_4\n      jumpi\n      dup1\n      0xaa8c217c\n      eq\n      tag_5\n      jumpi\n    tag_2:\n      0x00\n      dup1\n      revert\n        /* \"Betting.sol\":403:446  mapping(address => BetType) public userBets */\n    tag_3:\n      tag_11\n      0x04\n      dup1\n      calldatasize\n      sub\n      dup2\n      add\n      swap1\n      tag_12\n      swap2\n      swap1\n      tag_13\n      jump\t// in\n    tag_12:\n      tag_14\n      jump\t// in\n    tag_11:\n      mload(0x40)\n      tag_15\n      swap2\n      swap1\n      tag_16\n      jump\t// in\n    tag_15:\n      mload(0x40)\n      dup1\n      swap2\n      sub\n      swap1\n      return\n        /* \"Betting.sol\":256:284  Arealocation public location */\n    tag_4:\n      tag_17\n      tag_18\n      jump\t// in\n    tag_17:\n      mload(0x40)\n      tag_19\n      swap2\n      swap1\n      tag_20\n      jump\t// in\n    tag_19:\n      mload(0x40)\n      dup1\n      swap2\n      sub\n      swap1\n      return\n        /* \"Betting.sol\":134:155  uint256 public amount */\n    tag_5:\n      tag_21\n      tag_22\n      jump\t// in\n    tag_21:\n      mload(0x40)\n      tag_23\n      swap2\n      swap1\n      tag_24\n      jump\t// in\n    tag_23:\n      mload(0x40)\n      dup1\n      swap2\n      sub\n      swap1\n      return\n        /* \"Betting.sol\":371:397  BetResult public betResult */\n    tag_6:\n      tag_25\n      tag_26\n      jump\t// in\n    tag_25:\n      mload(0x40)\n      tag_27\n      swap2\n      swap1\n      tag_28\n      jump\t// in\n    tag_27:\n      mload(0x40)\n      dup1\n      swap2\n      sub\n      swap1\n      return\n        /* \"Betting.sol\":161:186  uint256 public horseIndex */\n    tag_7:\n      tag_29\n      tag_30\n      jump\t// in\n    tag_29:\n      mload(0x40)\n      tag_31\n      swap2\n      swap1\n      tag_24\n      jump\t// in\n    tag_31:\n      mload(0x40)\n      dup1\n      swap2\n      sub\n      swap1\n      return\n        /* \"Betting.sol\":107:128  uint256 public raceId */\n    tag_8:\n      tag_32\n      tag_33\n      jump\t// in\n    tag_32:\n      mload(0x40)\n      tag_34\n      swap2\n      swap1\n      tag_24\n      jump\t// in\n    tag_34:\n      mload(0x40)\n      dup1\n      swap2\n      sub\n      swap1\n      return\n        /* \"Betting.sol\":453:476  ERC20Token public token */\n    tag_9:\n      tag_35\n      tag_36\n      jump\t// in\n    tag_35:\n      mload(0x40)\n      tag_37\n      swap2\n      swap1\n      tag_38\n      jump\t// in\n    tag_37:\n      mload(0x40)\n      dup1\n      swap2\n      sub\n      swap1\n      return\n        /* \"Betting.sol\":403:446  mapping(address => BetType) public userBets */\n    tag_14:\n      mstore(0x20, 0x04)\n      dup1\n      0x00\n      mstore\n      keccak256(0x00, 0x40)\n      0x00\n      swap2\n      pop\n      sload\n      swap1\n      0x0100\n      exp\n      swap1\n      div\n      0xff\n      and\n      dup2\n      jump\t// out\n        /* \"Betting.sol\":256:284  Arealocation public location */\n    tag_18:\n      0x03\n      0x14\n      swap1\n      sload\n      swap1\n      0x0100\n      exp\n      swap1\n      div\n      0xff\n      and\n      dup2\n      jump\t// out\n        /* \"Betting.sol\":134:155  uint256 public amount */\n    tag_22:\n      sload(0x01)\n      dup2\n      jump\t// out\n        /* \"Betting.sol\":371:397  BetResult public betResult */\n    tag_26:\n      0x03\n      0x15\n      swap1\n      sload\n      swap1\n      0x0100\n      exp\n      swap1\n      div\n      0xff\n      and\n      dup2\n      jump\t// out\n        /* \"Betting.sol\":161:186  uint256 public horseIndex */\n    tag_30:\n      sload(0x02)\n      dup2\n      jump\t// out\n        /* \"Betting.sol\":107:128  uint256 public raceId */\n    tag_33:\n      sload(0x00)\n      dup2\n      jump\t// out\n        /* \"Betting.sol\":453:476  ERC20Token public token */\n    tag_36:\n      0x05\n      0x00\n      swap1\n      sload\n      swap1\n      0x0100\n      exp\n      swap1\n      div\n      0xffffffffffffffffffffffffffffffffffffffff\n      and\n      dup2\n      jump\t// out\n        /* \"#utility.yul\":88:205   */\n    tag_40:\n        /* \"#utility.yul\":197:198   */\n      0x00\n        /* \"#utility.yul\":194:195   */\n      dup1\n        /* \"#utility.yul\":187:199   */\n      revert\n        /* \"#utility.yul\":334:460   */\n    tag_42:\n        /* \"#utility.yul\":371:378   */\n      0x00\n        /* \"#utility.yul\":411:453   */\n      0xffffffffffffffffffffffffffffffffffffffff\n        /* \"#utility.yul\":404:409   */\n      dup3\n        /* \"#utility.yul\":400:454   */\n      and\n        /* \"#utility.yul\":389:454   */\n      swap1\n      pop\n        /* \"#utility.yul\":334:460   */\n      swap2\n      swap1\n      pop\n      jump\t// out\n        /* \"#utility.yul\":466:562   */\n    tag_43:\n        /* \"#utility.yul\":503:510   */\n      0x00\n        /* \"#utility.yul\":532:556   */\n      tag_72\n        /* \"#utility.yul\":550:555   */\n      dup3\n        /* \"#utility.yul\":532:556   */\n      tag_42\n      jump\t// in\n    tag_72:\n        /* \"#utility.yul\":521:556   */\n      swap1\n      pop\n        /* \"#utility.yul\":466:562   */\n      swap2\n      swap1\n      pop\n      jump\t// out\n        /* \"#utility.yul\":568:690   */\n    tag_44:\n        /* \"#utility.yul\":641:665   */\n      tag_74\n        /* \"#utility.yul\":659:664   */\n      dup2\n        /* \"#utility.yul\":641:665   */\n      tag_43\n      jump\t// in\n    tag_74:\n        /* \"#utility.yul\":634:639   */\n      dup2\n        /* \"#utility.yul\":631:666   */\n      eq\n        /* \"#utility.yul\":621:684   */\n      tag_75\n      jumpi\n        /* \"#utility.yul\":680:681   */\n      0x00\n        /* \"#utility.yul\":677:678   */\n      dup1\n        /* \"#utility.yul\":670:682   */\n      revert\n        /* \"#utility.yul\":621:684   */\n    tag_75:\n        /* \"#utility.yul\":568:690   */\n      pop\n      jump\t// out\n        /* \"#utility.yul\":696:835   */\n    tag_45:\n        /* \"#utility.yul\":742:747   */\n      0x00\n        /* \"#utility.yul\":780:786   */\n      dup2\n        /* \"#utility.yul\":767:787   */\n      calldataload\n        /* \"#utility.yul\":758:787   */\n      swap1\n      pop\n        /* \"#utility.yul\":796:829   */\n      tag_77\n        /* \"#utility.yul\":823:828   */\n      dup2\n        /* \"#utility.yul\":796:829   */\n      tag_44\n      jump\t// in\n    tag_77:\n        /* \"#utility.yul\":696:835   */\n      swap3\n      swap2\n      pop\n      pop\n      jump\t// out\n        /* \"#utility.yul\":841:1170   */\n    tag_13:\n        /* \"#utility.yul\":900:906   */\n      0x00\n        /* \"#utility.yul\":949:951   */\n      0x20\n        /* \"#utility.yul\":937:946   */\n      dup3\n        /* \"#utility.yul\":928:935   */\n      dup5\n        /* \"#utility.yul\":924:947   */\n      sub\n        /* \"#utility.yul\":920:952   */\n      slt\n        /* \"#utility.yul\":917:1036   */\n      iszero\n      tag_79\n      jumpi\n        /* \"#utility.yul\":955:1034   */\n      tag_80\n      tag_40\n      jump\t// in\n    tag_80:\n        /* \"#utility.yul\":917:1036   */\n    tag_79:\n        /* \"#utility.yul\":1075:1076   */\n      0x00\n        /* \"#utility.yul\":1100:1153   */\n      tag_81\n        /* \"#utility.yul\":1145:1152   */\n      dup5\n        /* \"#utility.yul\":1136:1142   */\n      dup3\n        /* \"#utility.yul\":1125:1134   */\n      dup6\n        /* \"#utility.yul\":1121:1143   */\n      add\n        /* \"#utility.yul\":1100:1153   */\n      tag_45\n      jump\t// in\n    tag_81:\n        /* \"#utility.yul\":1090:1153   */\n      swap2\n      pop\n        /* \"#utility.yul\":1046:1163   */\n      pop\n        /* \"#utility.yul\":841:1170   */\n      swap3\n      swap2\n      pop\n      pop\n      jump\t// out\n        /* \"#utility.yul\":1176:1356   */\n    tag_46:\n        /* \"#utility.yul\":1224:1301   */\n      0x4e487b7100000000000000000000000000000000000000000000000000000000\n        /* \"#utility.yul\":1221:1222   */\n      0x00\n        /* \"#utility.yul\":1214:1302   */\n      mstore\n        /* \"#utility.yul\":1321:1325   */\n      0x21\n        /* \"#utility.yul\":1318:1319   */\n      0x04\n        /* \"#utility.yul\":1311:1326   */\n      mstore\n        /* \"#utility.yul\":1345:1349   */\n      0x24\n        /* \"#utility.yul\":1342:1343   */\n      0x00\n        /* \"#utility.yul\":1335:1350   */\n      revert\n        /* \"#utility.yul\":1362:1477   */\n    tag_47:\n        /* \"#utility.yul\":1445:1446   */\n      0x03\n        /* \"#utility.yul\":1438:1443   */\n      dup2\n        /* \"#utility.yul\":1435:1447   */\n      lt\n        /* \"#utility.yul\":1425:1471   */\n      tag_84\n      jumpi\n        /* \"#utility.yul\":1451:1469   */\n      tag_85\n      tag_46\n      jump\t// in\n    tag_85:\n        /* \"#utility.yul\":1425:1471   */\n    tag_84:\n        /* \"#utility.yul\":1362:1477   */\n      pop\n      jump\t// out\n        /* \"#utility.yul\":1483:1614   */\n    tag_48:\n        /* \"#utility.yul\":1530:1537   */\n      0x00\n        /* \"#utility.yul\":1559:1564   */\n      dup2\n        /* \"#utility.yul\":1548:1564   */\n      swap1\n      pop\n        /* \"#utility.yul\":1565:1608   */\n      tag_87\n        /* \"#utility.yul\":1602:1607   */\n      dup3\n        /* \"#utility.yul\":1565:1608   */\n      tag_47\n      jump\t// in\n    tag_87:\n        /* \"#utility.yul\":1483:1614   */\n      swap2\n      swap1\n      pop\n      jump\t// out\n        /* \"#utility.yul\":1620:1751   */\n    tag_49:\n        /* \"#utility.yul\":1678:1687   */\n      0x00\n        /* \"#utility.yul\":1711:1745   */\n      tag_89\n        /* \"#utility.yul\":1739:1744   */\n      dup3\n        /* \"#utility.yul\":1711:1745   */\n      tag_48\n      jump\t// in\n    tag_89:\n        /* \"#utility.yul\":1698:1745   */\n      swap1\n      pop\n        /* \"#utility.yul\":1620:1751   */\n      swap2\n      swap1\n      pop\n      jump\t// out\n        /* \"#utility.yul\":1757:1904   */\n    tag_50:\n        /* \"#utility.yul\":1852:1897   */\n      tag_91\n        /* \"#utility.yul\":1891:1896   */\n      dup2\n        /* \"#utility.yul\":1852:1897   */\n      tag_49\n      jump\t// in\n    tag_91:\n        /* \"#utility.yul\":1847:1850   */\n      dup3\n        /* \"#utility.yul\":1840:1898   */\n      mstore\n        /* \"#utility.yul\":1757:1904   */\n      pop\n      pop\n      jump\t// out\n        /* \"#utility.yul\":1910:2148   */\n    tag_16:\n        /* \"#utility.yul\":2011:2015   */\n      0x00\n        /* \"#utility.yul\":2049:2051   */\n      0x20\n        /* \"#utility.yul\":2038:2047   */\n      dup3\n        /* \"#utility.yul\":2034:2052   */\n      add\n        /* \"#utility.yul\":2026:2052   */\n      swap1\n      pop\n        /* \"#utility.yul\":2062:2141   */\n      tag_93\n        /* \"#utility.yul\":2138:2139   */\n      0x00\n        /* \"#utility.yul\":2127:2136   */\n      dup4\n        /* \"#utility.yul\":2123:2140   */\n      add\n        /* \"#utility.yul\":2114:2120   */\n      dup5\n        /* \"#utility.yul\":2062:2141   */\n      tag_50\n      jump\t// in\n    tag_93:\n        /* \"#utility.yul\":1910:2148   */\n      swap3\n      swap2\n      pop\n      pop\n      jump\t// out\n        /* \"#utility.yul\":2154:2274   */\n    tag_51:\n        /* \"#utility.yul\":2242:2243   */\n      0x02\n        /* \"#utility.yul\":2235:2240   */\n      dup2\n        /* \"#utility.yul\":2232:2244   */\n      lt\n        /* \"#utility.yul\":2222:2268   */\n      tag_95\n      jumpi\n        /* \"#utility.yul\":2248:2266   */\n      tag_96\n      tag_46\n      jump\t// in\n    tag_96:\n        /* \"#utility.yul\":2222:2268   */\n    tag_95:\n        /* \"#utility.yul\":2154:2274   */\n      pop\n      jump\t// out\n        /* \"#utility.yul\":2280:2421   */\n    tag_52:\n        /* \"#utility.yul\":2332:2339   */\n      0x00\n        /* \"#utility.yul\":2361:2366   */\n      dup2\n        /* \"#utility.yul\":2350:2366   */\n      swap1\n      pop\n        /* \"#utility.yul\":2367:2415   */\n      tag_98\n        /* \"#utility.yul\":2409:2414   */\n      dup3\n        /* \"#utility.yul\":2367:2415   */\n      tag_51\n      jump\t// in\n    tag_98:\n        /* \"#utility.yul\":2280:2421   */\n      swap2\n      swap1\n      pop\n      jump\t// out\n        /* \"#utility.yul\":2427:2568   */\n    tag_53:\n        /* \"#utility.yul\":2490:2499   */\n      0x00\n        /* \"#utility.yul\":2523:2562   */\n      tag_100\n        /* \"#utility.yul\":2556:2561   */\n      dup3\n        /* \"#utility.yul\":2523:2562   */\n      tag_52\n      jump\t// in\n    tag_100:\n        /* \"#utility.yul\":2510:2562   */\n      swap1\n      pop\n        /* \"#utility.yul\":2427:2568   */\n      swap2\n      swap1\n      pop\n      jump\t// out\n        /* \"#utility.yul\":2574:2731   */\n    tag_54:\n        /* \"#utility.yul\":2674:2724   */\n      tag_102\n        /* \"#utility.yul\":2718:2723   */\n      dup2\n        /* \"#utility.yul\":2674:2724   */\n      tag_53\n      jump\t// in\n    tag_102:\n        /* \"#utility.yul\":2669:2672   */\n      dup3\n        /* \"#utility.yul\":2662:2725   */\n      mstore\n        /* \"#utility.yul\":2574:2731   */\n      pop\n      pop\n      jump\t// out\n        /* \"#utility.yul\":2737:2985   */\n    tag_20:\n        /* \"#utility.yul\":2843:2847   */\n      0x00\n        /* \"#utility.yul\":2881:2883   */\n      0x20\n        /* \"#utility.yul\":2870:2879   */\n      dup3\n        /* \"#utility.yul\":2866:2884   */\n      add\n        /* \"#utility.yul\":2858:2884   */\n      swap1\n      pop\n        /* \"#utility.yul\":2894:2978   */\n      tag_104\n        /* \"#utility.yul\":2975:2976   */\n      0x00\n        /* \"#utility.yul\":2964:2973   */\n      dup4\n        /* \"#utility.yul\":2960:2977   */\n      add\n        /* \"#utility.yul\":2951:2957   */\n      dup5\n        /* \"#utility.yul\":2894:2978   */\n      tag_54\n      jump\t// in\n    tag_104:\n        /* \"#utility.yul\":2737:2985   */\n      swap3\n      swap2\n      pop\n      pop\n      jump\t// out\n        /* \"#utility.yul\":2991:3068   */\n    tag_55:\n        /* \"#utility.yul\":3028:3035   */\n      0x00\n        /* \"#utility.yul\":3057:3062   */\n      dup2\n        /* \"#utility.yul\":3046:3062   */\n      swap1\n      pop\n        /* \"#utility.yul\":2991:3068   */\n      swap2\n      swap1\n      pop\n      jump\t// out\n        /* \"#utility.yul\":3074:3192   */\n    tag_56:\n        /* \"#utility.yul\":3161:3185   */\n      tag_107\n        /* \"#utility.yul\":3179:3184   */\n      dup2\n        /* \"#utility.yul\":3161:3185   */\n      tag_55\n      jump\t// in\n    tag_107:\n        /* \"#utility.yul\":3156:3159   */\n      dup3\n        /* \"#utility.yul\":3149:3186   */\n      mstore\n        /* \"#utility.yul\":3074:3192   */\n      pop\n      pop\n      jump\t// out\n        /* \"#utility.yul\":3198:3420   */\n    tag_24:\n        /* \"#utility.yul\":3291:3295   */\n      0x00\n        /* \"#utility.yul\":3329:3331   */\n      0x20\n        /* \"#utility.yul\":3318:3327   */\n      dup3\n        /* \"#utility.yul\":3314:3332   */\n      add\n        /* \"#utility.yul\":3306:3332   */\n      swap1\n      pop\n        /* \"#utility.yul\":3342:3413   */\n      tag_109\n        /* \"#utility.yul\":3410:3411   */\n      0x00\n        /* \"#utility.yul\":3399:3408   */\n      dup4\n        /* \"#utility.yul\":3395:3412   */\n      add\n        /* \"#utility.yul\":3386:3392   */\n      dup5\n        /* \"#utility.yul\":3342:3413   */\n      tag_56\n      jump\t// in\n    tag_109:\n        /* \"#utility.yul\":3198:3420   */\n      swap3\n      swap2\n      pop\n      pop\n      jump\t// out\n        /* \"#utility.yul\":3426:3543   */\n    tag_57:\n        /* \"#utility.yul\":3511:3512   */\n      0x04\n        /* \"#utility.yul\":3504:3509   */\n      dup2\n        /* \"#utility.yul\":3501:3513   */\n      lt\n        /* \"#utility.yul\":3491:3537   */\n      tag_111\n      jumpi\n        /* \"#utility.yul\":3517:3535   */\n      tag_112\n      tag_46\n      jump\t// in\n    tag_112:\n        /* \"#utility.yul\":3491:3537   */\n    tag_111:\n        /* \"#utility.yul\":3426:3543   */\n      pop\n      jump\t// out\n        /* \"#utility.yul\":3549:3684   */\n    tag_58:\n        /* \"#utility.yul\":3598:3605   */\n      0x00\n        /* \"#utility.yul\":3627:3632   */\n      dup2\n        /* \"#utility.yul\":3616:3632   */\n      swap1\n      pop\n        /* \"#utility.yul\":3633:3678   */\n      tag_114\n        /* \"#utility.yul\":3672:3677   */\n      dup3\n        /* \"#utility.yul\":3633:3678   */\n      tag_57\n      jump\t// in\n    tag_114:\n        /* \"#utility.yul\":3549:3684   */\n      swap2\n      swap1\n      pop\n      jump\t// out\n        /* \"#utility.yul\":3690:3825   */\n    tag_59:\n        /* \"#utility.yul\":3750:3759   */\n      0x00\n        /* \"#utility.yul\":3783:3819   */\n      tag_116\n        /* \"#utility.yul\":3813:3818   */\n      dup3\n        /* \"#utility.yul\":3783:3819   */\n      tag_58\n      jump\t// in\n    tag_116:\n        /* \"#utility.yul\":3770:3819   */\n      swap1\n      pop\n        /* \"#utility.yul\":3690:3825   */\n      swap2\n      swap1\n      pop\n      jump\t// out\n        /* \"#utility.yul\":3831:3982   */\n    tag_60:\n        /* \"#utility.yul\":3928:3975   */\n      tag_118\n        /* \"#utility.yul\":3969:3974   */\n      dup2\n        /* \"#utility.yul\":3928:3975   */\n      tag_59\n      jump\t// in\n    tag_118:\n        /* \"#utility.yul\":3923:3926   */\n      dup3\n        /* \"#utility.yul\":3916:3976   */\n      mstore\n        /* \"#utility.yul\":3831:3982   */\n      pop\n      pop\n      jump\t// out\n        /* \"#utility.yul\":3988:4230   */\n    tag_28:\n        /* \"#utility.yul\":4091:4095   */\n      0x00\n        /* \"#utility.yul\":4129:4131   */\n      0x20\n        /* \"#utility.yul\":4118:4127   */\n      dup3\n        /* \"#utility.yul\":4114:4132   */\n      add\n        /* \"#utility.yul\":4106:4132   */\n      swap1\n      pop\n        /* \"#utility.yul\":4142:4223   */\n      tag_120\n        /* \"#utility.yul\":4220:4221   */\n      0x00\n        /* \"#utility.yul\":4209:4218   */\n      dup4\n        /* \"#utility.yul\":4205:4222   */\n      add\n        /* \"#utility.yul\":4196:4202   */\n      dup5\n        /* \"#utility.yul\":4142:4223   */\n      tag_60\n      jump\t// in\n    tag_120:\n        /* \"#utility.yul\":3988:4230   */\n      swap3\n      swap2\n      pop\n      pop\n      jump\t// out\n        /* \"#utility.yul\":4236:4296   */\n    tag_61:\n        /* \"#utility.yul\":4264:4267   */\n      0x00\n        /* \"#utility.yul\":4285:4290   */\n      dup2\n        /* \"#utility.yul\":4278:4290   */\n      swap1\n      pop\n        /* \"#utility.yul\":4236:4296   */\n      swap2\n      swap1\n      pop\n      jump\t// out\n        /* \"#utility.yul\":4302:4444   */\n    tag_62:\n        /* \"#utility.yul\":4352:4361   */\n      0x00\n        /* \"#utility.yul\":4385:4438   */\n      tag_123\n        /* \"#utility.yul\":4403:4437   */\n      tag_124\n        /* \"#utility.yul\":4412:4436   */\n      tag_125\n        /* \"#utility.yul\":4430:4435   */\n      dup5\n        /* \"#utility.yul\":4412:4436   */\n      tag_42\n      jump\t// in\n    tag_125:\n        /* \"#utility.yul\":4403:4437   */\n      tag_61\n      jump\t// in\n    tag_124:\n        /* \"#utility.yul\":4385:4438   */\n      tag_42\n      jump\t// in\n    tag_123:\n        /* \"#utility.yul\":4372:4438   */\n      swap1\n      pop\n        /* \"#utility.yul\":4302:4444   */\n      swap2\n      swap1\n      pop\n      jump\t// out\n        /* \"#utility.yul\":4450:4576   */\n    tag_63:\n        /* \"#utility.yul\":4500:4509   */\n      0x00\n        /* \"#utility.yul\":4533:4570   */\n      tag_127\n        /* \"#utility.yul\":4564:4569   */\n      dup3\n        /* \"#utility.yul\":4533:4570   */\n      tag_62\n      jump\t// in\n    tag_127:\n        /* \"#utility.yul\":4520:4570   */\n      swap1\n      pop\n        /* \"#utility.yul\":4450:4576   */\n      swap2\n      swap1\n      pop\n      jump\t// out\n        /* \"#utility.yul\":4582:4726   */\n    tag_64:\n        /* \"#utility.yul\":4650:4659   */\n      0x00\n        /* \"#utility.yul\":4683:4720   */\n      tag_129\n        /* \"#utility.yul\":4714:4719   */\n      dup3\n        /* \"#utility.yul\":4683:4720   */\n      tag_63\n      jump\t// in\n    tag_129:\n        /* \"#utility.yul\":4670:4720   */\n      swap1\n      pop\n        /* \"#utility.yul\":4582:4726   */\n      swap2\n      swap1\n      pop\n      jump\t// out\n        /* \"#utility.yul\":4732:4899   */\n    tag_65:\n        /* \"#utility.yul\":4837:4892   */\n      tag_131\n        /* \"#utility.yul\":4886:4891   */\n      dup2\n        /* \"#utility.yul\":4837:4892   */\n      tag_64\n      jump\t// in\n    tag_131:\n        /* \"#utility.yul\":4832:4835   */\n      dup3\n        /* \"#utility.yul\":4825:4893   */\n      mstore\n        /* \"#utility.yul\":4732:4899   */\n      pop\n      pop\n      jump\t// out\n        /* \"#utility.yul\":4905:5163   */\n    tag_38:\n        /* \"#utility.yul\":5016:5020   */\n      0x00\n        /* \"#utility.yul\":5054:5056   */\n      0x20\n        /* \"#utility.yul\":5043:5052   */\n      dup3\n        /* \"#utility.yul\":5039:5057   */\n      add\n        /* \"#utility.yul\":5031:5057   */\n      swap1\n      pop\n        /* \"#utility.yul\":5067:5156   */\n      tag_133\n        /* \"#utility.yul\":5153:5154   */\n      0x00\n        /* \"#utility.yul\":5142:5151   */\n      dup4\n        /* \"#utility.yul\":5138:5155   */\n      add\n        /* \"#utility.yul\":5129:5135   */\n      dup5\n        /* \"#utility.yul\":5067:5156   */\n      tag_65\n      jump\t// in\n    tag_133:\n        /* \"#utility.yul\":4905:5163   */\n      swap3\n      swap2\n      pop\n      pop\n      jump\t// out\n\n    auxdata: 0xa2646970667358221220db816f825577b120a16b756fdd49c781cc29c20fd33a666e6ef7b623d98de34664736f6c63430008150033\n}\n",
				"bytecode": {
					"linkReferences": {},
					"object": "608060405234801561000f575f80fd5b506040516107ac3803806107ac8339818101604052810190610031919061025f565b855f819055508060028190555082600360146101000a81548160ff02191690836001811115610063576100626102e8565b5b021790555060038060156101000a81548160ff0219169083600381111561008d5761008c6102e8565b5b02179055508360045f3373ffffffffffffffffffffffffffffffffffffffff1673ffffffffffffffffffffffffffffffffffffffff1681526020019081526020015f205f6101000a81548160ff021916908360028111156100f1576100f06102e8565b5b0217905550816001819055508460035f6101000a81548173ffffffffffffffffffffffffffffffffffffffff021916908373ffffffffffffffffffffffffffffffffffffffff1602179055508460055f6101000a81548173ffffffffffffffffffffffffffffffffffffffff021916908373ffffffffffffffffffffffffffffffffffffffff160217905550505050505050610315565b5f80fd5b5f819050919050565b61019e8161018c565b81146101a8575f80fd5b50565b5f815190506101b981610195565b92915050565b5f73ffffffffffffffffffffffffffffffffffffffff82169050919050565b5f6101e8826101bf565b9050919050565b6101f8816101de565b8114610202575f80fd5b50565b5f81519050610213816101ef565b92915050565b60038110610225575f80fd5b50565b5f8151905061023681610219565b92915050565b60028110610248575f80fd5b50565b5f815190506102598161023c565b92915050565b5f805f805f8060c0878903121561027957610278610188565b5b5f61028689828a016101ab565b965050602061029789828a01610205565b95505060406102a889828a01610228565b94505060606102b989828a0161024b565b93505060806102ca89828a016101ab565b92505060a06102db89828a016101ab565b9150509295509295509295565b7f4e487b71000000000000000000000000000000000000000000000000000000005f52602160045260245ffd5b61048a806103225f395ff3fe608060405234801561000f575f80fd5b506004361061007b575f3560e01c8063bfb3047f11610059578063bfb3047f146100eb578063c41a0c6014610109578063ed3a865e14610127578063fc0c546a146101455761007b565b80634e92a6461461007f578063516f279e146100af578063aa8c217c146100cd575b5f80fd5b6100996004803603810190610094919061023a565b610163565b6040516100a691906102d8565b60405180910390f35b6100b7610180565b6040516100c49190610337565b60405180910390f35b6100d5610193565b6040516100e29190610368565b60405180910390f35b6100f3610199565b60405161010091906103c7565b60405180910390f35b6101116101ac565b60405161011e9190610368565b60405180910390f35b61012f6101b2565b60405161013c9190610368565b60405180910390f35b61014d6101b7565b60405161015a919061043b565b60405180910390f35b6004602052805f5260405f205f915054906101000a900460ff1681565b600360149054906101000a900460ff1681565b60015481565b600360159054906101000a900460ff1681565b60025481565b5f5481565b60055f9054906101000a900473ffffffffffffffffffffffffffffffffffffffff1681565b5f80fd5b5f73ffffffffffffffffffffffffffffffffffffffff82169050919050565b5f610209826101e0565b9050919050565b610219816101ff565b8114610223575f80fd5b50565b5f8135905061023481610210565b92915050565b5f6020828403121561024f5761024e6101dc565b5b5f61025c84828501610226565b91505092915050565b7f4e487b71000000000000000000000000000000000000000000000000000000005f52602160045260245ffd5b600381106102a3576102a2610265565b5b50565b5f8190506102b382610292565b919050565b5f6102c2826102a6565b9050919050565b6102d2816102b8565b82525050565b5f6020820190506102eb5f8301846102c9565b92915050565b6002811061030257610301610265565b5b50565b5f819050610312826102f1565b919050565b5f61032182610305565b9050919050565b61033181610317565b82525050565b5f60208201905061034a5f830184610328565b92915050565b5f819050919050565b61036281610350565b82525050565b5f60208201905061037b5f830184610359565b92915050565b6004811061039257610391610265565b5b50565b5f8190506103a282610381565b919050565b5f6103b182610395565b9050919050565b6103c1816103a7565b82525050565b5f6020820190506103da5f8301846103b8565b92915050565b5f819050919050565b5f6104036103fe6103f9846101e0565b6103e0565b6101e0565b9050919050565b5f610414826103e9565b9050919050565b5f6104258261040a565b9050919050565b6104358161041b565b82525050565b5f60208201905061044e5f83018461042c565b9291505056fea2646970667358221220db816f825577b120a16b756fdd49c781cc29c20fd33a666e6ef7b623d98de34664736f6c63430008150033",
					"opcodes": "PUSH1 0x80 PUSH1 0x40 MSTORE CALLVALUE DUP1 ISZERO PUSH2 0xF JUMPI PUSH0 DUP1 REVERT JUMPDEST POP PUSH1 0x40 MLOAD PUSH2 0x7AC CODESIZE SUB DUP1 PUSH2 0x7AC DUP4 CODECOPY DUP2 DUP2 ADD PUSH1 0x40 MSTORE DUP2 ADD SWAP1 PUSH2 0x31 SWAP2 SWAP1 PUSH2 0x25F JUMP JUMPDEST DUP6 PUSH0 DUP2 SWAP1 SSTORE POP DUP1 PUSH1 0x2 DUP2 SWAP1 SSTORE POP DUP3 PUSH1 0x3 PUSH1 0x14 PUSH2 0x100 EXP DUP2 SLOAD DUP2 PUSH1 0xFF MUL NOT AND SWAP1 DUP4 PUSH1 0x1 DUP2 GT ISZERO PUSH2 0x63 JUMPI PUSH2 0x62 PUSH2 0x2E8 JUMP JUMPDEST JUMPDEST MUL OR SWAP1 SSTORE POP PUSH1 0x3 DUP1 PUSH1 0x15 PUSH2 0x100 EXP DUP2 SLOAD DUP2 PUSH1 0xFF MUL NOT AND SWAP1 DUP4 PUSH1 0x3 DUP2 GT ISZERO PUSH2 0x8D JUMPI PUSH2 0x8C PUSH2 0x2E8 JUMP JUMPDEST JUMPDEST MUL OR SWAP1 SSTORE POP DUP4 PUSH1 0x4 PUSH0 CALLER PUSH20 0xFFFFFFFFFFFFFFFFFFFFFFFFFFFFFFFFFFFFFFFF AND PUSH20 0xFFFFFFFFFFFFFFFFFFFFFFFFFFFFFFFFFFFFFFFF AND DUP2 MSTORE PUSH1 0x20 ADD SWAP1 DUP2 MSTORE PUSH1 0x20 ADD PUSH0 KECCAK256 PUSH0 PUSH2 0x100 EXP DUP2 SLOAD DUP2 PUSH1 0xFF MUL NOT AND SWAP1 DUP4 PUSH1 0x2 DUP2 GT ISZERO PUSH2 0xF1 JUMPI PUSH2 0xF0 PUSH2 0x2E8 JUMP JUMPDEST JUMPDEST MUL OR SWAP1 SSTORE POP DUP2 PUSH1 0x1 DUP2 SWAP1 SSTORE POP DUP5 PUSH1 0x3 PUSH0 PUSH2 0x100 EXP DUP2 SLOAD DUP2 PUSH20 0xFFFFFFFFFFFFFFFFFFFFFFFFFFFFFFFFFFFFFFFF MUL NOT AND SWAP1 DUP4 PUSH20 0xFFFFFFFFFFFFFFFFFFFFFFFFFFFFFFFFFFFFFFFF AND MUL OR SWAP1 SSTORE POP DUP5 PUSH1 0x5 PUSH0 PUSH2 0x100 EXP DUP2 SLOAD DUP2 PUSH20 0xFFFFFFFFFFFFFFFFFFFFFFFFFFFFFFFFFFFFFFFF MUL NOT AND SWAP1 DUP4 PUSH20 0xFFFFFFFFFFFFFFFFFFFFFFFFFFFFFFFFFFFFFFFF AND MUL OR SWAP1 SSTORE POP POP POP POP POP POP POP PUSH2 0x315 JUMP JUMPDEST PUSH0 DUP1 REVERT JUMPDEST PUSH0 DUP2 SWAP1 POP SWAP2 SWAP1 POP JUMP JUMPDEST PUSH2 0x19E DUP2 PUSH2 0x18C JUMP JUMPDEST DUP2 EQ PUSH2 0x1A8 JUMPI PUSH0 DUP1 REVERT JUMPDEST POP JUMP JUMPDEST PUSH0 DUP2 MLOAD SWAP1 POP PUSH2 0x1B9 DUP2 PUSH2 0x195 JUMP JUMPDEST SWAP3 SWAP2 POP POP JUMP JUMPDEST PUSH0 PUSH20 0xFFFFFFFFFFFFFFFFFFFFFFFFFFFFFFFFFFFFFFFF DUP3 AND SWAP1 POP SWAP2 SWAP1 POP JUMP JUMPDEST PUSH0 PUSH2 0x1E8 DUP3 PUSH2 0x1BF JUMP JUMPDEST SWAP1 POP SWAP2 SWAP1 POP JUMP JUMPDEST PUSH2 0x1F8 DUP2 PUSH2 0x1DE JUMP JUMPDEST DUP2 EQ PUSH2 0x202 JUMPI PUSH0 DUP1 REVERT JUMPDEST POP JUMP JUMPDEST PUSH0 DUP2 MLOAD SWAP1 POP PUSH2 0x213 DUP2 PUSH2 0x1EF JUMP JUMPDEST SWAP3 SWAP2 POP POP JUMP JUMPDEST PUSH1 0x3 DUP2 LT PUSH2 0x225 JUMPI PUSH0 DUP1 REVERT JUMPDEST POP JUMP JUMPDEST PUSH0 DUP2 MLOAD SWAP1 POP PUSH2 0x236 DUP2 PUSH2 0x219 JUMP JUMPDEST SWAP3 SWAP2 POP POP JUMP JUMPDEST PUSH1 0x2 DUP2 LT PUSH2 0x248 JUMPI PUSH0 DUP1 REVERT JUMPDEST POP JUMP JUMPDEST PUSH0 DUP2 MLOAD SWAP1 POP PUSH2 0x259 DUP2 PUSH2 0x23C JUMP JUMPDEST SWAP3 SWAP2 POP POP JUMP JUMPDEST PUSH0 DUP1 PUSH0 DUP1 PUSH0 DUP1 PUSH1 0xC0 DUP8 DUP10 SUB SLT ISZERO PUSH2 0x279 JUMPI PUSH2 0x278 PUSH2 0x188 JUMP JUMPDEST JUMPDEST PUSH0 PUSH2 0x286 DUP10 DUP3 DUP11 ADD PUSH2 0x1AB JUMP JUMPDEST SWAP7 POP POP PUSH1 0x20 PUSH2 0x297 DUP10 DUP3 DUP11 ADD PUSH2 0x205 JUMP JUMPDEST SWAP6 POP POP PUSH1 0x40 PUSH2 0x2A8 DUP10 DUP3 DUP11 ADD PUSH2 0x228 JUMP JUMPDEST SWAP5 POP POP PUSH1 0x60 PUSH2 0x2B9 DUP10 DUP3 DUP11 ADD PUSH2 0x24B JUMP JUMPDEST SWAP4 POP POP PUSH1 0x80 PUSH2 0x2CA DUP10 DUP3 DUP11 ADD PUSH2 0x1AB JUMP JUMPDEST SWAP3 POP POP PUSH1 0xA0 PUSH2 0x2DB DUP10 DUP3 DUP11 ADD PUSH2 0x1AB JUMP JUMPDEST SWAP2 POP POP SWAP3 SWAP6 POP SWAP3 SWAP6 POP SWAP3 SWAP6 JUMP JUMPDEST PUSH32 0x4E487B7100000000000000000000000000000000000000000000000000000000 PUSH0 MSTORE PUSH1 0x21 PUSH1 0x4 MSTORE PUSH1 0x24 PUSH0 REVERT JUMPDEST PUSH2 0x48A DUP1 PUSH2 0x322 PUSH0 CODECOPY PUSH0 RETURN INVALID PUSH1 0x80 PUSH1 0x40 MSTORE CALLVALUE DUP1 ISZERO PUSH2 0xF JUMPI PUSH0 DUP1 REVERT JUMPDEST POP PUSH1 0x4 CALLDATASIZE LT PUSH2 0x7B JUMPI PUSH0 CALLDATALOAD PUSH1 0xE0 SHR DUP1 PUSH4 0xBFB3047F GT PUSH2 0x59 JUMPI DUP1 PUSH4 0xBFB3047F EQ PUSH2 0xEB JUMPI DUP1 PUSH4 0xC41A0C60 EQ PUSH2 0x109 JUMPI DUP1 PUSH4 0xED3A865E EQ PUSH2 0x127 JUMPI DUP1 PUSH4 0xFC0C546A EQ PUSH2 0x145 JUMPI PUSH2 0x7B JUMP JUMPDEST DUP1 PUSH4 0x4E92A646 EQ PUSH2 0x7F JUMPI DUP1 PUSH4 0x516F279E EQ PUSH2 0xAF JUMPI DUP1 PUSH4 0xAA8C217C EQ PUSH2 0xCD JUMPI JUMPDEST PUSH0 DUP1 REVERT JUMPDEST PUSH2 0x99 PUSH1 0x4 DUP1 CALLDATASIZE SUB DUP2 ADD SWAP1 PUSH2 0x94 SWAP2 SWAP1 PUSH2 0x23A JUMP JUMPDEST PUSH2 0x163 JUMP JUMPDEST PUSH1 0x40 MLOAD PUSH2 0xA6 SWAP2 SWAP1 PUSH2 0x2D8 JUMP JUMPDEST PUSH1 0x40 MLOAD DUP1 SWAP2 SUB SWAP1 RETURN JUMPDEST PUSH2 0xB7 PUSH2 0x180 JUMP JUMPDEST PUSH1 0x40 MLOAD PUSH2 0xC4 SWAP2 SWAP1 PUSH2 0x337 JUMP JUMPDEST PUSH1 0x40 MLOAD DUP1 SWAP2 SUB SWAP1 RETURN JUMPDEST PUSH2 0xD5 PUSH2 0x193 JUMP JUMPDEST PUSH1 0x40 MLOAD PUSH2 0xE2 SWAP2 SWAP1 PUSH2 0x368 JUMP JUMPDEST PUSH1 0x40 MLOAD DUP1 SWAP2 SUB SWAP1 RETURN JUMPDEST PUSH2 0xF3 PUSH2 0x199 JUMP JUMPDEST PUSH1 0x40 MLOAD PUSH2 0x100 SWAP2 SWAP1 PUSH2 0x3C7 JUMP JUMPDEST PUSH1 0x40 MLOAD DUP1 SWAP2 SUB SWAP1 RETURN JUMPDEST PUSH2 0x111 PUSH2 0x1AC JUMP JUMPDEST PUSH1 0x40 MLOAD PUSH2 0x11E SWAP2 SWAP1 PUSH2 0x368 JUMP JUMPDEST PUSH1 0x40 MLOAD DUP1 SWAP2 SUB SWAP1 RETURN JUMPDEST PUSH2 0x12F PUSH2 0x1B2 JUMP JUMPDEST PUSH1 0x40 MLOAD PUSH2 0x13C SWAP2 SWAP1 PUSH2 0x368 JUMP JUMPDEST PUSH1 0x40 MLOAD DUP1 SWAP2 SUB SWAP1 RETURN JUMPDEST PUSH2 0x14D PUSH2 0x1B7 JUMP JUMPDEST PUSH1 0x40 MLOAD PUSH2 0x15A SWAP2 SWAP1 PUSH2 0x43B JUMP JUMPDEST PUSH1 0x40 MLOAD DUP1 SWAP2 SUB SWAP1 RETURN JUMPDEST PUSH1 0x4 PUSH1 0x20 MSTORE DUP1 PUSH0 MSTORE PUSH1 0x40 PUSH0 KECCAK256 PUSH0 SWAP2 POP SLOAD SWAP1 PUSH2 0x100 EXP SWAP1 DIV PUSH1 0xFF AND DUP2 JUMP JUMPDEST PUSH1 0x3 PUSH1 0x14 SWAP1 SLOAD SWAP1 PUSH2 0x100 EXP SWAP1 DIV PUSH1 0xFF AND DUP2 JUMP JUMPDEST PUSH1 0x1 SLOAD DUP2 JUMP JUMPDEST PUSH1 0x3 PUSH1 0x15 SWAP1 SLOAD SWAP1 PUSH2 0x100 EXP SWAP1 DIV PUSH1 0xFF AND DUP2 JUMP JUMPDEST PUSH1 0x2 SLOAD DUP2 JUMP JUMPDEST PUSH0 SLOAD DUP2 JUMP JUMPDEST PUSH1 0x5 PUSH0 SWAP1 SLOAD SWAP1 PUSH2 0x100 EXP SWAP1 DIV PUSH20 0xFFFFFFFFFFFFFFFFFFFFFFFFFFFFFFFFFFFFFFFF AND DUP2 JUMP JUMPDEST PUSH0 DUP1 REVERT JUMPDEST PUSH0 PUSH20 0xFFFFFFFFFFFFFFFFFFFFFFFFFFFFFFFFFFFFFFFF DUP3 AND SWAP1 POP SWAP2 SWAP1 POP JUMP JUMPDEST PUSH0 PUSH2 0x209 DUP3 PUSH2 0x1E0 JUMP JUMPDEST SWAP1 POP SWAP2 SWAP1 POP JUMP JUMPDEST PUSH2 0x219 DUP2 PUSH2 0x1FF JUMP JUMPDEST DUP2 EQ PUSH2 0x223 JUMPI PUSH0 DUP1 REVERT JUMPDEST POP JUMP JUMPDEST PUSH0 DUP2 CALLDATALOAD SWAP1 POP PUSH2 0x234 DUP2 PUSH2 0x210 JUMP JUMPDEST SWAP3 SWAP2 POP POP JUMP JUMPDEST PUSH0 PUSH1 0x20 DUP3 DUP5 SUB SLT ISZERO PUSH2 0x24F JUMPI PUSH2 0x24E PUSH2 0x1DC JUMP JUMPDEST JUMPDEST PUSH0 PUSH2 0x25C DUP5 DUP3 DUP6 ADD PUSH2 0x226 JUMP JUMPDEST SWAP2 POP POP SWAP3 SWAP2 POP POP JUMP JUMPDEST PUSH32 0x4E487B7100000000000000000000000000000000000000000000000000000000 PUSH0 MSTORE PUSH1 0x21 PUSH1 0x4 MSTORE PUSH1 0x24 PUSH0 REVERT JUMPDEST PUSH1 0x3 DUP2 LT PUSH2 0x2A3 JUMPI PUSH2 0x2A2 PUSH2 0x265 JUMP JUMPDEST JUMPDEST POP JUMP JUMPDEST PUSH0 DUP2 SWAP1 POP PUSH2 0x2B3 DUP3 PUSH2 0x292 JUMP JUMPDEST SWAP2 SWAP1 POP JUMP JUMPDEST PUSH0 PUSH2 0x2C2 DUP3 PUSH2 0x2A6 JUMP JUMPDEST SWAP1 POP SWAP2 SWAP1 POP JUMP JUMPDEST PUSH2 0x2D2 DUP2 PUSH2 0x2B8 JUMP JUMPDEST DUP3 MSTORE POP POP JUMP JUMPDEST PUSH0 PUSH1 0x20 DUP3 ADD SWAP1 POP PUSH2 0x2EB PUSH0 DUP4 ADD DUP5 PUSH2 0x2C9 JUMP JUMPDEST SWAP3 SWAP2 POP POP JUMP JUMPDEST PUSH1 0x2 DUP2 LT PUSH2 0x302 JUMPI PUSH2 0x301 PUSH2 0x265 JUMP JUMPDEST JUMPDEST POP JUMP JUMPDEST PUSH0 DUP2 SWAP1 POP PUSH2 0x312 DUP3 PUSH2 0x2F1 JUMP JUMPDEST SWAP2 SWAP1 POP JUMP JUMPDEST PUSH0 PUSH2 0x321 DUP3 PUSH2 0x305 JUMP JUMPDEST SWAP1 POP SWAP2 SWAP1 POP JUMP JUMPDEST PUSH2 0x331 DUP2 PUSH2 0x317 JUMP JUMPDEST DUP3 MSTORE POP POP JUMP JUMPDEST PUSH0 PUSH1 0x20 DUP3 ADD SWAP1 POP PUSH2 0x34A PUSH0 DUP4 ADD DUP5 PUSH2 0x328 JUMP JUMPDEST SWAP3 SWAP2 POP POP JUMP JUMPDEST PUSH0 DUP2 SWAP1 POP SWAP2 SWAP1 POP JUMP JUMPDEST PUSH2 0x362 DUP2 PUSH2 0x350 JUMP JUMPDEST DUP3 MSTORE POP POP JUMP JUMPDEST PUSH0 PUSH1 0x20 DUP3 ADD SWAP1 POP PUSH2 0x37B PUSH0 DUP4 ADD DUP5 PUSH2 0x359 JUMP JUMPDEST SWAP3 SWAP2 POP POP JUMP JUMPDEST PUSH1 0x4 DUP2 LT PUSH2 0x392 JUMPI PUSH2 0x391 PUSH2 0x265 JUMP JUMPDEST JUMPDEST POP JUMP JUMPDEST PUSH0 DUP2 SWAP1 POP PUSH2 0x3A2 DUP3 PUSH2 0x381 JUMP JUMPDEST SWAP2 SWAP1 POP JUMP JUMPDEST PUSH0 PUSH2 0x3B1 DUP3 PUSH2 0x395 JUMP JUMPDEST SWAP1 POP SWAP2 SWAP1 POP JUMP JUMPDEST PUSH2 0x3C1 DUP2 PUSH2 0x3A7 JUMP JUMPDEST DUP3 MSTORE POP POP JUMP JUMPDEST PUSH0 PUSH1 0x20 DUP3 ADD SWAP1 POP PUSH2 0x3DA PUSH0 DUP4 ADD DUP5 PUSH2 0x3B8 JUMP JUMPDEST SWAP3 SWAP2 POP POP JUMP JUMPDEST PUSH0 DUP2 SWAP1 POP SWAP2 SWAP1 POP JUMP JUMPDEST PUSH0 PUSH2 0x403 PUSH2 0x3FE PUSH2 0x3F9 DUP5 PUSH2 0x1E0 JUMP JUMPDEST PUSH2 0x3E0 JUMP JUMPDEST PUSH2 0x1E0 JUMP JUMPDEST SWAP1 POP SWAP2 SWAP1 POP JUMP JUMPDEST PUSH0 PUSH2 0x414 DUP3 PUSH2 0x3E9 JUMP JUMPDEST SWAP1 POP SWAP2 SWAP1 POP JUMP JUMPDEST PUSH0 PUSH2 0x425 DUP3 PUSH2 0x40A JUMP JUMPDEST SWAP1 POP SWAP2 SWAP1 POP JUMP JUMPDEST PUSH2 0x435 DUP2 PUSH2 0x41B JUMP JUMPDEST DUP3 MSTORE POP POP JUMP JUMPDEST PUSH0 PUSH1 0x20 DUP3 ADD SWAP1 POP PUSH2 0x44E PUSH0 DUP4 ADD DUP5 PUSH2 0x42C JUMP JUMPDEST SWAP3 SWAP2 POP POP JUMP INVALID LOG2 PUSH5 0x6970667358 0x22 SLT KECCAK256 0xDB DUP2 PUSH16 0x825577B120A16B756FDD49C781CC29C2 0xF 0xD3 GASPRICE PUSH7 0x6E6EF7B623D98D 0xE3 CHAINID PUSH5 0x736F6C6343 STOP ADDMOD ISZERO STOP CALLER "
				},
				"gasEstimates": {
					"creation": {
						"codeDepositCost": "232400",
						"executionCost": "infinite",
						"totalCost": "infinite"
					},
					"external": {
						"amount()": "2470",
						"betResult()": "2605",
						"horseIndex()": "2447",
						"location()": "2628",
						"raceId()": "2468",
						"token()": "infinite",
						"userBets(address)": "2922"
					}
				},
				"methodIdentifiers": {
					"amount()": "aa8c217c",
					"betResult()": "bfb3047f",
					"horseIndex()": "c41a0c60",
					"location()": "516f279e",
					"raceId()": "ed3a865e",
					"token()": "fc0c546a",
					"userBets(address)": "4e92a646"
				}
			},
			"storageLayout": {
				"storage": [
					{
						"astId": 4,
						"contract": "Betting.sol:Betting",
						"label": "raceId",
						"offset": 0,
						"slot": "0",
						"type": "t_uint256"
					},
					{
						"astId": 6,
						"contract": "Betting.sol:Betting",
						"label": "amount",
						"offset": 0,
						"slot": "1",
						"type": "t_uint256"
					},
					{
						"astId": 8,
						"contract": "Betting.sol:Betting",
						"label": "horseIndex",
						"offset": 0,
						"slot": "2",
						"type": "t_uint256"
					},
					{
						"astId": 10,
						"contract": "Betting.sol:Betting",
						"label": "tokenAddress",
						"offset": 0,
						"slot": "3",
						"type": "t_address"
					},
					{
						"astId": 16,
						"contract": "Betting.sol:Betting",
						"label": "location",
						"offset": 20,
						"slot": "3",
						"type": "t_enum(Arealocation)13"
					},
					{
						"astId": 28,
						"contract": "Betting.sol:Betting",
						"label": "betResult",
						"offset": 21,
						"slot": "3",
						"type": "t_enum(BetResult)25"
					},
					{
						"astId": 33,
						"contract": "Betting.sol:Betting",
						"label": "userBets",
						"offset": 0,
						"slot": "4",
						"type": "t_mapping(t_address,t_enum(BetType)20)"
					},
					{
						"astId": 36,
						"contract": "Betting.sol:Betting",
						"label": "token",
						"offset": 0,
						"slot": "5",
						"type": "t_contract(ERC20Token)135"
					}
				],
				"types": {
					"t_address": {
						"encoding": "inplace",
						"label": "address",
						"numberOfBytes": "20"
					},
					"t_contract(ERC20Token)135": {
						"encoding": "inplace",
						"label": "contract ERC20Token",
						"numberOfBytes": "20"
					},
					"t_enum(Arealocation)13": {
						"encoding": "inplace",
						"label": "enum Betting.Arealocation",
						"numberOfBytes": "1"
					},
					"t_enum(BetResult)25": {
						"encoding": "inplace",
						"label": "enum Betting.BetResult",
						"numberOfBytes": "1"
					},
					"t_enum(BetType)20": {
						"encoding": "inplace",
						"label": "enum Betting.BetType",
						"numberOfBytes": "1"
					},
					"t_mapping(t_address,t_enum(BetType)20)": {
						"encoding": "mapping",
						"key": "t_address",
						"label": "mapping(address => enum Betting.BetType)",
						"numberOfBytes": "32",
						"value": "t_enum(BetType)20"
					},
					"t_uint256": {
						"encoding": "inplace",
						"label": "uint256",
						"numberOfBytes": "32"
					}
				}
			},
			"userdoc": {
				"kind": "user",
				"methods": {},
				"version": 1
			}
		}
	}
}