{
	"RaceCourse.sol": {
		"RaceCourse": {
			"abi": [
				{
					"inputs": [
						{
							"internalType": "uint256",
							"name": "_raceId",
							"type": "uint256"
						},
						{
							"internalType": "enum Betting.Arealocation",
							"name": "_location",
							"type": "uint8"
						},
						{
							"internalType": "uint256",
							"name": "_startTime",
							"type": "uint256"
						},
						{
							"internalType": "uint256",
							"name": "_endTime",
							"type": "uint256"
						},
						{
							"internalType": "uint256",
							"name": "_horse",
							"type": "uint256"
						}
					],
					"stateMutability": "nonpayable",
					"type": "constructor"
				},
				{
					"inputs": [],
					"name": "endTime",
					"outputs": [
						{
							"internalType": "uint256",
							"name": "",
							"type": "uint256"
						}
					],
					"stateMutability": "view",
					"type": "function"
				},
				{
					"inputs": [],
					"name": "horses",
					"outputs": [
						{
							"internalType": "uint256",
							"name": "",
							"type": "uint256"
						}
					],
					"stateMutability": "view",
					"type": "function"
				},
				{
					"inputs": [],
					"name": "location",
					"outputs": [
						{
							"internalType": "enum Betting.Arealocation",
							"name": "",
							"type": "uint8"
						}
					],
					"stateMutability": "view",
					"type": "function"
				},
				{
					"inputs": [],
					"name": "owner",
					"outputs": [
						{
							"internalType": "address",
							"name": "",
							"type": "address"
						}
					],
					"stateMutability": "view",
					"type": "function"
				},
				{
					"inputs": [
						{
							"internalType": "uint256",
							"name": "",
							"type": "uint256"
						}
					],
					"name": "participants",
					"outputs": [
						{
							"internalType": "address",
							"name": "",
							"type": "address"
						}
					],
					"stateMutability": "view",
					"type": "function"
				},
				{
					"inputs": [],
					"name": "raceId",
					"outputs": [
						{
							"internalType": "uint256",
							"name": "",
							"type": "uint256"
						}
					],
					"stateMutability": "view",
					"type": "function"
				},
				{
					"inputs": [],
					"name": "startTime",
					"outputs": [
						{
							"internalType": "uint256",
							"name": "",
							"type": "uint256"
						}
					],
					"stateMutability": "view",
					"type": "function"
				},
				{
					"inputs": [
						{
							"internalType": "uint256",
							"name": "",
							"type": "uint256"
						}
					],
					"name": "winBetters",
					"outputs": [
						{
							"internalType": "uint256",
							"name": "",
							"type": "uint256"
						}
					],
					"stateMutability": "view",
					"type": "function"
				},
				{
					"inputs": [
						{
							"internalType": "uint256",
							"name": "",
							"type": "uint256"
						}
					],
					"name": "winners",
					"outputs": [
						{
							"internalType": "uint256",
							"name": "",
							"type": "uint256"
						}
					],
					"stateMutability": "view",
					"type": "function"
				}
			],
			"devdoc": {
				"kind": "dev",
				"methods": {},
				"version": 1
			},
			"evm": {
				"assembly": "    /* \"RaceCourse.sol\":86:809  contract RaceCourse {... */\n  mstore(0x40, 0x80)\n    /* \"RaceCourse.sol\":515:806  constructor(uint256 _raceId, Betting.Arealocation _location, uint256 _startTime, uint256 _endTime, uint256 _horse) {... */\n  callvalue\n  dup1\n  iszero\n  tag_1\n  jumpi\n  0x00\n  dup1\n  revert\ntag_1:\n  pop\n  mload(0x40)\n  sub(codesize, bytecodeSize)\n  dup1\n  bytecodeSize\n  dup4\n  codecopy\n  dup2\n  dup2\n  add\n  0x40\n  mstore\n  dup2\n  add\n  swap1\n  tag_2\n  swap2\n  swap1\n  tag_3\n  jump\t// in\ntag_2:\n    /* \"RaceCourse.sol\":648:658  msg.sender */\n  caller\n    /* \"RaceCourse.sol\":640:645  owner */\n  0x00\n  dup1\n    /* \"RaceCourse.sol\":640:658  owner = msg.sender */\n  0x0100\n  exp\n  dup2\n  sload\n  dup2\n  0xffffffffffffffffffffffffffffffffffffffff\n  mul\n  not\n  and\n  swap1\n  dup4\n  0xffffffffffffffffffffffffffffffffffffffff\n  and\n  mul\n  or\n  swap1\n  sstore\n  pop\n    /* \"RaceCourse.sol\":677:684  _raceId */\n  dup5\n    /* \"RaceCourse.sol\":668:674  raceId */\n  0x01\n    /* \"RaceCourse.sol\":668:684  raceId = _raceId */\n  dup2\n  swap1\n  sstore\n  pop\n    /* \"RaceCourse.sol\":705:714  _location */\n  dup4\n    /* \"RaceCourse.sol\":694:702  location */\n  0x02\n  0x00\n    /* \"RaceCourse.sol\":694:714  location = _location */\n  0x0100\n  exp\n  dup2\n  sload\n  dup2\n  0xff\n  mul\n  not\n  and\n  swap1\n  dup4\n  0x01\n  dup2\n  gt\n  iszero\n  tag_6\n  jumpi\n  tag_7\n  tag_8\n  jump\t// in\ntag_7:\ntag_6:\n  mul\n  or\n  swap1\n  sstore\n  pop\n    /* \"RaceCourse.sol\":736:746  _startTime */\n  dup3\n    /* \"RaceCourse.sol\":724:733  startTime */\n  0x03\n    /* \"RaceCourse.sol\":724:746  startTime = _startTime */\n  dup2\n  swap1\n  sstore\n  pop\n    /* \"RaceCourse.sol\":766:774  _endTime */\n  dup2\n    /* \"RaceCourse.sol\":756:763  endTime */\n  0x04\n    /* \"RaceCourse.sol\":756:774  endTime = _endTime */\n  dup2\n  swap1\n  sstore\n  pop\n    /* \"RaceCourse.sol\":793:799  _horse */\n  dup1\n    /* \"RaceCourse.sol\":784:790  horses */\n  0x08\n    /* \"RaceCourse.sol\":784:799  horses = _horse */\n  dup2\n  swap1\n  sstore\n  pop\n    /* \"RaceCourse.sol\":515:806  constructor(uint256 _raceId, Betting.Arealocation _location, uint256 _startTime, uint256 _endTime, uint256 _horse) {... */\n  pop\n  pop\n  pop\n  pop\n  pop\n    /* \"RaceCourse.sol\":86:809  contract RaceCourse {... */\n  jump(tag_9)\n    /* \"#utility.yul\":88:205   */\ntag_11:\n    /* \"#utility.yul\":197:198   */\n  0x00\n    /* \"#utility.yul\":194:195   */\n  dup1\n    /* \"#utility.yul\":187:199   */\n  revert\n    /* \"#utility.yul\":334:411   */\ntag_13:\n    /* \"#utility.yul\":371:378   */\n  0x00\n    /* \"#utility.yul\":400:405   */\n  dup2\n    /* \"#utility.yul\":389:405   */\n  swap1\n  pop\n    /* \"#utility.yul\":334:411   */\n  swap2\n  swap1\n  pop\n  jump\t// out\n    /* \"#utility.yul\":417:539   */\ntag_14:\n    /* \"#utility.yul\":490:514   */\n  tag_24\n    /* \"#utility.yul\":508:513   */\n  dup2\n    /* \"#utility.yul\":490:514   */\n  tag_13\n  jump\t// in\ntag_24:\n    /* \"#utility.yul\":483:488   */\n  dup2\n    /* \"#utility.yul\":480:515   */\n  eq\n    /* \"#utility.yul\":470:533   */\n  tag_25\n  jumpi\n    /* \"#utility.yul\":529:530   */\n  0x00\n    /* \"#utility.yul\":526:527   */\n  dup1\n    /* \"#utility.yul\":519:531   */\n  revert\n    /* \"#utility.yul\":470:533   */\ntag_25:\n    /* \"#utility.yul\":417:539   */\n  pop\n  jump\t// out\n    /* \"#utility.yul\":545:688   */\ntag_15:\n    /* \"#utility.yul\":602:607   */\n  0x00\n    /* \"#utility.yul\":633:639   */\n  dup2\n    /* \"#utility.yul\":627:640   */\n  mload\n    /* \"#utility.yul\":618:640   */\n  swap1\n  pop\n    /* \"#utility.yul\":649:682   */\n  tag_27\n    /* \"#utility.yul\":676:681   */\n  dup2\n    /* \"#utility.yul\":649:682   */\n  tag_14\n  jump\t// in\ntag_27:\n    /* \"#utility.yul\":545:688   */\n  swap3\n  swap2\n  pop\n  pop\n  jump\t// out\n    /* \"#utility.yul\":694:808   */\ntag_16:\n    /* \"#utility.yul\":782:783   */\n  0x02\n    /* \"#utility.yul\":775:780   */\n  dup2\n    /* \"#utility.yul\":772:784   */\n  lt\n    /* \"#utility.yul\":762:802   */\n  tag_29\n  jumpi\n    /* \"#utility.yul\":798:799   */\n  0x00\n    /* \"#utility.yul\":795:796   */\n  dup1\n    /* \"#utility.yul\":788:800   */\n  revert\n    /* \"#utility.yul\":762:802   */\ntag_29:\n    /* \"#utility.yul\":694:808   */\n  pop\n  jump\t// out\n    /* \"#utility.yul\":814:987   */\ntag_17:\n    /* \"#utility.yul\":886:891   */\n  0x00\n    /* \"#utility.yul\":917:923   */\n  dup2\n    /* \"#utility.yul\":911:924   */\n  mload\n    /* \"#utility.yul\":902:924   */\n  swap1\n  pop\n    /* \"#utility.yul\":933:981   */\n  tag_31\n    /* \"#utility.yul\":975:980   */\n  dup2\n    /* \"#utility.yul\":933:981   */\n  tag_16\n  jump\t// in\ntag_31:\n    /* \"#utility.yul\":814:987   */\n  swap3\n  swap2\n  pop\n  pop\n  jump\t// out\n    /* \"#utility.yul\":993:2000   */\ntag_3:\n    /* \"#utility.yul\":1114:1120   */\n  0x00\n    /* \"#utility.yul\":1122:1128   */\n  dup1\n    /* \"#utility.yul\":1130:1136   */\n  0x00\n    /* \"#utility.yul\":1138:1144   */\n  dup1\n    /* \"#utility.yul\":1146:1152   */\n  0x00\n    /* \"#utility.yul\":1195:1198   */\n  0xa0\n    /* \"#utility.yul\":1183:1192   */\n  dup7\n    /* \"#utility.yul\":1174:1181   */\n  dup9\n    /* \"#utility.yul\":1170:1193   */\n  sub\n    /* \"#utility.yul\":1166:1199   */\n  slt\n    /* \"#utility.yul\":1163:1283   */\n  iszero\n  tag_33\n  jumpi\n    /* \"#utility.yul\":1202:1281   */\n  tag_34\n  tag_11\n  jump\t// in\ntag_34:\n    /* \"#utility.yul\":1163:1283   */\ntag_33:\n    /* \"#utility.yul\":1322:1323   */\n  0x00\n    /* \"#utility.yul\":1347:1411   */\n  tag_35\n    /* \"#utility.yul\":1403:1410   */\n  dup9\n    /* \"#utility.yul\":1394:1400   */\n  dup3\n    /* \"#utility.yul\":1383:1392   */\n  dup10\n    /* \"#utility.yul\":1379:1401   */\n  add\n    /* \"#utility.yul\":1347:1411   */\n  tag_15\n  jump\t// in\ntag_35:\n    /* \"#utility.yul\":1337:1411   */\n  swap6\n  pop\n    /* \"#utility.yul\":1293:1421   */\n  pop\n    /* \"#utility.yul\":1460:1462   */\n  0x20\n    /* \"#utility.yul\":1486:1565   */\n  tag_36\n    /* \"#utility.yul\":1557:1564   */\n  dup9\n    /* \"#utility.yul\":1548:1554   */\n  dup3\n    /* \"#utility.yul\":1537:1546   */\n  dup10\n    /* \"#utility.yul\":1533:1555   */\n  add\n    /* \"#utility.yul\":1486:1565   */\n  tag_17\n  jump\t// in\ntag_36:\n    /* \"#utility.yul\":1476:1565   */\n  swap5\n  pop\n    /* \"#utility.yul\":1431:1575   */\n  pop\n    /* \"#utility.yul\":1614:1616   */\n  0x40\n    /* \"#utility.yul\":1640:1704   */\n  tag_37\n    /* \"#utility.yul\":1696:1703   */\n  dup9\n    /* \"#utility.yul\":1687:1693   */\n  dup3\n    /* \"#utility.yul\":1676:1685   */\n  dup10\n    /* \"#utility.yul\":1672:1694   */\n  add\n    /* \"#utility.yul\":1640:1704   */\n  tag_15\n  jump\t// in\ntag_37:\n    /* \"#utility.yul\":1630:1704   */\n  swap4\n  pop\n    /* \"#utility.yul\":1585:1714   */\n  pop\n    /* \"#utility.yul\":1753:1755   */\n  0x60\n    /* \"#utility.yul\":1779:1843   */\n  tag_38\n    /* \"#utility.yul\":1835:1842   */\n  dup9\n    /* \"#utility.yul\":1826:1832   */\n  dup3\n    /* \"#utility.yul\":1815:1824   */\n  dup10\n    /* \"#utility.yul\":1811:1833   */\n  add\n    /* \"#utility.yul\":1779:1843   */\n  tag_15\n  jump\t// in\ntag_38:\n    /* \"#utility.yul\":1769:1843   */\n  swap3\n  pop\n    /* \"#utility.yul\":1724:1853   */\n  pop\n    /* \"#utility.yul\":1892:1895   */\n  0x80\n    /* \"#utility.yul\":1919:1983   */\n  tag_39\n    /* \"#utility.yul\":1975:1982   */\n  dup9\n    /* \"#utility.yul\":1966:1972   */\n  dup3\n    /* \"#utility.yul\":1955:1964   */\n  dup10\n    /* \"#utility.yul\":1951:1973   */\n  add\n    /* \"#utility.yul\":1919:1983   */\n  tag_15\n  jump\t// in\ntag_39:\n    /* \"#utility.yul\":1909:1983   */\n  swap2\n  pop\n    /* \"#utility.yul\":1863:1993   */\n  pop\n    /* \"#utility.yul\":993:2000   */\n  swap3\n  swap6\n  pop\n  swap3\n  swap6\n  swap1\n  swap4\n  pop\n  jump\t// out\n    /* \"#utility.yul\":2006:2186   */\ntag_8:\n    /* \"#utility.yul\":2054:2131   */\n  0x4e487b7100000000000000000000000000000000000000000000000000000000\n    /* \"#utility.yul\":2051:2052   */\n  0x00\n    /* \"#utility.yul\":2044:2132   */\n  mstore\n    /* \"#utility.yul\":2151:2155   */\n  0x21\n    /* \"#utility.yul\":2148:2149   */\n  0x04\n    /* \"#utility.yul\":2141:2156   */\n  mstore\n    /* \"#utility.yul\":2175:2179   */\n  0x24\n    /* \"#utility.yul\":2172:2173   */\n  0x00\n    /* \"#utility.yul\":2165:2180   */\n  revert\n    /* \"RaceCourse.sol\":86:809  contract RaceCourse {... */\ntag_9:\n  dataSize(sub_0)\n  dup1\n  dataOffset(sub_0)\n  0x00\n  codecopy\n  0x00\n  return\nstop\n\nsub_0: assembly {\n        /* \"RaceCourse.sol\":86:809  contract RaceCourse {... */\n      mstore(0x40, 0x80)\n      callvalue\n      dup1\n      iszero\n      tag_1\n      jumpi\n      0x00\n      dup1\n      revert\n    tag_1:\n      pop\n      jumpi(tag_2, lt(calldatasize, 0x04))\n      shr(0xe0, calldataload(0x00))\n      dup1\n      0x78e97925\n      gt\n      tag_12\n      jumpi\n      dup1\n      0x78e97925\n      eq\n      tag_7\n      jumpi\n      dup1\n      0x8da5cb5b\n      eq\n      tag_8\n      jumpi\n      dup1\n      0xa2fb1175\n      eq\n      tag_9\n      jumpi\n      dup1\n      0xc972e063\n      eq\n      tag_10\n      jumpi\n      dup1\n      0xed3a865e\n      eq\n      tag_11\n      jumpi\n      jump(tag_2)\n    tag_12:\n      dup1\n      0x3197cbb6\n      eq\n      tag_3\n      jumpi\n      dup1\n      0x35c1d349\n      eq\n      tag_4\n      jumpi\n      dup1\n      0x43bddf40\n      eq\n      tag_5\n      jumpi\n      dup1\n      0x516f279e\n      eq\n      tag_6\n      jumpi\n    tag_2:\n      0x00\n      dup1\n      revert\n        /* \"RaceCourse.sol\":237:259  uint256 public endTime */\n    tag_3:\n      tag_13\n      tag_14\n      jump\t// in\n    tag_13:\n      mload(0x40)\n      tag_15\n      swap2\n      swap1\n      tag_16\n      jump\t// in\n    tag_15:\n      mload(0x40)\n      dup1\n      swap2\n      sub\n      swap1\n      return\n        /* \"RaceCourse.sol\":265:294  address[] public participants */\n    tag_4:\n      tag_17\n      0x04\n      dup1\n      calldatasize\n      sub\n      dup2\n      add\n      swap1\n      tag_18\n      swap2\n      swap1\n      tag_19\n      jump\t// in\n    tag_18:\n      tag_20\n      jump\t// in\n    tag_17:\n      mload(0x40)\n      tag_21\n      swap2\n      swap1\n      tag_22\n      jump\t// in\n    tag_21:\n      mload(0x40)\n      dup1\n      swap2\n      sub\n      swap1\n      return\n        /* \"RaceCourse.sol\":363:384  uint256 public horses */\n    tag_5:\n      tag_23\n      tag_24\n      jump\t// in\n    tag_23:\n      mload(0x40)\n      tag_25\n      swap2\n      swap1\n      tag_16\n      jump\t// in\n    tag_25:\n      mload(0x40)\n      dup1\n      swap2\n      sub\n      swap1\n      return\n        /* \"RaceCourse.sol\":165:201  Betting.Arealocation public location */\n    tag_6:\n      tag_26\n      tag_27\n      jump\t// in\n    tag_26:\n      mload(0x40)\n      tag_28\n      swap2\n      swap1\n      tag_29\n      jump\t// in\n    tag_28:\n      mload(0x40)\n      dup1\n      swap2\n      sub\n      swap1\n      return\n        /* \"RaceCourse.sol\":207:231  uint256 public startTime */\n    tag_7:\n      tag_30\n      tag_31\n      jump\t// in\n    tag_30:\n      mload(0x40)\n      tag_32\n      swap2\n      swap1\n      tag_16\n      jump\t// in\n    tag_32:\n      mload(0x40)\n      dup1\n      swap2\n      sub\n      swap1\n      return\n        /* \"RaceCourse.sol\":112:132  address public owner */\n    tag_8:\n      tag_33\n      tag_34\n      jump\t// in\n    tag_33:\n      mload(0x40)\n      tag_35\n      swap2\n      swap1\n      tag_22\n      jump\t// in\n    tag_35:\n      mload(0x40)\n      dup1\n      swap2\n      sub\n      swap1\n      return\n        /* \"RaceCourse.sol\":300:324  uint256[] public winners */\n    tag_9:\n      tag_36\n      0x04\n      dup1\n      calldatasize\n      sub\n      dup2\n      add\n      swap1\n      tag_37\n      swap2\n      swap1\n      tag_19\n      jump\t// in\n    tag_37:\n      tag_38\n      jump\t// in\n    tag_36:\n      mload(0x40)\n      tag_39\n      swap2\n      swap1\n      tag_16\n      jump\t// in\n    tag_39:\n      mload(0x40)\n      dup1\n      swap2\n      sub\n      swap1\n      return\n        /* \"RaceCourse.sol\":330:357  uint256[] public winBetters */\n    tag_10:\n      tag_40\n      0x04\n      dup1\n      calldatasize\n      sub\n      dup2\n      add\n      swap1\n      tag_41\n      swap2\n      swap1\n      tag_19\n      jump\t// in\n    tag_41:\n      tag_42\n      jump\t// in\n    tag_40:\n      mload(0x40)\n      tag_43\n      swap2\n      swap1\n      tag_16\n      jump\t// in\n    tag_43:\n      mload(0x40)\n      dup1\n      swap2\n      sub\n      swap1\n      return\n        /* \"RaceCourse.sol\":138:159  uint256 public raceId */\n    tag_11:\n      tag_44\n      tag_45\n      jump\t// in\n    tag_44:\n      mload(0x40)\n      tag_46\n      swap2\n      swap1\n      tag_16\n      jump\t// in\n    tag_46:\n      mload(0x40)\n      dup1\n      swap2\n      sub\n      swap1\n      return\n        /* \"RaceCourse.sol\":237:259  uint256 public endTime */\n    tag_14:\n      sload(0x04)\n      dup2\n      jump\t// out\n        /* \"RaceCourse.sol\":265:294  address[] public participants */\n    tag_20:\n      0x05\n      dup2\n      dup2\n      sload\n      dup2\n      lt\n      tag_47\n      jumpi\n      0x00\n      dup1\n      revert\n    tag_47:\n      swap1\n      0x00\n      mstore\n      keccak256(0x00, 0x20)\n      add\n      0x00\n      swap2\n      pop\n      sload\n      swap1\n      0x0100\n      exp\n      swap1\n      div\n      0xffffffffffffffffffffffffffffffffffffffff\n      and\n      dup2\n      jump\t// out\n        /* \"RaceCourse.sol\":363:384  uint256 public horses */\n    tag_24:\n      sload(0x08)\n      dup2\n      jump\t// out\n        /* \"RaceCourse.sol\":165:201  Betting.Arealocation public location */\n    tag_27:\n      0x02\n      0x00\n      swap1\n      sload\n      swap1\n      0x0100\n      exp\n      swap1\n      div\n      0xff\n      and\n      dup2\n      jump\t// out\n        /* \"RaceCourse.sol\":207:231  uint256 public startTime */\n    tag_31:\n      sload(0x03)\n      dup2\n      jump\t// out\n        /* \"RaceCourse.sol\":112:132  address public owner */\n    tag_34:\n      0x00\n      dup1\n      sload\n      swap1\n      0x0100\n      exp\n      swap1\n      div\n      0xffffffffffffffffffffffffffffffffffffffff\n      and\n      dup2\n      jump\t// out\n        /* \"RaceCourse.sol\":300:324  uint256[] public winners */\n    tag_38:\n      0x06\n      dup2\n      dup2\n      sload\n      dup2\n      lt\n      tag_49\n      jumpi\n      0x00\n      dup1\n      revert\n    tag_49:\n      swap1\n      0x00\n      mstore\n      keccak256(0x00, 0x20)\n      add\n      0x00\n      swap2\n      pop\n      swap1\n      pop\n      sload\n      dup2\n      jump\t// out\n        /* \"RaceCourse.sol\":330:357  uint256[] public winBetters */\n    tag_42:\n      0x07\n      dup2\n      dup2\n      sload\n      dup2\n      lt\n      tag_51\n      jumpi\n      0x00\n      dup1\n      revert\n    tag_51:\n      swap1\n      0x00\n      mstore\n      keccak256(0x00, 0x20)\n      add\n      0x00\n      swap2\n      pop\n      swap1\n      pop\n      sload\n      dup2\n      jump\t// out\n        /* \"RaceCourse.sol\":138:159  uint256 public raceId */\n    tag_45:\n      sload(0x01)\n      dup2\n      jump\t// out\n        /* \"#utility.yul\":7:84   */\n    tag_53:\n        /* \"#utility.yul\":44:51   */\n      0x00\n        /* \"#utility.yul\":73:78   */\n      dup2\n        /* \"#utility.yul\":62:78   */\n      swap1\n      pop\n        /* \"#utility.yul\":7:84   */\n      swap2\n      swap1\n      pop\n      jump\t// out\n        /* \"#utility.yul\":90:208   */\n    tag_54:\n        /* \"#utility.yul\":177:201   */\n      tag_71\n        /* \"#utility.yul\":195:200   */\n      dup2\n        /* \"#utility.yul\":177:201   */\n      tag_53\n      jump\t// in\n    tag_71:\n        /* \"#utility.yul\":172:175   */\n      dup3\n        /* \"#utility.yul\":165:202   */\n      mstore\n        /* \"#utility.yul\":90:208   */\n      pop\n      pop\n      jump\t// out\n        /* \"#utility.yul\":214:436   */\n    tag_16:\n        /* \"#utility.yul\":307:311   */\n      0x00\n        /* \"#utility.yul\":345:347   */\n      0x20\n        /* \"#utility.yul\":334:343   */\n      dup3\n        /* \"#utility.yul\":330:348   */\n      add\n        /* \"#utility.yul\":322:348   */\n      swap1\n      pop\n        /* \"#utility.yul\":358:429   */\n      tag_73\n        /* \"#utility.yul\":426:427   */\n      0x00\n        /* \"#utility.yul\":415:424   */\n      dup4\n        /* \"#utility.yul\":411:428   */\n      add\n        /* \"#utility.yul\":402:408   */\n      dup5\n        /* \"#utility.yul\":358:429   */\n      tag_54\n      jump\t// in\n    tag_73:\n        /* \"#utility.yul\":214:436   */\n      swap3\n      swap2\n      pop\n      pop\n      jump\t// out\n        /* \"#utility.yul\":523:640   */\n    tag_56:\n        /* \"#utility.yul\":632:633   */\n      0x00\n        /* \"#utility.yul\":629:630   */\n      dup1\n        /* \"#utility.yul\":622:634   */\n      revert\n        /* \"#utility.yul\":769:891   */\n    tag_58:\n        /* \"#utility.yul\":842:866   */\n      tag_78\n        /* \"#utility.yul\":860:865   */\n      dup2\n        /* \"#utility.yul\":842:866   */\n      tag_53\n      jump\t// in\n    tag_78:\n        /* \"#utility.yul\":835:840   */\n      dup2\n        /* \"#utility.yul\":832:867   */\n      eq\n        /* \"#utility.yul\":822:885   */\n      tag_79\n      jumpi\n        /* \"#utility.yul\":881:882   */\n      0x00\n        /* \"#utility.yul\":878:879   */\n      dup1\n        /* \"#utility.yul\":871:883   */\n      revert\n        /* \"#utility.yul\":822:885   */\n    tag_79:\n        /* \"#utility.yul\":769:891   */\n      pop\n      jump\t// out\n        /* \"#utility.yul\":897:1036   */\n    tag_59:\n        /* \"#utility.yul\":943:948   */\n      0x00\n        /* \"#utility.yul\":981:987   */\n      dup2\n        /* \"#utility.yul\":968:988   */\n      calldataload\n        /* \"#utility.yul\":959:988   */\n      swap1\n      pop\n        /* \"#utility.yul\":997:1030   */\n      tag_81\n        /* \"#utility.yul\":1024:1029   */\n      dup2\n        /* \"#utility.yul\":997:1030   */\n      tag_58\n      jump\t// in\n    tag_81:\n        /* \"#utility.yul\":897:1036   */\n      swap3\n      swap2\n      pop\n      pop\n      jump\t// out\n        /* \"#utility.yul\":1042:1371   */\n    tag_19:\n        /* \"#utility.yul\":1101:1107   */\n      0x00\n        /* \"#utility.yul\":1150:1152   */\n      0x20\n        /* \"#utility.yul\":1138:1147   */\n      dup3\n        /* \"#utility.yul\":1129:1136   */\n      dup5\n        /* \"#utility.yul\":1125:1148   */\n      sub\n        /* \"#utility.yul\":1121:1153   */\n      slt\n        /* \"#utility.yul\":1118:1237   */\n      iszero\n      tag_83\n      jumpi\n        /* \"#utility.yul\":1156:1235   */\n      tag_84\n      tag_56\n      jump\t// in\n    tag_84:\n        /* \"#utility.yul\":1118:1237   */\n    tag_83:\n        /* \"#utility.yul\":1276:1277   */\n      0x00\n        /* \"#utility.yul\":1301:1354   */\n      tag_85\n        /* \"#utility.yul\":1346:1353   */\n      dup5\n        /* \"#utility.yul\":1337:1343   */\n      dup3\n        /* \"#utility.yul\":1326:1335   */\n      dup6\n        /* \"#utility.yul\":1322:1344   */\n      add\n        /* \"#utility.yul\":1301:1354   */\n      tag_59\n      jump\t// in\n    tag_85:\n        /* \"#utility.yul\":1291:1354   */\n      swap2\n      pop\n        /* \"#utility.yul\":1247:1364   */\n      pop\n        /* \"#utility.yul\":1042:1371   */\n      swap3\n      swap2\n      pop\n      pop\n      jump\t// out\n        /* \"#utility.yul\":1377:1503   */\n    tag_60:\n        /* \"#utility.yul\":1414:1421   */\n      0x00\n        /* \"#utility.yul\":1454:1496   */\n      0xffffffffffffffffffffffffffffffffffffffff\n        /* \"#utility.yul\":1447:1452   */\n      dup3\n        /* \"#utility.yul\":1443:1497   */\n      and\n        /* \"#utility.yul\":1432:1497   */\n      swap1\n      pop\n        /* \"#utility.yul\":1377:1503   */\n      swap2\n      swap1\n      pop\n      jump\t// out\n        /* \"#utility.yul\":1509:1605   */\n    tag_61:\n        /* \"#utility.yul\":1546:1553   */\n      0x00\n        /* \"#utility.yul\":1575:1599   */\n      tag_88\n        /* \"#utility.yul\":1593:1598   */\n      dup3\n        /* \"#utility.yul\":1575:1599   */\n      tag_60\n      jump\t// in\n    tag_88:\n        /* \"#utility.yul\":1564:1599   */\n      swap1\n      pop\n        /* \"#utility.yul\":1509:1605   */\n      swap2\n      swap1\n      pop\n      jump\t// out\n        /* \"#utility.yul\":1611:1729   */\n    tag_62:\n        /* \"#utility.yul\":1698:1722   */\n      tag_90\n        /* \"#utility.yul\":1716:1721   */\n      dup2\n        /* \"#utility.yul\":1698:1722   */\n      tag_61\n      jump\t// in\n    tag_90:\n        /* \"#utility.yul\":1693:1696   */\n      dup3\n        /* \"#utility.yul\":1686:1723   */\n      mstore\n        /* \"#utility.yul\":1611:1729   */\n      pop\n      pop\n      jump\t// out\n        /* \"#utility.yul\":1735:1957   */\n    tag_22:\n        /* \"#utility.yul\":1828:1832   */\n      0x00\n        /* \"#utility.yul\":1866:1868   */\n      0x20\n        /* \"#utility.yul\":1855:1864   */\n      dup3\n        /* \"#utility.yul\":1851:1869   */\n      add\n        /* \"#utility.yul\":1843:1869   */\n      swap1\n      pop\n        /* \"#utility.yul\":1879:1950   */\n      tag_92\n        /* \"#utility.yul\":1947:1948   */\n      0x00\n        /* \"#utility.yul\":1936:1945   */\n      dup4\n        /* \"#utility.yul\":1932:1949   */\n      add\n        /* \"#utility.yul\":1923:1929   */\n      dup5\n        /* \"#utility.yul\":1879:1950   */\n      tag_62\n      jump\t// in\n    tag_92:\n        /* \"#utility.yul\":1735:1957   */\n      swap3\n      swap2\n      pop\n      pop\n      jump\t// out\n        /* \"#utility.yul\":1963:2143   */\n    tag_63:\n        /* \"#utility.yul\":2011:2088   */\n      0x4e487b7100000000000000000000000000000000000000000000000000000000\n        /* \"#utility.yul\":2008:2009   */\n      0x00\n        /* \"#utility.yul\":2001:2089   */\n      mstore\n        /* \"#utility.yul\":2108:2112   */\n      0x21\n        /* \"#utility.yul\":2105:2106   */\n      0x04\n        /* \"#utility.yul\":2098:2113   */\n      mstore\n        /* \"#utility.yul\":2132:2136   */\n      0x24\n        /* \"#utility.yul\":2129:2130   */\n      0x00\n        /* \"#utility.yul\":2122:2137   */\n      revert\n        /* \"#utility.yul\":2149:2269   */\n    tag_64:\n        /* \"#utility.yul\":2237:2238   */\n      0x02\n        /* \"#utility.yul\":2230:2235   */\n      dup2\n        /* \"#utility.yul\":2227:2239   */\n      lt\n        /* \"#utility.yul\":2217:2263   */\n      tag_95\n      jumpi\n        /* \"#utility.yul\":2243:2261   */\n      tag_96\n      tag_63\n      jump\t// in\n    tag_96:\n        /* \"#utility.yul\":2217:2263   */\n    tag_95:\n        /* \"#utility.yul\":2149:2269   */\n      pop\n      jump\t// out\n        /* \"#utility.yul\":2275:2416   */\n    tag_65:\n        /* \"#utility.yul\":2327:2334   */\n      0x00\n        /* \"#utility.yul\":2356:2361   */\n      dup2\n        /* \"#utility.yul\":2345:2361   */\n      swap1\n      pop\n        /* \"#utility.yul\":2362:2410   */\n      tag_98\n        /* \"#utility.yul\":2404:2409   */\n      dup3\n        /* \"#utility.yul\":2362:2410   */\n      tag_64\n      jump\t// in\n    tag_98:\n        /* \"#utility.yul\":2275:2416   */\n      swap2\n      swap1\n      pop\n      jump\t// out\n        /* \"#utility.yul\":2422:2563   */\n    tag_66:\n        /* \"#utility.yul\":2485:2494   */\n      0x00\n        /* \"#utility.yul\":2518:2557   */\n      tag_100\n        /* \"#utility.yul\":2551:2556   */\n      dup3\n        /* \"#utility.yul\":2518:2557   */\n      tag_65\n      jump\t// in\n    tag_100:\n        /* \"#utility.yul\":2505:2557   */\n      swap1\n      pop\n        /* \"#utility.yul\":2422:2563   */\n      swap2\n      swap1\n      pop\n      jump\t// out\n        /* \"#utility.yul\":2569:2726   */\n    tag_67:\n        /* \"#utility.yul\":2669:2719   */\n      tag_102\n        /* \"#utility.yul\":2713:2718   */\n      dup2\n        /* \"#utility.yul\":2669:2719   */\n      tag_66\n      jump\t// in\n    tag_102:\n        /* \"#utility.yul\":2664:2667   */\n      dup3\n        /* \"#utility.yul\":2657:2720   */\n      mstore\n        /* \"#utility.yul\":2569:2726   */\n      pop\n      pop\n      jump\t// out\n        /* \"#utility.yul\":2732:2980   */\n    tag_29:\n        /* \"#utility.yul\":2838:2842   */\n      0x00\n        /* \"#utility.yul\":2876:2878   */\n      0x20\n        /* \"#utility.yul\":2865:2874   */\n      dup3\n        /* \"#utility.yul\":2861:2879   */\n      add\n        /* \"#utility.yul\":2853:2879   */\n      swap1\n      pop\n        /* \"#utility.yul\":2889:2973   */\n      tag_104\n        /* \"#utility.yul\":2970:2971   */\n      0x00\n        /* \"#utility.yul\":2959:2968   */\n      dup4\n        /* \"#utility.yul\":2955:2972   */\n      add\n        /* \"#utility.yul\":2946:2952   */\n      dup5\n        /* \"#utility.yul\":2889:2973   */\n      tag_67\n      jump\t// in\n    tag_104:\n        /* \"#utility.yul\":2732:2980   */\n      swap3\n      swap2\n      pop\n      pop\n      jump\t// out\n\n    auxdata: 0xa26469706673582212203a9f5d6f1daec1d12df29c0a26cdaa32cbd76efbffe4eabf5fe891b51b0f4e1364736f6c63430008150033\n}\n",
				"bytecode": {
					"linkReferences": {},
					"object": "608060405234801561000f575f80fd5b5060405161060f38038061060f83398181016040528101906100319190610119565b335f806101000a81548173ffffffffffffffffffffffffffffffffffffffff021916908373ffffffffffffffffffffffffffffffffffffffff160217905550846001819055508360025f6101000a81548160ff0219169083600181111561009b5761009a610190565b5b021790555082600381905550816004819055508060088190555050505050506101bd565b5f80fd5b5f819050919050565b6100d5816100c3565b81146100df575f80fd5b50565b5f815190506100f0816100cc565b92915050565b60028110610102575f80fd5b50565b5f81519050610113816100f6565b92915050565b5f805f805f60a08688031215610132576101316100bf565b5b5f61013f888289016100e2565b955050602061015088828901610105565b9450506040610161888289016100e2565b9350506060610172888289016100e2565b9250506080610183888289016100e2565b9150509295509295909350565b7f4e487b71000000000000000000000000000000000000000000000000000000005f52602160045260245ffd5b610445806101ca5f395ff3fe608060405234801561000f575f80fd5b5060043610610091575f3560e01c806378e979251161006457806378e979251461011f5780638da5cb5b1461013d578063a2fb11751461015b578063c972e0631461018b578063ed3a865e146101bb57610091565b80633197cbb61461009557806335c1d349146100b357806343bddf40146100e3578063516f279e14610101575b5f80fd5b61009d6101d9565b6040516100aa91906102b9565b60405180910390f35b6100cd60048036038101906100c89190610300565b6101df565b6040516100da919061036a565b60405180910390f35b6100eb61021a565b6040516100f891906102b9565b60405180910390f35b610109610220565b60405161011691906103f6565b60405180910390f35b610127610232565b60405161013491906102b9565b60405180910390f35b610145610238565b604051610152919061036a565b60405180910390f35b61017560048036038101906101709190610300565b61025b565b60405161018291906102b9565b60405180910390f35b6101a560048036038101906101a09190610300565b61027b565b6040516101b291906102b9565b60405180910390f35b6101c361029b565b6040516101d091906102b9565b60405180910390f35b60045481565b600581815481106101ee575f80fd5b905f5260205f20015f915054906101000a900473ffffffffffffffffffffffffffffffffffffffff1681565b60085481565b60025f9054906101000a900460ff1681565b60035481565b5f8054906101000a900473ffffffffffffffffffffffffffffffffffffffff1681565b6006818154811061026a575f80fd5b905f5260205f20015f915090505481565b6007818154811061028a575f80fd5b905f5260205f20015f915090505481565b60015481565b5f819050919050565b6102b3816102a1565b82525050565b5f6020820190506102cc5f8301846102aa565b92915050565b5f80fd5b6102df816102a1565b81146102e9575f80fd5b50565b5f813590506102fa816102d6565b92915050565b5f60208284031215610315576103146102d2565b5b5f610322848285016102ec565b91505092915050565b5f73ffffffffffffffffffffffffffffffffffffffff82169050919050565b5f6103548261032b565b9050919050565b6103648161034a565b82525050565b5f60208201905061037d5f83018461035b565b92915050565b7f4e487b71000000000000000000000000000000000000000000000000000000005f52602160045260245ffd5b600281106103c1576103c0610383565b5b50565b5f8190506103d1826103b0565b919050565b5f6103e0826103c4565b9050919050565b6103f0816103d6565b82525050565b5f6020820190506104095f8301846103e7565b9291505056fea26469706673582212203a9f5d6f1daec1d12df29c0a26cdaa32cbd76efbffe4eabf5fe891b51b0f4e1364736f6c63430008150033",
					"opcodes": "PUSH1 0x80 PUSH1 0x40 MSTORE CALLVALUE DUP1 ISZERO PUSH2 0xF JUMPI PUSH0 DUP1 REVERT JUMPDEST POP PUSH1 0x40 MLOAD PUSH2 0x60F CODESIZE SUB DUP1 PUSH2 0x60F DUP4 CODECOPY DUP2 DUP2 ADD PUSH1 0x40 MSTORE DUP2 ADD SWAP1 PUSH2 0x31 SWAP2 SWAP1 PUSH2 0x119 JUMP JUMPDEST CALLER PUSH0 DUP1 PUSH2 0x100 EXP DUP2 SLOAD DUP2 PUSH20 0xFFFFFFFFFFFFFFFFFFFFFFFFFFFFFFFFFFFFFFFF MUL NOT AND SWAP1 DUP4 PUSH20 0xFFFFFFFFFFFFFFFFFFFFFFFFFFFFFFFFFFFFFFFF AND MUL OR SWAP1 SSTORE POP DUP5 PUSH1 0x1 DUP2 SWAP1 SSTORE POP DUP4 PUSH1 0x2 PUSH0 PUSH2 0x100 EXP DUP2 SLOAD DUP2 PUSH1 0xFF MUL NOT AND SWAP1 DUP4 PUSH1 0x1 DUP2 GT ISZERO PUSH2 0x9B JUMPI PUSH2 0x9A PUSH2 0x190 JUMP JUMPDEST JUMPDEST MUL OR SWAP1 SSTORE POP DUP3 PUSH1 0x3 DUP2 SWAP1 SSTORE POP DUP2 PUSH1 0x4 DUP2 SWAP1 SSTORE POP DUP1 PUSH1 0x8 DUP2 SWAP1 SSTORE POP POP POP POP POP POP PUSH2 0x1BD JUMP JUMPDEST PUSH0 DUP1 REVERT JUMPDEST PUSH0 DUP2 SWAP1 POP SWAP2 SWAP1 POP JUMP JUMPDEST PUSH2 0xD5 DUP2 PUSH2 0xC3 JUMP JUMPDEST DUP2 EQ PUSH2 0xDF JUMPI PUSH0 DUP1 REVERT JUMPDEST POP JUMP JUMPDEST PUSH0 DUP2 MLOAD SWAP1 POP PUSH2 0xF0 DUP2 PUSH2 0xCC JUMP JUMPDEST SWAP3 SWAP2 POP POP JUMP JUMPDEST PUSH1 0x2 DUP2 LT PUSH2 0x102 JUMPI PUSH0 DUP1 REVERT JUMPDEST POP JUMP JUMPDEST PUSH0 DUP2 MLOAD SWAP1 POP PUSH2 0x113 DUP2 PUSH2 0xF6 JUMP JUMPDEST SWAP3 SWAP2 POP POP JUMP JUMPDEST PUSH0 DUP1 PUSH0 DUP1 PUSH0 PUSH1 0xA0 DUP7 DUP9 SUB SLT ISZERO PUSH2 0x132 JUMPI PUSH2 0x131 PUSH2 0xBF JUMP JUMPDEST JUMPDEST PUSH0 PUSH2 0x13F DUP9 DUP3 DUP10 ADD PUSH2 0xE2 JUMP JUMPDEST SWAP6 POP POP PUSH1 0x20 PUSH2 0x150 DUP9 DUP3 DUP10 ADD PUSH2 0x105 JUMP JUMPDEST SWAP5 POP POP PUSH1 0x40 PUSH2 0x161 DUP9 DUP3 DUP10 ADD PUSH2 0xE2 JUMP JUMPDEST SWAP4 POP POP PUSH1 0x60 PUSH2 0x172 DUP9 DUP3 DUP10 ADD PUSH2 0xE2 JUMP JUMPDEST SWAP3 POP POP PUSH1 0x80 PUSH2 0x183 DUP9 DUP3 DUP10 ADD PUSH2 0xE2 JUMP JUMPDEST SWAP2 POP POP SWAP3 SWAP6 POP SWAP3 SWAP6 SWAP1 SWAP4 POP JUMP JUMPDEST PUSH32 0x4E487B7100000000000000000000000000000000000000000000000000000000 PUSH0 MSTORE PUSH1 0x21 PUSH1 0x4 MSTORE PUSH1 0x24 PUSH0 REVERT JUMPDEST PUSH2 0x445 DUP1 PUSH2 0x1CA PUSH0 CODECOPY PUSH0 RETURN INVALID PUSH1 0x80 PUSH1 0x40 MSTORE CALLVALUE DUP1 ISZERO PUSH2 0xF JUMPI PUSH0 DUP1 REVERT JUMPDEST POP PUSH1 0x4 CALLDATASIZE LT PUSH2 0x91 JUMPI PUSH0 CALLDATALOAD PUSH1 0xE0 SHR DUP1 PUSH4 0x78E97925 GT PUSH2 0x64 JUMPI DUP1 PUSH4 0x78E97925 EQ PUSH2 0x11F JUMPI DUP1 PUSH4 0x8DA5CB5B EQ PUSH2 0x13D JUMPI DUP1 PUSH4 0xA2FB1175 EQ PUSH2 0x15B JUMPI DUP1 PUSH4 0xC972E063 EQ PUSH2 0x18B JUMPI DUP1 PUSH4 0xED3A865E EQ PUSH2 0x1BB JUMPI PUSH2 0x91 JUMP JUMPDEST DUP1 PUSH4 0x3197CBB6 EQ PUSH2 0x95 JUMPI DUP1 PUSH4 0x35C1D349 EQ PUSH2 0xB3 JUMPI DUP1 PUSH4 0x43BDDF40 EQ PUSH2 0xE3 JUMPI DUP1 PUSH4 0x516F279E EQ PUSH2 0x101 JUMPI JUMPDEST PUSH0 DUP1 REVERT JUMPDEST PUSH2 0x9D PUSH2 0x1D9 JUMP JUMPDEST PUSH1 0x40 MLOAD PUSH2 0xAA SWAP2 SWAP1 PUSH2 0x2B9 JUMP JUMPDEST PUSH1 0x40 MLOAD DUP1 SWAP2 SUB SWAP1 RETURN JUMPDEST PUSH2 0xCD PUSH1 0x4 DUP1 CALLDATASIZE SUB DUP2 ADD SWAP1 PUSH2 0xC8 SWAP2 SWAP1 PUSH2 0x300 JUMP JUMPDEST PUSH2 0x1DF JUMP JUMPDEST PUSH1 0x40 MLOAD PUSH2 0xDA SWAP2 SWAP1 PUSH2 0x36A JUMP JUMPDEST PUSH1 0x40 MLOAD DUP1 SWAP2 SUB SWAP1 RETURN JUMPDEST PUSH2 0xEB PUSH2 0x21A JUMP JUMPDEST PUSH1 0x40 MLOAD PUSH2 0xF8 SWAP2 SWAP1 PUSH2 0x2B9 JUMP JUMPDEST PUSH1 0x40 MLOAD DUP1 SWAP2 SUB SWAP1 RETURN JUMPDEST PUSH2 0x109 PUSH2 0x220 JUMP JUMPDEST PUSH1 0x40 MLOAD PUSH2 0x116 SWAP2 SWAP1 PUSH2 0x3F6 JUMP JUMPDEST PUSH1 0x40 MLOAD DUP1 SWAP2 SUB SWAP1 RETURN JUMPDEST PUSH2 0x127 PUSH2 0x232 JUMP JUMPDEST PUSH1 0x40 MLOAD PUSH2 0x134 SWAP2 SWAP1 PUSH2 0x2B9 JUMP JUMPDEST PUSH1 0x40 MLOAD DUP1 SWAP2 SUB SWAP1 RETURN JUMPDEST PUSH2 0x145 PUSH2 0x238 JUMP JUMPDEST PUSH1 0x40 MLOAD PUSH2 0x152 SWAP2 SWAP1 PUSH2 0x36A JUMP JUMPDEST PUSH1 0x40 MLOAD DUP1 SWAP2 SUB SWAP1 RETURN JUMPDEST PUSH2 0x175 PUSH1 0x4 DUP1 CALLDATASIZE SUB DUP2 ADD SWAP1 PUSH2 0x170 SWAP2 SWAP1 PUSH2 0x300 JUMP JUMPDEST PUSH2 0x25B JUMP JUMPDEST PUSH1 0x40 MLOAD PUSH2 0x182 SWAP2 SWAP1 PUSH2 0x2B9 JUMP JUMPDEST PUSH1 0x40 MLOAD DUP1 SWAP2 SUB SWAP1 RETURN JUMPDEST PUSH2 0x1A5 PUSH1 0x4 DUP1 CALLDATASIZE SUB DUP2 ADD SWAP1 PUSH2 0x1A0 SWAP2 SWAP1 PUSH2 0x300 JUMP JUMPDEST PUSH2 0x27B JUMP JUMPDEST PUSH1 0x40 MLOAD PUSH2 0x1B2 SWAP2 SWAP1 PUSH2 0x2B9 JUMP JUMPDEST PUSH1 0x40 MLOAD DUP1 SWAP2 SUB SWAP1 RETURN JUMPDEST PUSH2 0x1C3 PUSH2 0x29B JUMP JUMPDEST PUSH1 0x40 MLOAD PUSH2 0x1D0 SWAP2 SWAP1 PUSH2 0x2B9 JUMP JUMPDEST PUSH1 0x40 MLOAD DUP1 SWAP2 SUB SWAP1 RETURN JUMPDEST PUSH1 0x4 SLOAD DUP2 JUMP JUMPDEST PUSH1 0x5 DUP2 DUP2 SLOAD DUP2 LT PUSH2 0x1EE JUMPI PUSH0 DUP1 REVERT JUMPDEST SWAP1 PUSH0 MSTORE PUSH1 0x20 PUSH0 KECCAK256 ADD PUSH0 SWAP2 POP SLOAD SWAP1 PUSH2 0x100 EXP SWAP1 DIV PUSH20 0xFFFFFFFFFFFFFFFFFFFFFFFFFFFFFFFFFFFFFFFF AND DUP2 JUMP JUMPDEST PUSH1 0x8 SLOAD DUP2 JUMP JUMPDEST PUSH1 0x2 PUSH0 SWAP1 SLOAD SWAP1 PUSH2 0x100 EXP SWAP1 DIV PUSH1 0xFF AND DUP2 JUMP JUMPDEST PUSH1 0x3 SLOAD DUP2 JUMP JUMPDEST PUSH0 DUP1 SLOAD SWAP1 PUSH2 0x100 EXP SWAP1 DIV PUSH20 0xFFFFFFFFFFFFFFFFFFFFFFFFFFFFFFFFFFFFFFFF AND DUP2 JUMP JUMPDEST PUSH1 0x6 DUP2 DUP2 SLOAD DUP2 LT PUSH2 0x26A JUMPI PUSH0 DUP1 REVERT JUMPDEST SWAP1 PUSH0 MSTORE PUSH1 0x20 PUSH0 KECCAK256 ADD PUSH0 SWAP2 POP SWAP1 POP SLOAD DUP2 JUMP JUMPDEST PUSH1 0x7 DUP2 DUP2 SLOAD DUP2 LT PUSH2 0x28A JUMPI PUSH0 DUP1 REVERT JUMPDEST SWAP1 PUSH0 MSTORE PUSH1 0x20 PUSH0 KECCAK256 ADD PUSH0 SWAP2 POP SWAP1 POP SLOAD DUP2 JUMP JUMPDEST PUSH1 0x1 SLOAD DUP2 JUMP JUMPDEST PUSH0 DUP2 SWAP1 POP SWAP2 SWAP1 POP JUMP JUMPDEST PUSH2 0x2B3 DUP2 PUSH2 0x2A1 JUMP JUMPDEST DUP3 MSTORE POP POP JUMP JUMPDEST PUSH0 PUSH1 0x20 DUP3 ADD SWAP1 POP PUSH2 0x2CC PUSH0 DUP4 ADD DUP5 PUSH2 0x2AA JUMP JUMPDEST SWAP3 SWAP2 POP POP JUMP JUMPDEST PUSH0 DUP1 REVERT JUMPDEST PUSH2 0x2DF DUP2 PUSH2 0x2A1 JUMP JUMPDEST DUP2 EQ PUSH2 0x2E9 JUMPI PUSH0 DUP1 REVERT JUMPDEST POP JUMP JUMPDEST PUSH0 DUP2 CALLDATALOAD SWAP1 POP PUSH2 0x2FA DUP2 PUSH2 0x2D6 JUMP JUMPDEST SWAP3 SWAP2 POP POP JUMP JUMPDEST PUSH0 PUSH1 0x20 DUP3 DUP5 SUB SLT ISZERO PUSH2 0x315 JUMPI PUSH2 0x314 PUSH2 0x2D2 JUMP JUMPDEST JUMPDEST PUSH0 PUSH2 0x322 DUP5 DUP3 DUP6 ADD PUSH2 0x2EC JUMP JUMPDEST SWAP2 POP POP SWAP3 SWAP2 POP POP JUMP JUMPDEST PUSH0 PUSH20 0xFFFFFFFFFFFFFFFFFFFFFFFFFFFFFFFFFFFFFFFF DUP3 AND SWAP1 POP SWAP2 SWAP1 POP JUMP JUMPDEST PUSH0 PUSH2 0x354 DUP3 PUSH2 0x32B JUMP JUMPDEST SWAP1 POP SWAP2 SWAP1 POP JUMP JUMPDEST PUSH2 0x364 DUP2 PUSH2 0x34A JUMP JUMPDEST DUP3 MSTORE POP POP JUMP JUMPDEST PUSH0 PUSH1 0x20 DUP3 ADD SWAP1 POP PUSH2 0x37D PUSH0 DUP4 ADD DUP5 PUSH2 0x35B JUMP JUMPDEST SWAP3 SWAP2 POP POP JUMP JUMPDEST PUSH32 0x4E487B7100000000000000000000000000000000000000000000000000000000 PUSH0 MSTORE PUSH1 0x21 PUSH1 0x4 MSTORE PUSH1 0x24 PUSH0 REVERT JUMPDEST PUSH1 0x2 DUP2 LT PUSH2 0x3C1 JUMPI PUSH2 0x3C0 PUSH2 0x383 JUMP JUMPDEST JUMPDEST POP JUMP JUMPDEST PUSH0 DUP2 SWAP1 POP PUSH2 0x3D1 DUP3 PUSH2 0x3B0 JUMP JUMPDEST SWAP2 SWAP1 POP JUMP JUMPDEST PUSH0 PUSH2 0x3E0 DUP3 PUSH2 0x3C4 JUMP JUMPDEST SWAP1 POP SWAP2 SWAP1 POP JUMP JUMPDEST PUSH2 0x3F0 DUP2 PUSH2 0x3D6 JUMP JUMPDEST DUP3 MSTORE POP POP JUMP JUMPDEST PUSH0 PUSH1 0x20 DUP3 ADD SWAP1 POP PUSH2 0x409 PUSH0 DUP4 ADD DUP5 PUSH2 0x3E7 JUMP JUMPDEST SWAP3 SWAP2 POP POP JUMP INVALID LOG2 PUSH5 0x6970667358 0x22 SLT KECCAK256 GASPRICE SWAP16 0x5D PUSH16 0x1DAEC1D12DF29C0A26CDAA32CBD76EFB SELFDESTRUCT 0xE4 0xEA 0xBF PUSH0 0xE8 SWAP2 0xB5 SHL 0xF 0x4E SGT PUSH5 0x736F6C6343 STOP ADDMOD ISZERO STOP CALLER "
				},
				"gasEstimates": {
					"creation": {
						"codeDepositCost": "218600",
						"executionCost": "infinite",
						"totalCost": "infinite"
					},
					"external": {
						"endTime()": "2426",
						"horses()": "2470",
						"location()": "2621",
						"owner()": "2527",
						"participants(uint256)": "4967",
						"raceId()": "2513",
						"startTime()": "2425",
						"winBetters(uint256)": "infinite",
						"winners(uint256)": "infinite"
					}
				},
				"methodIdentifiers": {
					"endTime()": "3197cbb6",
					"horses()": "43bddf40",
					"location()": "516f279e",
					"owner()": "8da5cb5b",
					"participants(uint256)": "35c1d349",
					"raceId()": "ed3a865e",
					"startTime()": "78e97925",
					"winBetters(uint256)": "c972e063",
					"winners(uint256)": "a2fb1175"
				}
			},
			"storageLayout": {
				"storage": [
					{
						"astId": 140,
						"contract": "RaceCourse.sol:RaceCourse",
						"label": "owner",
						"offset": 0,
						"slot": "0",
						"type": "t_address"
					},
					{
						"astId": 142,
						"contract": "RaceCourse.sol:RaceCourse",
						"label": "raceId",
						"offset": 0,
						"slot": "1",
						"type": "t_uint256"
					},
					{
						"astId": 145,
						"contract": "RaceCourse.sol:RaceCourse",
						"label": "location",
						"offset": 0,
						"slot": "2",
						"type": "t_enum(Arealocation)13"
					},
					{
						"astId": 147,
						"contract": "RaceCourse.sol:RaceCourse",
						"label": "startTime",
						"offset": 0,
						"slot": "3",
						"type": "t_uint256"
					},
					{
						"astId": 149,
						"contract": "RaceCourse.sol:RaceCourse",
						"label": "endTime",
						"offset": 0,
						"slot": "4",
						"type": "t_uint256"
					},
					{
						"astId": 152,
						"contract": "RaceCourse.sol:RaceCourse",
						"label": "participants",
						"offset": 0,
						"slot": "5",
						"type": "t_array(t_address)dyn_storage"
					},
					{
						"astId": 155,
						"contract": "RaceCourse.sol:RaceCourse",
						"label": "winners",
						"offset": 0,
						"slot": "6",
						"type": "t_array(t_uint256)dyn_storage"
					},
					{
						"astId": 158,
						"contract": "RaceCourse.sol:RaceCourse",
						"label": "winBetters",
						"offset": 0,
						"slot": "7",
						"type": "t_array(t_uint256)dyn_storage"
					},
					{
						"astId": 160,
						"contract": "RaceCourse.sol:RaceCourse",
						"label": "horses",
						"offset": 0,
						"slot": "8",
						"type": "t_uint256"
					}
				],
				"types": {
					"t_address": {
						"encoding": "inplace",
						"label": "address",
						"numberOfBytes": "20"
					},
					"t_array(t_address)dyn_storage": {
						"base": "t_address",
						"encoding": "dynamic_array",
						"label": "address[]",
						"numberOfBytes": "32"
					},
					"t_array(t_uint256)dyn_storage": {
						"base": "t_uint256",
						"encoding": "dynamic_array",
						"label": "uint256[]",
						"numberOfBytes": "32"
					},
					"t_enum(Arealocation)13": {
						"encoding": "inplace",
						"label": "enum Betting.Arealocation",
						"numberOfBytes": "1"
					},
					"t_uint256": {
						"encoding": "inplace",
						"label": "uint256",
						"numberOfBytes": "32"
					}
				}
			},
			"userdoc": {
				"kind": "user",
				"methods": {},
				"version": 1
			}
		}
	}
}