{
	"data": {
		"bytecode": {
			"linkReferences": {},
			"object": "60806040525f600255348015610013575f80fd5b506139ec806100215f395ff3fe608060405260043610620000d3575f3560e01c8063463407fd116200008a5780637ed14a2c11620000605780637ed14a2c14620002d1578063c04f01fc14620002f1578063f85fc0ab1462000334578063f88e9fbf146200036357620000d3565b8063463407fd146200023257806351b0be7714620002615780637bbc469e146200028e57620000d3565b8063114db12f14620000d7578063165c4a1614620000f757806322af00fa146200013a578063231e5a07146200017d5780632e0f262514620001c05780633e5fcd0414620001ef575b5f80fd5b620000f56004803603810190620000ef919062001413565b620003a6565b005b34801562000103575f80fd5b506200012260048036038101906200011c919062001443565b6200094b565b60405162000131919062001499565b60405180910390f35b34801562000146575f80fd5b506200016560048036038101906200015f919062001413565b6200097e565b6040516200017491906200153a565b60405180910390f35b34801562000189575f80fd5b50620001a86004803603810190620001a2919062001443565b620009ba565b604051620001b7919062001499565b60405180910390f35b348015620001cc575f80fd5b50620001d7620009e6565b604051620001e6919062001499565b60405180910390f35b348015620001fb575f80fd5b506200021a600480360381019062000214919062001413565b620009eb565b60405162000229919062001499565b60405180910390f35b3480156200023e575f80fd5b506200024962000a00565b60405162000258919062001499565b60405180910390f35b3480156200026d575f80fd5b506200028c60048036038101906200028691906200157b565b62000a06565b005b3480156200029a575f80fd5b50620002b96004803603810190620002b3919062001413565b62000b49565b604051620002c8919062001623565b60405180910390f35b620002ef6004803603810190620002e99190620016a6565b62000b84565b005b348015620002fd575f80fd5b506200031c600480360381019062000316919062001443565b62000d14565b6040516200032b919062001499565b60405180910390f35b34801562000340575f80fd5b506200034b62000d56565b6040516200035a919062001499565b60405180910390f35b3480156200036f575f80fd5b506200038e600480360381019062000388919062001443565b62000d5b565b6040516200039d919062001499565b60405180910390f35b5f805490508110620003ef576040517f08c379a0000000000000000000000000000000000000000000000000000000008152600401620003e6906200179c565b60405180910390fd5b5f808281548110620004065762000405620017bc565b5b905f5260205f20015f9054906101000a900473ffffffffffffffffffffffffffffffffffffffff1690505f620004ab8273ffffffffffffffffffffffffffffffffffffffff166390adec6f6040518163ffffffff1660e01b8152600401602060405180830381865afa1580156200047f573d5f803e3d5ffd5b505050506040513d601f19601f82011682018060405250810190620004a59190620017ff565b62000d8e565b90508173ffffffffffffffffffffffffffffffffffffffff1663cb44cdff826040518263ffffffff1660e01b8152600401620004e89190620018f6565b5f604051808303815f87803b15801562000500575f80fd5b505af115801562000513573d5f803e3d5ffd5b505050505f60045f8581526020019081526020015f208054806020026020016040519081016040528092919081815260200182805480156200057357602002820191905f5260205f20905b8154815260200190600101908083116200055e575b505050505090505f805b825181101562000937575f6001848381518110620005a0576200059f620017bc565b5b602002602001015181548110620005bc57620005bb620017bc565b5b905f5260205f20015f9054906101000a900473ffffffffffffffffffffffffffffffffffffffff1690505f5b855181101562000793578173ffffffffffffffffffffffffffffffffffffffff1663a1b9182a6040518163ffffffff1660e01b8152600401602060405180830381865afa1580156200063c573d5f803e3d5ffd5b505050506040513d601f19601f82011682018060405250810190620006629190620017ff565b868281518110620006785762000677620017bc565b5b6020026020010151036200077d578173ffffffffffffffffffffffffffffffffffffffff1663f43c0eca5f6040518263ffffffff1660e01b8152600401620006c1919062001994565b5f604051808303815f87803b158015620006d9575f80fd5b505af1158015620006ec573d5f803e3d5ffd5b505050508673ffffffffffffffffffffffffffffffffffffffff1663aa608d4b868581518110620007225762000721620017bc565b5b60200260200101516040518263ffffffff1660e01b815260040162000748919062001499565b5f604051808303815f87803b15801562000760575f80fd5b505af115801562000773573d5f803e3d5ffd5b5050505062000793565b80806200078a90620019dc565b915050620005e8565b50600380811115620007aa57620007a962001918565b5b8173ffffffffffffffffffffffffffffffffffffffff16633f3a279d6040518163ffffffff1660e01b8152600401602060405180830381865afa158015620007f4573d5f803e3d5ffd5b505050506040513d601f19601f820116820180604052508101906200081a919062001a4e565b60038111156200082f576200082e62001918565b5b0362000920578073ffffffffffffffffffffffffffffffffffffffff1663f43c0eca60016040518263ffffffff1660e01b815260040162000871919062001994565b5f604051808303815f87803b15801562000889575f80fd5b505af11580156200089c573d5f803e3d5ffd5b505050508073ffffffffffffffffffffffffffffffffffffffff1663d321fe296040518163ffffffff1660e01b8152600401602060405180830381865afa158015620008ea573d5f803e3d5ffd5b505050506040513d601f19601f82011682018060405250810190620009109190620017ff565b836200091d919062001a7e565b92505b5080806200092e90620019dc565b9150506200057d565b5062000944858262000eac565b5050505050565b5f6002600a6200095c919062001c08565b82846200096a919062001c58565b62000976919062001ccf565b905092915050565b600181815481106200098e575f80fd5b905f5260205f20015f915054906101000a900473ffffffffffffffffffffffffffffffffffffffff1681565b6004602052815f5260405f208181548110620009d4575f80fd5b905f5260205f20015f91509150505481565b600281565b6003602052805f5260405f205f915090505481565b60025481565b42831162000a4b576040517f08c379a000000000000000000000000000000000000000000000000000000000815260040162000a429062001d7a565b60405180910390fd5b5f60035f8781526020019081526020015f20540362000aa1576040517f08c379a000000000000000000000000000000000000000000000000000000000815260040162000a989062001de8565b60405180910390fd5b5f858285858860405162000ab590620013ae565b62000ac595949392919062001e57565b604051809103905ff08015801562000adf573d5f803e3d5ffd5b5090505f81908060018154018082558091505060019003905f5260205f20015f9091909190916101000a81548173ffffffffffffffffffffffffffffffffffffffff021916908373ffffffffffffffffffffffffffffffffffffffff160217905550505050505050565b5f818154811062000b58575f80fd5b905f5260205f20015f915054906101000a900473ffffffffffffffffffffffffffffffffffffffff1681565b8334101562000bca576040517f08c379a000000000000000000000000000000000000000000000000000000000815260040162000bc19062001f26565b60405180910390fd5b5f80549050861062000c13576040517f08c379a000000000000000000000000000000000000000000000000000000000815260040162000c0a906200179c565b60405180910390fd5b60025f81548092919062000c2790620019dc565b91905055505f600254905060045f8281526020019081526020015f2081908060018154018082558091505060019003905f5260205f20015f90919091909150555f87838686898b60405162000c7c90620013bc565b62000c8d9695949392919062001fa6565b604051809103905ff08015801562000ca7573d5f803e3d5ffd5b509050600181908060018154018082558091505060019003905f5260205f20015f9091909190916101000a81548173ffffffffffffffffffffffffffffffffffffffff021916908373ffffffffffffffffffffffffffffffffffffffff1602179055505050505050505050565b5f80600190505f5b8381101562000d4b57848262000d33919062001c58565b9150808062000d4290620019dc565b91505062000d1c565b508091505092915050565b606481565b5f816002600a62000d6d919062001c08565b8462000d7a919062001c58565b62000d86919062001ccf565b905092915050565b60605f8267ffffffffffffffff81111562000dae5762000dad62002011565b5b60405190808252806020026020018201604052801562000ddd5781602001602082028036833780820191505090505b5090505f424460405160200162000df692919062002062565b604051602081830303815290604052805190602001205f1c90505f5b8481101562000ea1578160014362000e2b919062002091565b408260405160200162000e4193929190620020f8565b604051602081830303815290604052805190602001205f1c9150848262000e6991906200213a565b83828151811062000e7f5762000e7e620017bc565b5b602002602001018181525050808062000e9890620019dc565b91505062000e12565b508192505050919050565b5f80838154811062000ec35762000ec2620017bc565b5b905f5260205f20015f9054906101000a900473ffffffffffffffffffffffffffffffffffffffff1673ffffffffffffffffffffffffffffffffffffffff1663df15c37e6040518163ffffffff1660e01b81526004015f60405180830381865afa15801562000f33573d5f803e3d5ffd5b505050506040513d5f823e3d601f19601f8201168201806040525081019062000f5d9190620022b0565b90505f80848154811062000f765762000f75620017bc565b5b905f5260205f20015f9054906101000a900473ffffffffffffffffffffffffffffffffffffffff1673ffffffffffffffffffffffffffffffffffffffff16639bf270636040518163ffffffff1660e01b81526004015f60405180830381865afa15801562000fe6573d5f803e3d5ffd5b505050506040513d5f823e3d601f19601f82011682018060405250810190620010109190620022b0565b90505f600190505b8251811162001381575f62001038620010318362001388565b866200094b565b90505f5b835181101562001369575f60018583815181106200105f576200105e620017bc565b5b6020026020010151815481106200107b576200107a620017bc565b5b905f5260205f20015f9054906101000a900473ffffffffffffffffffffffffffffffffffffffff1690505f620011218273ffffffffffffffffffffffffffffffffffffffff1663d321fe296040518163ffffffff1660e01b8152600401602060405180830381865afa158015620010f4573d5f803e3d5ffd5b505050506040513d601f19601f820116820180604052508101906200111a9190620017ff565b8962000d5b565b90505f6200113082866200094b565b90508273ffffffffffffffffffffffffffffffffffffffff166321df0da76040518163ffffffff1660e01b8152600401602060405180830381865afa1580156200117c573d5f803e3d5ffd5b505050506040513d601f19601f82011682018060405250810190620011a2919062002341565b73ffffffffffffffffffffffffffffffffffffffff166323b872dd308573ffffffffffffffffffffffffffffffffffffffff166310fe9ae86040518163ffffffff1660e01b8152600401602060405180830381865afa15801562001208573d5f803e3d5ffd5b505050506040513d601f19601f820116820180604052508101906200122e919062002387565b848773ffffffffffffffffffffffffffffffffffffffff1663d321fe296040518163ffffffff1660e01b8152600401602060405180830381865afa15801562001279573d5f803e3d5ffd5b505050506040513d601f19601f820116820180604052508101906200129f9190620017ff565b620012ab919062001a7e565b6040518463ffffffff1660e01b8152600401620012cb93929190620023b7565b6020604051808303815f875af1158015620012e8573d5f803e3d5ffd5b505050506040513d601f19601f820116820180604052508101906200130e91906200242c565b62001350576040517f08c379a00000000000000000000000000000000000000000000000000000000081526004016200134790620024aa565b60405180910390fd5b50505080806200136090620019dc565b9150506200103c565b505080806200137890620019dc565b91505062001018565b5050505050565b5f806200139760028462000d14565b9050620013a660648262000d5b565b915050919050565b610af080620024cb83390190565b6109fc8062002fbb83390190565b5f604051905090565b5f80fd5b5f80fd5b5f819050919050565b620013ef81620013db565b8114620013fa575f80fd5b50565b5f813590506200140d81620013e4565b92915050565b5f602082840312156200142b576200142a620013d3565b5b5f6200143a84828501620013fd565b91505092915050565b5f80604083850312156200145c576200145b620013d3565b5b5f6200146b85828601620013fd565b92505060206200147e85828601620013fd565b9150509250929050565b6200149381620013db565b82525050565b5f602082019050620014ae5f83018462001488565b92915050565b5f73ffffffffffffffffffffffffffffffffffffffff82169050919050565b5f819050919050565b5f620014fc620014f6620014f084620014b4565b620014d3565b620014b4565b9050919050565b5f6200150f82620014dc565b9050919050565b5f620015228262001503565b9050919050565b620015348162001516565b82525050565b5f6020820190506200154f5f83018462001529565b92915050565b6002811062001562575f80fd5b50565b5f81359050620015758162001555565b92915050565b5f805f805f60a08688031215620015975762001596620013d3565b5b5f620015a688828901620013fd565b9550506020620015b988828901620013fd565b9450506040620015cc88828901620013fd565b9350506060620015df88828901620013fd565b9250506080620015f28882890162001565565b9150509295509295909350565b5f6200160b8262001503565b9050919050565b6200161d81620015ff565b82525050565b5f602082019050620016385f83018462001612565b92915050565b600381106200164b575f80fd5b50565b5f813590506200165e816200163e565b92915050565b5f6200167082620014b4565b9050919050565b620016828162001664565b81146200168d575f80fd5b50565b5f81359050620016a08162001677565b92915050565b5f805f805f8060c08789031215620016c357620016c2620013d3565b5b5f620016d289828a01620013fd565b9650506020620016e589828a01620013fd565b9550506040620016f889828a01620013fd565b94505060606200170b89828a016200164e565b93505060806200171e89828a0162001565565b92505060a06200173189828a0162001690565b9150509295509295509295565b5f82825260208201905092915050565b7f5261636520646f6573206e6f74206578697374000000000000000000000000005f82015250565b5f620017846013836200173e565b915062001791826200174e565b602082019050919050565b5f6020820190508181035f830152620017b58162001776565b9050919050565b7f4e487b71000000000000000000000000000000000000000000000000000000005f52603260045260245ffd5b5f81519050620017f981620013e4565b92915050565b5f60208284031215620018175762001816620013d3565b5b5f6200182684828501620017e9565b91505092915050565b5f81519050919050565b5f82825260208201905092915050565b5f819050602082019050919050565b6200186381620013db565b82525050565b5f62001876838362001858565b60208301905092915050565b5f602082019050919050565b5f6200189a826200182f565b620018a6818562001839565b9350620018b38362001849565b805f5b83811015620018e9578151620018cd888262001869565b9750620018da8362001882565b925050600181019050620018b6565b5085935050505092915050565b5f6020820190508181035f8301526200191081846200188e565b905092915050565b7f4e487b71000000000000000000000000000000000000000000000000000000005f52602160045260245ffd5b6004811062001959576200195862001918565b5b50565b5f8190506200196b8262001945565b919050565b5f6200197c826200195c565b9050919050565b6200198e8162001970565b82525050565b5f602082019050620019a95f83018462001983565b92915050565b7f4e487b71000000000000000000000000000000000000000000000000000000005f52601160045260245ffd5b5f620019e882620013db565b91507fffffffffffffffffffffffffffffffffffffffffffffffffffffffffffffffff820362001a1d5762001a1c620019af565b5b600182019050919050565b6004811062001a35575f80fd5b50565b5f8151905062001a488162001a28565b92915050565b5f6020828403121562001a665762001a65620013d3565b5b5f62001a758482850162001a38565b91505092915050565b5f62001a8a82620013db565b915062001a9783620013db565b925082820190508082111562001ab25762001ab1620019af565b5b92915050565b5f8160011c9050919050565b5f808291508390505b600185111562001b155780860481111562001aed5762001aec620019af565b5b600185161562001afd5780820291505b808102905062001b0d8562001ab8565b945062001acd565b94509492505050565b5f8262001b2f576001905062001c01565b8162001b3e575f905062001c01565b816001811462001b57576002811462001b625762001b98565b600191505062001c01565b60ff84111562001b775762001b76620019af565b5b8360020a91508482111562001b915762001b90620019af565b5b5062001c01565b5060208310610133831016604e8410600b841016171562001bd25782820a90508381111562001bcc5762001bcb620019af565b5b62001c01565b62001be1848484600162001ac4565b9250905081840481111562001bfb5762001bfa620019af565b5b81810290505b9392505050565b5f62001c1482620013db565b915062001c2183620013db565b925062001c507fffffffffffffffffffffffffffffffffffffffffffffffffffffffffffffffff848462001b1e565b905092915050565b5f62001c6482620013db565b915062001c7183620013db565b925082820262001c8181620013db565b9150828204841483151762001c9b5762001c9a620019af565b5b5092915050565b7f4e487b71000000000000000000000000000000000000000000000000000000005f52601260045260245ffd5b5f62001cdb82620013db565b915062001ce883620013db565b92508262001cfb5762001cfa62001ca2565b5b828204905092915050565b7f52616365206d7573742074616b6520706c61636520696e2074686520667574755f8201527f7265000000000000000000000000000000000000000000000000000000000000602082015250565b5f62001d626022836200173e565b915062001d6f8262001d06565b604082019050919050565b5f6020820190508181035f83015262001d938162001d54565b9050919050565b7f5261636520616c726561647920657869737473000000000000000000000000005f82015250565b5f62001dd06013836200173e565b915062001ddd8262001d9a565b602082019050919050565b5f6020820190508181035f83015262001e018162001dc2565b9050919050565b6002811062001e1c5762001e1b62001918565b5b50565b5f81905062001e2e8262001e08565b919050565b5f62001e3f8262001e1f565b9050919050565b62001e518162001e33565b82525050565b5f60a08201905062001e6c5f83018862001488565b62001e7b602083018762001e46565b62001e8a604083018662001488565b62001e99606083018562001488565b62001ea8608083018462001488565b9695505050505050565b7f42657420616d6f756e74206d75737420626520657175616c206f72206c6573735f8201527f207468616e2073656e7420616d6f756e74000000000000000000000000000000602082015250565b5f62001f0e6031836200173e565b915062001f1b8262001eb2565b604082019050919050565b5f6020820190508181035f83015262001f3f8162001f00565b9050919050565b62001f518162001664565b82525050565b6003811062001f6b5762001f6a62001918565b5b50565b5f81905062001f7d8262001f57565b919050565b5f62001f8e8262001f6e565b9050919050565b62001fa08162001f82565b82525050565b5f60c08201905062001fbb5f83018962001488565b62001fca602083018862001f46565b62001fd9604083018762001f95565b62001fe8606083018662001e46565b62001ff7608083018562001488565b6200200660a083018462001488565b979650505050505050565b7f4e487b71000000000000000000000000000000000000000000000000000000005f52604160045260245ffd5b5f819050919050565b6200205c6200205682620013db565b6200203e565b82525050565b5f6200206f828562002047565b60208201915062002081828462002047565b6020820191508190509392505050565b5f6200209d82620013db565b9150620020aa83620013db565b9250828203905081811115620020c557620020c4620019af565b5b92915050565b5f819050919050565b5f819050919050565b620020f2620020ec82620020cb565b620020d4565b82525050565b5f62002105828662002047565b602082019150620021178285620020dd565b60208201915062002129828462002047565b602082019150819050949350505050565b5f6200214682620013db565b91506200215383620013db565b92508262002166576200216562001ca2565b5b828206905092915050565b5f80fd5b5f601f19601f8301169050919050565b620021908262002175565b810181811067ffffffffffffffff82111715620021b257620021b162002011565b5b80604052505050565b5f620021c6620013ca565b9050620021d4828262002185565b919050565b5f67ffffffffffffffff821115620021f657620021f562002011565b5b602082029050602081019050919050565b5f80fd5b5f620022216200221b84620021d9565b620021bb565b9050808382526020820190506020840283018581111562002247576200224662002207565b5b835b818110156200227457806200225f8882620017e9565b84526020840193505060208101905062002249565b5050509392505050565b5f82601f83011262002295576200229462002171565b5b8151620022a78482602086016200220b565b91505092915050565b5f60208284031215620022c857620022c7620013d3565b5b5f82015167ffffffffffffffff811115620022e857620022e7620013d7565b5b620022f6848285016200227e565b91505092915050565b5f6200230b8262001664565b9050919050565b6200231d81620022ff565b811462002328575f80fd5b50565b5f815190506200233b8162002312565b92915050565b5f60208284031215620023595762002358620013d3565b5b5f62002368848285016200232b565b91505092915050565b5f81519050620023818162001677565b92915050565b5f602082840312156200239f576200239e620013d3565b5b5f620023ae8482850162002371565b91505092915050565b5f606082019050620023cc5f83018662001f46565b620023db602083018562001f46565b620023ea604083018462001488565b949350505050565b5f8115159050919050565b6200240881620023f2565b811462002413575f80fd5b50565b5f815190506200242681620023fd565b92915050565b5f60208284031215620024445762002443620013d3565b5b5f620024538482850162002416565b91505092915050565b7f546f6b656e207472616e73666572206661696c656400000000000000000000005f82015250565b5f620024926015836200173e565b91506200249f826200245c565b602082019050919050565b5f6020820190508181035f830152620024c38162002484565b905091905056fe608060405234801562000010575f80fd5b5060405162000af038038062000af083398181016040528101906200003691906200012a565b335f806101000a81548173ffffffffffffffffffffffffffffffffffffffff021916908373ffffffffffffffffffffffffffffffffffffffff160217905550846001819055508360025f6101000a81548160ff02191690836001811115620000a357620000a2620001ae565b5b02179055508260038190555081600481905550806008819055505050505050620001db565b5f80fd5b5f819050919050565b620000e081620000cc565b8114620000eb575f80fd5b50565b5f81519050620000fe81620000d5565b92915050565b6002811062000111575f80fd5b50565b5f81519050620001248162000104565b92915050565b5f805f805f60a08688031215620001465762000145620000c8565b5b5f6200015588828901620000ee565b9550506020620001688882890162000114565b94505060406200017b88828901620000ee565b93505060606200018e88828901620000ee565b9250506080620001a188828901620000ee565b9150509295509295909350565b7f4e487b71000000000000000000000000000000000000000000000000000000005f52602160045260245ffd5b61090780620001e95f395ff3fe608060405234801561000f575f80fd5b50600436106100e8575f3560e01c80639bf270631161008a578063c972e06311610064578063c972e0631461023a578063cb44cdff1461026a578063df15c37e14610286578063ed3a865e146102a4576100e8565b80639bf27063146101d0578063a2fb1175146101ee578063aa608d4b1461021e576100e8565b8063516f279e116100c6578063516f279e1461015857806378e97925146101765780638da5cb5b1461019457806390adec6f146101b2576100e8565b80633197cbb6146100ec57806335c1d3491461010a57806343bddf401461013a575b5f80fd5b6100f46102c2565b6040516101019190610500565b60405180910390f35b610124600480360381019061011f9190610554565b6102c8565b60405161013191906105be565b60405180910390f35b610142610303565b60405161014f9190610500565b60405180910390f35b610160610309565b60405161016d919061064a565b60405180910390f35b61017e61031b565b60405161018b9190610500565b60405180910390f35b61019c610321565b6040516101a991906105be565b60405180910390f35b6101ba610344565b6040516101c79190610500565b60405180910390f35b6101d861034d565b6040516101e5919061071a565b60405180910390f35b61020860048036038101906102039190610554565b6103a3565b6040516102159190610500565b60405180910390f35b61023860048036038101906102339190610554565b6103c3565b005b610254600480360381019061024f9190610554565b6103ec565b6040516102619190610500565b60405180910390f35b610284600480360381019061027f919061088a565b61040c565b005b61028e610426565b60405161029b919061071a565b60405180910390f35b6102ac61047c565b6040516102b99190610500565b60405180910390f35b60045481565b600581815481106102d7575f80fd5b905f5260205f20015f915054906101000a900473ffffffffffffffffffffffffffffffffffffffff1681565b60085481565b60025f9054906101000a900460ff1681565b60035481565b5f8054906101000a900473ffffffffffffffffffffffffffffffffffffffff1681565b5f600854905090565b6060600780548060200260200160405190810160405280929190818152602001828054801561039957602002820191905f5260205f20905b815481526020019060010190808311610385575b5050505050905090565b600681815481106103b2575f80fd5b905f5260205f20015f915090505481565b600781908060018154018082558091505060019003905f5260205f20015f909190919091505550565b600781815481106103fb575f80fd5b905f5260205f20015f915090505481565b8060069080519060200190610422929190610482565b5050565b6060600680548060200260200160405190810160405280929190818152602001828054801561047257602002820191905f5260205f20905b81548152602001906001019080831161045e575b5050505050905090565b60015481565b828054828255905f5260205f209081019282156104bc579160200282015b828111156104bb5782518255916020019190600101906104a0565b5b5090506104c991906104cd565b5090565b5b808211156104e4575f815f9055506001016104ce565b5090565b5f819050919050565b6104fa816104e8565b82525050565b5f6020820190506105135f8301846104f1565b92915050565b5f604051905090565b5f80fd5b5f80fd5b610533816104e8565b811461053d575f80fd5b50565b5f8135905061054e8161052a565b92915050565b5f6020828403121561056957610568610522565b5b5f61057684828501610540565b91505092915050565b5f73ffffffffffffffffffffffffffffffffffffffff82169050919050565b5f6105a88261057f565b9050919050565b6105b88161059e565b82525050565b5f6020820190506105d15f8301846105af565b92915050565b7f4e487b71000000000000000000000000000000000000000000000000000000005f52602160045260245ffd5b60028110610615576106146105d7565b5b50565b5f81905061062582610604565b919050565b5f61063482610618565b9050919050565b6106448161062a565b82525050565b5f60208201905061065d5f83018461063b565b92915050565b5f81519050919050565b5f82825260208201905092915050565b5f819050602082019050919050565b610695816104e8565b82525050565b5f6106a6838361068c565b60208301905092915050565b5f602082019050919050565b5f6106c882610663565b6106d2818561066d565b93506106dd8361067d565b805f5b8381101561070d5781516106f4888261069b565b97506106ff836106b2565b9250506001810190506106e0565b5085935050505092915050565b5f6020820190508181035f83015261073281846106be565b905092915050565b5f80fd5b5f601f19601f8301169050919050565b7f4e487b71000000000000000000000000000000000000000000000000000000005f52604160045260245ffd5b6107848261073e565b810181811067ffffffffffffffff821117156107a3576107a261074e565b5b80604052505050565b5f6107b5610519565b90506107c1828261077b565b919050565b5f67ffffffffffffffff8211156107e0576107df61074e565b5b602082029050602081019050919050565b5f80fd5b5f610807610802846107c6565b6107ac565b9050808382526020820190506020840283018581111561082a576108296107f1565b5b835b81811015610853578061083f8882610540565b84526020840193505060208101905061082c565b5050509392505050565b5f82601f8301126108715761087061073a565b5b81356108818482602086016107f5565b91505092915050565b5f6020828403121561089f5761089e610522565b5b5f82013567ffffffffffffffff8111156108bc576108bb610526565b5b6108c88482850161085d565b9150509291505056fea2646970667358221220f570cfc7b9ac7a95ce8be239d43a2dc05a470c6df8cfef21418f4a53cdf4faa064736f6c63430008150033608060405234801562000010575f80fd5b50604051620009fc380380620009fc833981810160405281019062000036919062000280565b855f819055508060028190555082600360146101000a81548160ff021916908360018111156200006b576200006a62000318565b5b021790555060038060156101000a81548160ff0219169083600381111562000098576200009762000318565b5b02179055508360045f3373ffffffffffffffffffffffffffffffffffffffff1673ffffffffffffffffffffffffffffffffffffffff1681526020019081526020015f205f6101000a81548160ff02191690836002811115620000ff57620000fe62000318565b5b0217905550816001819055508460035f6101000a81548173ffffffffffffffffffffffffffffffffffffffff021916908373ffffffffffffffffffffffffffffffffffffffff1602179055508460055f6101000a81548173ffffffffffffffffffffffffffffffffffffffff021916908373ffffffffffffffffffffffffffffffffffffffff16021790555050505050505062000345565b5f80fd5b5f819050919050565b620001af816200019b565b8114620001ba575f80fd5b50565b5f81519050620001cd81620001a4565b92915050565b5f73ffffffffffffffffffffffffffffffffffffffff82169050919050565b5f620001fe82620001d3565b9050919050565b6200021081620001f2565b81146200021b575f80fd5b50565b5f815190506200022e8162000205565b92915050565b6003811062000241575f80fd5b50565b5f81519050620002548162000234565b92915050565b6002811062000267575f80fd5b50565b5f815190506200027a816200025a565b92915050565b5f805f805f8060c087890312156200029d576200029c62000197565b5b5f620002ac89828a01620001bd565b9650506020620002bf89828a016200021e565b9550506040620002d289828a0162000244565b9450506060620002e589828a016200026a565b9350506080620002f889828a01620001bd565b92505060a06200030b89828a01620001bd565b9150509295509295509295565b7f4e487b71000000000000000000000000000000000000000000000000000000005f52602160045260245ffd5b6106a980620003535f395ff3fe608060405234801561000f575f80fd5b50600436106100cd575f3560e01c8063aa8c217c1161008a578063d321fe2911610064578063d321fe29146101f1578063ed3a865e1461020f578063f43c0eca1461022d578063fc0c546a14610249576100cd565b8063aa8c217c14610197578063bfb3047f146101b5578063c41a0c60146101d3576100cd565b806310fe9ae8146100d157806321df0da7146100ef5780633f3a279d1461010d5780634e92a6461461012b578063516f279e1461015b578063a1b9182a14610179575b5f80fd5b6100d9610267565b6040516100e691906103c4565b60405180910390f35b6100f761028f565b6040516101049190610438565b60405180910390f35b6101156102b7565b60405161012291906104c4565b60405180910390f35b6101456004803603810190610140919061050b565b6102cd565b604051610152919061057c565b60405180910390f35b6101636102ea565b60405161017091906105db565b60405180910390f35b6101816102fd565b60405161018e919061060c565b60405180910390f35b61019f610306565b6040516101ac919061060c565b60405180910390f35b6101bd61030c565b6040516101ca91906104c4565b60405180910390f35b6101db61031f565b6040516101e8919061060c565b60405180910390f35b6101f9610325565b604051610206919061060c565b60405180910390f35b61021761032e565b604051610224919061060c565b60405180910390f35b61024760048036038101906102429190610648565b610333565b005b610251610360565b60405161025e9190610438565b60405180910390f35b5f60035f9054906101000a900473ffffffffffffffffffffffffffffffffffffffff16905090565b5f60055f9054906101000a900473ffffffffffffffffffffffffffffffffffffffff16905090565b5f600360159054906101000a900460ff16905090565b6004602052805f5260405f205f915054906101000a900460ff1681565b600360149054906101000a900460ff1681565b5f600254905090565b60015481565b600360159054906101000a900460ff1681565b60025481565b5f600154905090565b5f5481565b80600360156101000a81548160ff0219169083600381111561035857610357610451565b5b021790555050565b60055f9054906101000a900473ffffffffffffffffffffffffffffffffffffffff1681565b5f73ffffffffffffffffffffffffffffffffffffffff82169050919050565b5f6103ae82610385565b9050919050565b6103be816103a4565b82525050565b5f6020820190506103d75f8301846103b5565b92915050565b5f819050919050565b5f6104006103fb6103f684610385565b6103dd565b610385565b9050919050565b5f610411826103e6565b9050919050565b5f61042282610407565b9050919050565b61043281610418565b82525050565b5f60208201905061044b5f830184610429565b92915050565b7f4e487b71000000000000000000000000000000000000000000000000000000005f52602160045260245ffd5b6004811061048f5761048e610451565b5b50565b5f81905061049f8261047e565b919050565b5f6104ae82610492565b9050919050565b6104be816104a4565b82525050565b5f6020820190506104d75f8301846104b5565b92915050565b5f80fd5b6104ea816103a4565b81146104f4575f80fd5b50565b5f81359050610505816104e1565b92915050565b5f602082840312156105205761051f6104dd565b5b5f61052d848285016104f7565b91505092915050565b6003811061054757610546610451565b5b50565b5f81905061055782610536565b919050565b5f6105668261054a565b9050919050565b6105768161055c565b82525050565b5f60208201905061058f5f83018461056d565b92915050565b600281106105a6576105a5610451565b5b50565b5f8190506105b682610595565b919050565b5f6105c5826105a9565b9050919050565b6105d5816105bb565b82525050565b5f6020820190506105ee5f8301846105cc565b92915050565b5f819050919050565b610606816105f4565b82525050565b5f60208201905061061f5f8301846105fd565b92915050565b60048110610631575f80fd5b50565b5f8135905061064281610625565b92915050565b5f6020828403121561065d5761065c6104dd565b5b5f61066a84828501610634565b9150509291505056fea264697066735822122046474d06f275fb18049779c48ce825bb7bba6cd048bf7e4d8b790655927e4d9764736f6c63430008150033a264697066735822122041bbd9d4e47e26cf119f0c0baa85967ef14c677b2a88db096fb0d73356f5afa364736f6c63430008150033",
			"opcodes": "PUSH1 0x80 PUSH1 0x40 MSTORE PUSH0 PUSH1 0x2 SSTORE CALLVALUE DUP1 ISZERO PUSH2 0x13 JUMPI PUSH0 DUP1 REVERT JUMPDEST POP PUSH2 0x39EC DUP1 PUSH2 0x21 PUSH0 CODECOPY PUSH0 RETURN INVALID PUSH1 0x80 PUSH1 0x40 MSTORE PUSH1 0x4 CALLDATASIZE LT PUSH3 0xD3 JUMPI PUSH0 CALLDATALOAD PUSH1 0xE0 SHR DUP1 PUSH4 0x463407FD GT PUSH3 0x8A JUMPI DUP1 PUSH4 0x7ED14A2C GT PUSH3 0x60 JUMPI DUP1 PUSH4 0x7ED14A2C EQ PUSH3 0x2D1 JUMPI DUP1 PUSH4 0xC04F01FC EQ PUSH3 0x2F1 JUMPI DUP1 PUSH4 0xF85FC0AB EQ PUSH3 0x334 JUMPI DUP1 PUSH4 0xF88E9FBF EQ PUSH3 0x363 JUMPI PUSH3 0xD3 JUMP JUMPDEST DUP1 PUSH4 0x463407FD EQ PUSH3 0x232 JUMPI DUP1 PUSH4 0x51B0BE77 EQ PUSH3 0x261 JUMPI DUP1 PUSH4 0x7BBC469E EQ PUSH3 0x28E JUMPI PUSH3 0xD3 JUMP JUMPDEST DUP1 PUSH4 0x114DB12F EQ PUSH3 0xD7 JUMPI DUP1 PUSH4 0x165C4A16 EQ PUSH3 0xF7 JUMPI DUP1 PUSH4 0x22AF00FA EQ PUSH3 0x13A JUMPI DUP1 PUSH4 0x231E5A07 EQ PUSH3 0x17D JUMPI DUP1 PUSH4 0x2E0F2625 EQ PUSH3 0x1C0 JUMPI DUP1 PUSH4 0x3E5FCD04 EQ PUSH3 0x1EF JUMPI JUMPDEST PUSH0 DUP1 REVERT JUMPDEST PUSH3 0xF5 PUSH1 0x4 DUP1 CALLDATASIZE SUB DUP2 ADD SWAP1 PUSH3 0xEF SWAP2 SWAP1 PUSH3 0x1413 JUMP JUMPDEST PUSH3 0x3A6 JUMP JUMPDEST STOP JUMPDEST CALLVALUE DUP1 ISZERO PUSH3 0x103 JUMPI PUSH0 DUP1 REVERT JUMPDEST POP PUSH3 0x122 PUSH1 0x4 DUP1 CALLDATASIZE SUB DUP2 ADD SWAP1 PUSH3 0x11C SWAP2 SWAP1 PUSH3 0x1443 JUMP JUMPDEST PUSH3 0x94B JUMP JUMPDEST PUSH1 0x40 MLOAD PUSH3 0x131 SWAP2 SWAP1 PUSH3 0x1499 JUMP JUMPDEST PUSH1 0x40 MLOAD DUP1 SWAP2 SUB SWAP1 RETURN JUMPDEST CALLVALUE DUP1 ISZERO PUSH3 0x146 JUMPI PUSH0 DUP1 REVERT JUMPDEST POP PUSH3 0x165 PUSH1 0x4 DUP1 CALLDATASIZE SUB DUP2 ADD SWAP1 PUSH3 0x15F SWAP2 SWAP1 PUSH3 0x1413 JUMP JUMPDEST PUSH3 0x97E JUMP JUMPDEST PUSH1 0x40 MLOAD PUSH3 0x174 SWAP2 SWAP1 PUSH3 0x153A JUMP JUMPDEST PUSH1 0x40 MLOAD DUP1 SWAP2 SUB SWAP1 RETURN JUMPDEST CALLVALUE DUP1 ISZERO PUSH3 0x189 JUMPI PUSH0 DUP1 REVERT JUMPDEST POP PUSH3 0x1A8 PUSH1 0x4 DUP1 CALLDATASIZE SUB DUP2 ADD SWAP1 PUSH3 0x1A2 SWAP2 SWAP1 PUSH3 0x1443 JUMP JUMPDEST PUSH3 0x9BA JUMP JUMPDEST PUSH1 0x40 MLOAD PUSH3 0x1B7 SWAP2 SWAP1 PUSH3 0x1499 JUMP JUMPDEST PUSH1 0x40 MLOAD DUP1 SWAP2 SUB SWAP1 RETURN JUMPDEST CALLVALUE DUP1 ISZERO PUSH3 0x1CC JUMPI PUSH0 DUP1 REVERT JUMPDEST POP PUSH3 0x1D7 PUSH3 0x9E6 JUMP JUMPDEST PUSH1 0x40 MLOAD PUSH3 0x1E6 SWAP2 SWAP1 PUSH3 0x1499 JUMP JUMPDEST PUSH1 0x40 MLOAD DUP1 SWAP2 SUB SWAP1 RETURN JUMPDEST CALLVALUE DUP1 ISZERO PUSH3 0x1FB JUMPI PUSH0 DUP1 REVERT JUMPDEST POP PUSH3 0x21A PUSH1 0x4 DUP1 CALLDATASIZE SUB DUP2 ADD SWAP1 PUSH3 0x214 SWAP2 SWAP1 PUSH3 0x1413 JUMP JUMPDEST PUSH3 0x9EB JUMP JUMPDEST PUSH1 0x40 MLOAD PUSH3 0x229 SWAP2 SWAP1 PUSH3 0x1499 JUMP JUMPDEST PUSH1 0x40 MLOAD DUP1 SWAP2 SUB SWAP1 RETURN JUMPDEST CALLVALUE DUP1 ISZERO PUSH3 0x23E JUMPI PUSH0 DUP1 REVERT JUMPDEST POP PUSH3 0x249 PUSH3 0xA00 JUMP JUMPDEST PUSH1 0x40 MLOAD PUSH3 0x258 SWAP2 SWAP1 PUSH3 0x1499 JUMP JUMPDEST PUSH1 0x40 MLOAD DUP1 SWAP2 SUB SWAP1 RETURN JUMPDEST CALLVALUE DUP1 ISZERO PUSH3 0x26D JUMPI PUSH0 DUP1 REVERT JUMPDEST POP PUSH3 0x28C PUSH1 0x4 DUP1 CALLDATASIZE SUB DUP2 ADD SWAP1 PUSH3 0x286 SWAP2 SWAP1 PUSH3 0x157B JUMP JUMPDEST PUSH3 0xA06 JUMP JUMPDEST STOP JUMPDEST CALLVALUE DUP1 ISZERO PUSH3 0x29A JUMPI PUSH0 DUP1 REVERT JUMPDEST POP PUSH3 0x2B9 PUSH1 0x4 DUP1 CALLDATASIZE SUB DUP2 ADD SWAP1 PUSH3 0x2B3 SWAP2 SWAP1 PUSH3 0x1413 JUMP JUMPDEST PUSH3 0xB49 JUMP JUMPDEST PUSH1 0x40 MLOAD PUSH3 0x2C8 SWAP2 SWAP1 PUSH3 0x1623 JUMP JUMPDEST PUSH1 0x40 MLOAD DUP1 SWAP2 SUB SWAP1 RETURN JUMPDEST PUSH3 0x2EF PUSH1 0x4 DUP1 CALLDATASIZE SUB DUP2 ADD SWAP1 PUSH3 0x2E9 SWAP2 SWAP1 PUSH3 0x16A6 JUMP JUMPDEST PUSH3 0xB84 JUMP JUMPDEST STOP JUMPDEST CALLVALUE DUP1 ISZERO PUSH3 0x2FD JUMPI PUSH0 DUP1 REVERT JUMPDEST POP PUSH3 0x31C PUSH1 0x4 DUP1 CALLDATASIZE SUB DUP2 ADD SWAP1 PUSH3 0x316 SWAP2 SWAP1 PUSH3 0x1443 JUMP JUMPDEST PUSH3 0xD14 JUMP JUMPDEST PUSH1 0x40 MLOAD PUSH3 0x32B SWAP2 SWAP1 PUSH3 0x1499 JUMP JUMPDEST PUSH1 0x40 MLOAD DUP1 SWAP2 SUB SWAP1 RETURN JUMPDEST CALLVALUE DUP1 ISZERO PUSH3 0x340 JUMPI PUSH0 DUP1 REVERT JUMPDEST POP PUSH3 0x34B PUSH3 0xD56 JUMP JUMPDEST PUSH1 0x40 MLOAD PUSH3 0x35A SWAP2 SWAP1 PUSH3 0x1499 JUMP JUMPDEST PUSH1 0x40 MLOAD DUP1 SWAP2 SUB SWAP1 RETURN JUMPDEST CALLVALUE DUP1 ISZERO PUSH3 0x36F JUMPI PUSH0 DUP1 REVERT JUMPDEST POP PUSH3 0x38E PUSH1 0x4 DUP1 CALLDATASIZE SUB DUP2 ADD SWAP1 PUSH3 0x388 SWAP2 SWAP1 PUSH3 0x1443 JUMP JUMPDEST PUSH3 0xD5B JUMP JUMPDEST PUSH1 0x40 MLOAD PUSH3 0x39D SWAP2 SWAP1 PUSH3 0x1499 JUMP JUMPDEST PUSH1 0x40 MLOAD DUP1 SWAP2 SUB SWAP1 RETURN JUMPDEST PUSH0 DUP1 SLOAD SWAP1 POP DUP2 LT PUSH3 0x3EF JUMPI PUSH1 0x40 MLOAD PUSH32 0x8C379A000000000000000000000000000000000000000000000000000000000 DUP2 MSTORE PUSH1 0x4 ADD PUSH3 0x3E6 SWAP1 PUSH3 0x179C JUMP JUMPDEST PUSH1 0x40 MLOAD DUP1 SWAP2 SUB SWAP1 REVERT JUMPDEST PUSH0 DUP1 DUP3 DUP2 SLOAD DUP2 LT PUSH3 0x406 JUMPI PUSH3 0x405 PUSH3 0x17BC JUMP JUMPDEST JUMPDEST SWAP1 PUSH0 MSTORE PUSH1 0x20 PUSH0 KECCAK256 ADD PUSH0 SWAP1 SLOAD SWAP1 PUSH2 0x100 EXP SWAP1 DIV PUSH20 0xFFFFFFFFFFFFFFFFFFFFFFFFFFFFFFFFFFFFFFFF AND SWAP1 POP PUSH0 PUSH3 0x4AB DUP3 PUSH20 0xFFFFFFFFFFFFFFFFFFFFFFFFFFFFFFFFFFFFFFFF AND PUSH4 0x90ADEC6F PUSH1 0x40 MLOAD DUP2 PUSH4 0xFFFFFFFF AND PUSH1 0xE0 SHL DUP2 MSTORE PUSH1 0x4 ADD PUSH1 0x20 PUSH1 0x40 MLOAD DUP1 DUP4 SUB DUP2 DUP7 GAS STATICCALL ISZERO DUP1 ISZERO PUSH3 0x47F JUMPI RETURNDATASIZE PUSH0 DUP1 RETURNDATACOPY RETURNDATASIZE PUSH0 REVERT JUMPDEST POP POP POP POP PUSH1 0x40 MLOAD RETURNDATASIZE PUSH1 0x1F NOT PUSH1 0x1F DUP3 ADD AND DUP3 ADD DUP1 PUSH1 0x40 MSTORE POP DUP2 ADD SWAP1 PUSH3 0x4A5 SWAP2 SWAP1 PUSH3 0x17FF JUMP JUMPDEST PUSH3 0xD8E JUMP JUMPDEST SWAP1 POP DUP2 PUSH20 0xFFFFFFFFFFFFFFFFFFFFFFFFFFFFFFFFFFFFFFFF AND PUSH4 0xCB44CDFF DUP3 PUSH1 0x40 MLOAD DUP3 PUSH4 0xFFFFFFFF AND PUSH1 0xE0 SHL DUP2 MSTORE PUSH1 0x4 ADD PUSH3 0x4E8 SWAP2 SWAP1 PUSH3 0x18F6 JUMP JUMPDEST PUSH0 PUSH1 0x40 MLOAD DUP1 DUP4 SUB DUP2 PUSH0 DUP8 DUP1 EXTCODESIZE ISZERO DUP1 ISZERO PUSH3 0x500 JUMPI PUSH0 DUP1 REVERT JUMPDEST POP GAS CALL ISZERO DUP1 ISZERO PUSH3 0x513 JUMPI RETURNDATASIZE PUSH0 DUP1 RETURNDATACOPY RETURNDATASIZE PUSH0 REVERT JUMPDEST POP POP POP POP PUSH0 PUSH1 0x4 PUSH0 DUP6 DUP2 MSTORE PUSH1 0x20 ADD SWAP1 DUP2 MSTORE PUSH1 0x20 ADD PUSH0 KECCAK256 DUP1 SLOAD DUP1 PUSH1 0x20 MUL PUSH1 0x20 ADD PUSH1 0x40 MLOAD SWAP1 DUP2 ADD PUSH1 0x40 MSTORE DUP1 SWAP3 SWAP2 SWAP1 DUP2 DUP2 MSTORE PUSH1 0x20 ADD DUP3 DUP1 SLOAD DUP1 ISZERO PUSH3 0x573 JUMPI PUSH1 0x20 MUL DUP3 ADD SWAP2 SWAP1 PUSH0 MSTORE PUSH1 0x20 PUSH0 KECCAK256 SWAP1 JUMPDEST DUP2 SLOAD DUP2 MSTORE PUSH1 0x20 ADD SWAP1 PUSH1 0x1 ADD SWAP1 DUP1 DUP4 GT PUSH3 0x55E JUMPI JUMPDEST POP POP POP POP POP SWAP1 POP PUSH0 DUP1 JUMPDEST DUP3 MLOAD DUP2 LT ISZERO PUSH3 0x937 JUMPI PUSH0 PUSH1 0x1 DUP5 DUP4 DUP2 MLOAD DUP2 LT PUSH3 0x5A0 JUMPI PUSH3 0x59F PUSH3 0x17BC JUMP JUMPDEST JUMPDEST PUSH1 0x20 MUL PUSH1 0x20 ADD ADD MLOAD DUP2 SLOAD DUP2 LT PUSH3 0x5BC JUMPI PUSH3 0x5BB PUSH3 0x17BC JUMP JUMPDEST JUMPDEST SWAP1 PUSH0 MSTORE PUSH1 0x20 PUSH0 KECCAK256 ADD PUSH0 SWAP1 SLOAD SWAP1 PUSH2 0x100 EXP SWAP1 DIV PUSH20 0xFFFFFFFFFFFFFFFFFFFFFFFFFFFFFFFFFFFFFFFF AND SWAP1 POP PUSH0 JUMPDEST DUP6 MLOAD DUP2 LT ISZERO PUSH3 0x793 JUMPI DUP2 PUSH20 0xFFFFFFFFFFFFFFFFFFFFFFFFFFFFFFFFFFFFFFFF AND PUSH4 0xA1B9182A PUSH1 0x40 MLOAD DUP2 PUSH4 0xFFFFFFFF AND PUSH1 0xE0 SHL DUP2 MSTORE PUSH1 0x4 ADD PUSH1 0x20 PUSH1 0x40 MLOAD DUP1 DUP4 SUB DUP2 DUP7 GAS STATICCALL ISZERO DUP1 ISZERO PUSH3 0x63C JUMPI RETURNDATASIZE PUSH0 DUP1 RETURNDATACOPY RETURNDATASIZE PUSH0 REVERT JUMPDEST POP POP POP POP PUSH1 0x40 MLOAD RETURNDATASIZE PUSH1 0x1F NOT PUSH1 0x1F DUP3 ADD AND DUP3 ADD DUP1 PUSH1 0x40 MSTORE POP DUP2 ADD SWAP1 PUSH3 0x662 SWAP2 SWAP1 PUSH3 0x17FF JUMP JUMPDEST DUP7 DUP3 DUP2 MLOAD DUP2 LT PUSH3 0x678 JUMPI PUSH3 0x677 PUSH3 0x17BC JUMP JUMPDEST JUMPDEST PUSH1 0x20 MUL PUSH1 0x20 ADD ADD MLOAD SUB PUSH3 0x77D JUMPI DUP2 PUSH20 0xFFFFFFFFFFFFFFFFFFFFFFFFFFFFFFFFFFFFFFFF AND PUSH4 0xF43C0ECA PUSH0 PUSH1 0x40 MLOAD DUP3 PUSH4 0xFFFFFFFF AND PUSH1 0xE0 SHL DUP2 MSTORE PUSH1 0x4 ADD PUSH3 0x6C1 SWAP2 SWAP1 PUSH3 0x1994 JUMP JUMPDEST PUSH0 PUSH1 0x40 MLOAD DUP1 DUP4 SUB DUP2 PUSH0 DUP8 DUP1 EXTCODESIZE ISZERO DUP1 ISZERO PUSH3 0x6D9 JUMPI PUSH0 DUP1 REVERT JUMPDEST POP GAS CALL ISZERO DUP1 ISZERO PUSH3 0x6EC JUMPI RETURNDATASIZE PUSH0 DUP1 RETURNDATACOPY RETURNDATASIZE PUSH0 REVERT JUMPDEST POP POP POP POP DUP7 PUSH20 0xFFFFFFFFFFFFFFFFFFFFFFFFFFFFFFFFFFFFFFFF AND PUSH4 0xAA608D4B DUP7 DUP6 DUP2 MLOAD DUP2 LT PUSH3 0x722 JUMPI PUSH3 0x721 PUSH3 0x17BC JUMP JUMPDEST JUMPDEST PUSH1 0x20 MUL PUSH1 0x20 ADD ADD MLOAD PUSH1 0x40 MLOAD DUP3 PUSH4 0xFFFFFFFF AND PUSH1 0xE0 SHL DUP2 MSTORE PUSH1 0x4 ADD PUSH3 0x748 SWAP2 SWAP1 PUSH3 0x1499 JUMP JUMPDEST PUSH0 PUSH1 0x40 MLOAD DUP1 DUP4 SUB DUP2 PUSH0 DUP8 DUP1 EXTCODESIZE ISZERO DUP1 ISZERO PUSH3 0x760 JUMPI PUSH0 DUP1 REVERT JUMPDEST POP GAS CALL ISZERO DUP1 ISZERO PUSH3 0x773 JUMPI RETURNDATASIZE PUSH0 DUP1 RETURNDATACOPY RETURNDATASIZE PUSH0 REVERT JUMPDEST POP POP POP POP PUSH3 0x793 JUMP JUMPDEST DUP1 DUP1 PUSH3 0x78A SWAP1 PUSH3 0x19DC JUMP JUMPDEST SWAP2 POP POP PUSH3 0x5E8 JUMP JUMPDEST POP PUSH1 0x3 DUP1 DUP2 GT ISZERO PUSH3 0x7AA JUMPI PUSH3 0x7A9 PUSH3 0x1918 JUMP JUMPDEST JUMPDEST DUP2 PUSH20 0xFFFFFFFFFFFFFFFFFFFFFFFFFFFFFFFFFFFFFFFF AND PUSH4 0x3F3A279D PUSH1 0x40 MLOAD DUP2 PUSH4 0xFFFFFFFF AND PUSH1 0xE0 SHL DUP2 MSTORE PUSH1 0x4 ADD PUSH1 0x20 PUSH1 0x40 MLOAD DUP1 DUP4 SUB DUP2 DUP7 GAS STATICCALL ISZERO DUP1 ISZERO PUSH3 0x7F4 JUMPI RETURNDATASIZE PUSH0 DUP1 RETURNDATACOPY RETURNDATASIZE PUSH0 REVERT JUMPDEST POP POP POP POP PUSH1 0x40 MLOAD RETURNDATASIZE PUSH1 0x1F NOT PUSH1 0x1F DUP3 ADD AND DUP3 ADD DUP1 PUSH1 0x40 MSTORE POP DUP2 ADD SWAP1 PUSH3 0x81A SWAP2 SWAP1 PUSH3 0x1A4E JUMP JUMPDEST PUSH1 0x3 DUP2 GT ISZERO PUSH3 0x82F JUMPI PUSH3 0x82E PUSH3 0x1918 JUMP JUMPDEST JUMPDEST SUB PUSH3 0x920 JUMPI DUP1 PUSH20 0xFFFFFFFFFFFFFFFFFFFFFFFFFFFFFFFFFFFFFFFF AND PUSH4 0xF43C0ECA PUSH1 0x1 PUSH1 0x40 MLOAD DUP3 PUSH4 0xFFFFFFFF AND PUSH1 0xE0 SHL DUP2 MSTORE PUSH1 0x4 ADD PUSH3 0x871 SWAP2 SWAP1 PUSH3 0x1994 JUMP JUMPDEST PUSH0 PUSH1 0x40 MLOAD DUP1 DUP4 SUB DUP2 PUSH0 DUP8 DUP1 EXTCODESIZE ISZERO DUP1 ISZERO PUSH3 0x889 JUMPI PUSH0 DUP1 REVERT JUMPDEST POP GAS CALL ISZERO DUP1 ISZERO PUSH3 0x89C JUMPI RETURNDATASIZE PUSH0 DUP1 RETURNDATACOPY RETURNDATASIZE PUSH0 REVERT JUMPDEST POP POP POP POP DUP1 PUSH20 0xFFFFFFFFFFFFFFFFFFFFFFFFFFFFFFFFFFFFFFFF AND PUSH4 0xD321FE29 PUSH1 0x40 MLOAD DUP2 PUSH4 0xFFFFFFFF AND PUSH1 0xE0 SHL DUP2 MSTORE PUSH1 0x4 ADD PUSH1 0x20 PUSH1 0x40 MLOAD DUP1 DUP4 SUB DUP2 DUP7 GAS STATICCALL ISZERO DUP1 ISZERO PUSH3 0x8EA JUMPI RETURNDATASIZE PUSH0 DUP1 RETURNDATACOPY RETURNDATASIZE PUSH0 REVERT JUMPDEST POP POP POP POP PUSH1 0x40 MLOAD RETURNDATASIZE PUSH1 0x1F NOT PUSH1 0x1F DUP3 ADD AND DUP3 ADD DUP1 PUSH1 0x40 MSTORE POP DUP2 ADD SWAP1 PUSH3 0x910 SWAP2 SWAP1 PUSH3 0x17FF JUMP JUMPDEST DUP4 PUSH3 0x91D SWAP2 SWAP1 PUSH3 0x1A7E JUMP JUMPDEST SWAP3 POP JUMPDEST POP DUP1 DUP1 PUSH3 0x92E SWAP1 PUSH3 0x19DC JUMP JUMPDEST SWAP2 POP POP PUSH3 0x57D JUMP JUMPDEST POP PUSH3 0x944 DUP6 DUP3 PUSH3 0xEAC JUMP JUMPDEST POP POP POP POP POP JUMP JUMPDEST PUSH0 PUSH1 0x2 PUSH1 0xA PUSH3 0x95C SWAP2 SWAP1 PUSH3 0x1C08 JUMP JUMPDEST DUP3 DUP5 PUSH3 0x96A SWAP2 SWAP1 PUSH3 0x1C58 JUMP JUMPDEST PUSH3 0x976 SWAP2 SWAP1 PUSH3 0x1CCF JUMP JUMPDEST SWAP1 POP SWAP3 SWAP2 POP POP JUMP JUMPDEST PUSH1 0x1 DUP2 DUP2 SLOAD DUP2 LT PUSH3 0x98E JUMPI PUSH0 DUP1 REVERT JUMPDEST SWAP1 PUSH0 MSTORE PUSH1 0x20 PUSH0 KECCAK256 ADD PUSH0 SWAP2 POP SLOAD SWAP1 PUSH2 0x100 EXP SWAP1 DIV PUSH20 0xFFFFFFFFFFFFFFFFFFFFFFFFFFFFFFFFFFFFFFFF AND DUP2 JUMP JUMPDEST PUSH1 0x4 PUSH1 0x20 MSTORE DUP2 PUSH0 MSTORE PUSH1 0x40 PUSH0 KECCAK256 DUP2 DUP2 SLOAD DUP2 LT PUSH3 0x9D4 JUMPI PUSH0 DUP1 REVERT JUMPDEST SWAP1 PUSH0 MSTORE PUSH1 0x20 PUSH0 KECCAK256 ADD PUSH0 SWAP2 POP SWAP2 POP POP SLOAD DUP2 JUMP JUMPDEST PUSH1 0x2 DUP2 JUMP JUMPDEST PUSH1 0x3 PUSH1 0x20 MSTORE DUP1 PUSH0 MSTORE PUSH1 0x40 PUSH0 KECCAK256 PUSH0 SWAP2 POP SWAP1 POP SLOAD DUP2 JUMP JUMPDEST PUSH1 0x2 SLOAD DUP2 JUMP JUMPDEST TIMESTAMP DUP4 GT PUSH3 0xA4B JUMPI PUSH1 0x40 MLOAD PUSH32 0x8C379A000000000000000000000000000000000000000000000000000000000 DUP2 MSTORE PUSH1 0x4 ADD PUSH3 0xA42 SWAP1 PUSH3 0x1D7A JUMP JUMPDEST PUSH1 0x40 MLOAD DUP1 SWAP2 SUB SWAP1 REVERT JUMPDEST PUSH0 PUSH1 0x3 PUSH0 DUP8 DUP2 MSTORE PUSH1 0x20 ADD SWAP1 DUP2 MSTORE PUSH1 0x20 ADD PUSH0 KECCAK256 SLOAD SUB PUSH3 0xAA1 JUMPI PUSH1 0x40 MLOAD PUSH32 0x8C379A000000000000000000000000000000000000000000000000000000000 DUP2 MSTORE PUSH1 0x4 ADD PUSH3 0xA98 SWAP1 PUSH3 0x1DE8 JUMP JUMPDEST PUSH1 0x40 MLOAD DUP1 SWAP2 SUB SWAP1 REVERT JUMPDEST PUSH0 DUP6 DUP3 DUP6 DUP6 DUP9 PUSH1 0x40 MLOAD PUSH3 0xAB5 SWAP1 PUSH3 0x13AE JUMP JUMPDEST PUSH3 0xAC5 SWAP6 SWAP5 SWAP4 SWAP3 SWAP2 SWAP1 PUSH3 0x1E57 JUMP JUMPDEST PUSH1 0x40 MLOAD DUP1 SWAP2 SUB SWAP1 PUSH0 CREATE DUP1 ISZERO DUP1 ISZERO PUSH3 0xADF JUMPI RETURNDATASIZE PUSH0 DUP1 RETURNDATACOPY RETURNDATASIZE PUSH0 REVERT JUMPDEST POP SWAP1 POP PUSH0 DUP2 SWAP1 DUP1 PUSH1 0x1 DUP2 SLOAD ADD DUP1 DUP3 SSTORE DUP1 SWAP2 POP POP PUSH1 0x1 SWAP1 SUB SWAP1 PUSH0 MSTORE PUSH1 0x20 PUSH0 KECCAK256 ADD PUSH0 SWAP1 SWAP2 SWAP1 SWAP2 SWAP1 SWAP2 PUSH2 0x100 EXP DUP2 SLOAD DUP2 PUSH20 0xFFFFFFFFFFFFFFFFFFFFFFFFFFFFFFFFFFFFFFFF MUL NOT AND SWAP1 DUP4 PUSH20 0xFFFFFFFFFFFFFFFFFFFFFFFFFFFFFFFFFFFFFFFF AND MUL OR SWAP1 SSTORE POP POP POP POP POP POP POP JUMP JUMPDEST PUSH0 DUP2 DUP2 SLOAD DUP2 LT PUSH3 0xB58 JUMPI PUSH0 DUP1 REVERT JUMPDEST SWAP1 PUSH0 MSTORE PUSH1 0x20 PUSH0 KECCAK256 ADD PUSH0 SWAP2 POP SLOAD SWAP1 PUSH2 0x100 EXP SWAP1 DIV PUSH20 0xFFFFFFFFFFFFFFFFFFFFFFFFFFFFFFFFFFFFFFFF AND DUP2 JUMP JUMPDEST DUP4 CALLVALUE LT ISZERO PUSH3 0xBCA JUMPI PUSH1 0x40 MLOAD PUSH32 0x8C379A000000000000000000000000000000000000000000000000000000000 DUP2 MSTORE PUSH1 0x4 ADD PUSH3 0xBC1 SWAP1 PUSH3 0x1F26 JUMP JUMPDEST PUSH1 0x40 MLOAD DUP1 SWAP2 SUB SWAP1 REVERT JUMPDEST PUSH0 DUP1 SLOAD SWAP1 POP DUP7 LT PUSH3 0xC13 JUMPI PUSH1 0x40 MLOAD PUSH32 0x8C379A000000000000000000000000000000000000000000000000000000000 DUP2 MSTORE PUSH1 0x4 ADD PUSH3 0xC0A SWAP1 PUSH3 0x179C JUMP JUMPDEST PUSH1 0x40 MLOAD DUP1 SWAP2 SUB SWAP1 REVERT JUMPDEST PUSH1 0x2 PUSH0 DUP2 SLOAD DUP1 SWAP3 SWAP2 SWAP1 PUSH3 0xC27 SWAP1 PUSH3 0x19DC JUMP JUMPDEST SWAP2 SWAP1 POP SSTORE POP PUSH0 PUSH1 0x2 SLOAD SWAP1 POP PUSH1 0x4 PUSH0 DUP3 DUP2 MSTORE PUSH1 0x20 ADD SWAP1 DUP2 MSTORE PUSH1 0x20 ADD PUSH0 KECCAK256 DUP2 SWAP1 DUP1 PUSH1 0x1 DUP2 SLOAD ADD DUP1 DUP3 SSTORE DUP1 SWAP2 POP POP PUSH1 0x1 SWAP1 SUB SWAP1 PUSH0 MSTORE PUSH1 0x20 PUSH0 KECCAK256 ADD PUSH0 SWAP1 SWAP2 SWAP1 SWAP2 SWAP1 SWAP2 POP SSTORE PUSH0 DUP8 DUP4 DUP7 DUP7 DUP10 DUP12 PUSH1 0x40 MLOAD PUSH3 0xC7C SWAP1 PUSH3 0x13BC JUMP JUMPDEST PUSH3 0xC8D SWAP7 SWAP6 SWAP5 SWAP4 SWAP3 SWAP2 SWAP1 PUSH3 0x1FA6 JUMP JUMPDEST PUSH1 0x40 MLOAD DUP1 SWAP2 SUB SWAP1 PUSH0 CREATE DUP1 ISZERO DUP1 ISZERO PUSH3 0xCA7 JUMPI RETURNDATASIZE PUSH0 DUP1 RETURNDATACOPY RETURNDATASIZE PUSH0 REVERT JUMPDEST POP SWAP1 POP PUSH1 0x1 DUP2 SWAP1 DUP1 PUSH1 0x1 DUP2 SLOAD ADD DUP1 DUP3 SSTORE DUP1 SWAP2 POP POP PUSH1 0x1 SWAP1 SUB SWAP1 PUSH0 MSTORE PUSH1 0x20 PUSH0 KECCAK256 ADD PUSH0 SWAP1 SWAP2 SWAP1 SWAP2 SWAP1 SWAP2 PUSH2 0x100 EXP DUP2 SLOAD DUP2 PUSH20 0xFFFFFFFFFFFFFFFFFFFFFFFFFFFFFFFFFFFFFFFF MUL NOT AND SWAP1 DUP4 PUSH20 0xFFFFFFFFFFFFFFFFFFFFFFFFFFFFFFFFFFFFFFFF AND MUL OR SWAP1 SSTORE POP POP POP POP POP POP POP POP POP JUMP JUMPDEST PUSH0 DUP1 PUSH1 0x1 SWAP1 POP PUSH0 JUMPDEST DUP4 DUP2 LT ISZERO PUSH3 0xD4B JUMPI DUP5 DUP3 PUSH3 0xD33 SWAP2 SWAP1 PUSH3 0x1C58 JUMP JUMPDEST SWAP2 POP DUP1 DUP1 PUSH3 0xD42 SWAP1 PUSH3 0x19DC JUMP JUMPDEST SWAP2 POP POP PUSH3 0xD1C JUMP JUMPDEST POP DUP1 SWAP2 POP POP SWAP3 SWAP2 POP POP JUMP JUMPDEST PUSH1 0x64 DUP2 JUMP JUMPDEST PUSH0 DUP2 PUSH1 0x2 PUSH1 0xA PUSH3 0xD6D SWAP2 SWAP1 PUSH3 0x1C08 JUMP JUMPDEST DUP5 PUSH3 0xD7A SWAP2 SWAP1 PUSH3 0x1C58 JUMP JUMPDEST PUSH3 0xD86 SWAP2 SWAP1 PUSH3 0x1CCF JUMP JUMPDEST SWAP1 POP SWAP3 SWAP2 POP POP JUMP JUMPDEST PUSH1 0x60 PUSH0 DUP3 PUSH8 0xFFFFFFFFFFFFFFFF DUP2 GT ISZERO PUSH3 0xDAE JUMPI PUSH3 0xDAD PUSH3 0x2011 JUMP JUMPDEST JUMPDEST PUSH1 0x40 MLOAD SWAP1 DUP1 DUP3 MSTORE DUP1 PUSH1 0x20 MUL PUSH1 0x20 ADD DUP3 ADD PUSH1 0x40 MSTORE DUP1 ISZERO PUSH3 0xDDD JUMPI DUP2 PUSH1 0x20 ADD PUSH1 0x20 DUP3 MUL DUP1 CALLDATASIZE DUP4 CALLDATACOPY DUP1 DUP3 ADD SWAP2 POP POP SWAP1 POP JUMPDEST POP SWAP1 POP PUSH0 TIMESTAMP PREVRANDAO PUSH1 0x40 MLOAD PUSH1 0x20 ADD PUSH3 0xDF6 SWAP3 SWAP2 SWAP1 PUSH3 0x2062 JUMP JUMPDEST PUSH1 0x40 MLOAD PUSH1 0x20 DUP2 DUP4 SUB SUB DUP2 MSTORE SWAP1 PUSH1 0x40 MSTORE DUP1 MLOAD SWAP1 PUSH1 0x20 ADD KECCAK256 PUSH0 SHR SWAP1 POP PUSH0 JUMPDEST DUP5 DUP2 LT ISZERO PUSH3 0xEA1 JUMPI DUP2 PUSH1 0x1 NUMBER PUSH3 0xE2B SWAP2 SWAP1 PUSH3 0x2091 JUMP JUMPDEST BLOCKHASH DUP3 PUSH1 0x40 MLOAD PUSH1 0x20 ADD PUSH3 0xE41 SWAP4 SWAP3 SWAP2 SWAP1 PUSH3 0x20F8 JUMP JUMPDEST PUSH1 0x40 MLOAD PUSH1 0x20 DUP2 DUP4 SUB SUB DUP2 MSTORE SWAP1 PUSH1 0x40 MSTORE DUP1 MLOAD SWAP1 PUSH1 0x20 ADD KECCAK256 PUSH0 SHR SWAP2 POP DUP5 DUP3 PUSH3 0xE69 SWAP2 SWAP1 PUSH3 0x213A JUMP JUMPDEST DUP4 DUP3 DUP2 MLOAD DUP2 LT PUSH3 0xE7F JUMPI PUSH3 0xE7E PUSH3 0x17BC JUMP JUMPDEST JUMPDEST PUSH1 0x20 MUL PUSH1 0x20 ADD ADD DUP2 DUP2 MSTORE POP POP DUP1 DUP1 PUSH3 0xE98 SWAP1 PUSH3 0x19DC JUMP JUMPDEST SWAP2 POP POP PUSH3 0xE12 JUMP JUMPDEST POP DUP2 SWAP3 POP POP POP SWAP2 SWAP1 POP JUMP JUMPDEST PUSH0 DUP1 DUP4 DUP2 SLOAD DUP2 LT PUSH3 0xEC3 JUMPI PUSH3 0xEC2 PUSH3 0x17BC JUMP JUMPDEST JUMPDEST SWAP1 PUSH0 MSTORE PUSH1 0x20 PUSH0 KECCAK256 ADD PUSH0 SWAP1 SLOAD SWAP1 PUSH2 0x100 EXP SWAP1 DIV PUSH20 0xFFFFFFFFFFFFFFFFFFFFFFFFFFFFFFFFFFFFFFFF AND PUSH20 0xFFFFFFFFFFFFFFFFFFFFFFFFFFFFFFFFFFFFFFFF AND PUSH4 0xDF15C37E PUSH1 0x40 MLOAD DUP2 PUSH4 0xFFFFFFFF AND PUSH1 0xE0 SHL DUP2 MSTORE PUSH1 0x4 ADD PUSH0 PUSH1 0x40 MLOAD DUP1 DUP4 SUB DUP2 DUP7 GAS STATICCALL ISZERO DUP1 ISZERO PUSH3 0xF33 JUMPI RETURNDATASIZE PUSH0 DUP1 RETURNDATACOPY RETURNDATASIZE PUSH0 REVERT JUMPDEST POP POP POP POP PUSH1 0x40 MLOAD RETURNDATASIZE PUSH0 DUP3 RETURNDATACOPY RETURNDATASIZE PUSH1 0x1F NOT PUSH1 0x1F DUP3 ADD AND DUP3 ADD DUP1 PUSH1 0x40 MSTORE POP DUP2 ADD SWAP1 PUSH3 0xF5D SWAP2 SWAP1 PUSH3 0x22B0 JUMP JUMPDEST SWAP1 POP PUSH0 DUP1 DUP5 DUP2 SLOAD DUP2 LT PUSH3 0xF76 JUMPI PUSH3 0xF75 PUSH3 0x17BC JUMP JUMPDEST JUMPDEST SWAP1 PUSH0 MSTORE PUSH1 0x20 PUSH0 KECCAK256 ADD PUSH0 SWAP1 SLOAD SWAP1 PUSH2 0x100 EXP SWAP1 DIV PUSH20 0xFFFFFFFFFFFFFFFFFFFFFFFFFFFFFFFFFFFFFFFF AND PUSH20 0xFFFFFFFFFFFFFFFFFFFFFFFFFFFFFFFFFFFFFFFF AND PUSH4 0x9BF27063 PUSH1 0x40 MLOAD DUP2 PUSH4 0xFFFFFFFF AND PUSH1 0xE0 SHL DUP2 MSTORE PUSH1 0x4 ADD PUSH0 PUSH1 0x40 MLOAD DUP1 DUP4 SUB DUP2 DUP7 GAS STATICCALL ISZERO DUP1 ISZERO PUSH3 0xFE6 JUMPI RETURNDATASIZE PUSH0 DUP1 RETURNDATACOPY RETURNDATASIZE PUSH0 REVERT JUMPDEST POP POP POP POP PUSH1 0x40 MLOAD RETURNDATASIZE PUSH0 DUP3 RETURNDATACOPY RETURNDATASIZE PUSH1 0x1F NOT PUSH1 0x1F DUP3 ADD AND DUP3 ADD DUP1 PUSH1 0x40 MSTORE POP DUP2 ADD SWAP1 PUSH3 0x1010 SWAP2 SWAP1 PUSH3 0x22B0 JUMP JUMPDEST SWAP1 POP PUSH0 PUSH1 0x1 SWAP1 POP JUMPDEST DUP3 MLOAD DUP2 GT PUSH3 0x1381 JUMPI PUSH0 PUSH3 0x1038 PUSH3 0x1031 DUP4 PUSH3 0x1388 JUMP JUMPDEST DUP7 PUSH3 0x94B JUMP JUMPDEST SWAP1 POP PUSH0 JUMPDEST DUP4 MLOAD DUP2 LT ISZERO PUSH3 0x1369 JUMPI PUSH0 PUSH1 0x1 DUP6 DUP4 DUP2 MLOAD DUP2 LT PUSH3 0x105F JUMPI PUSH3 0x105E PUSH3 0x17BC JUMP JUMPDEST JUMPDEST PUSH1 0x20 MUL PUSH1 0x20 ADD ADD MLOAD DUP2 SLOAD DUP2 LT PUSH3 0x107B JUMPI PUSH3 0x107A PUSH3 0x17BC JUMP JUMPDEST JUMPDEST SWAP1 PUSH0 MSTORE PUSH1 0x20 PUSH0 KECCAK256 ADD PUSH0 SWAP1 SLOAD SWAP1 PUSH2 0x100 EXP SWAP1 DIV PUSH20 0xFFFFFFFFFFFFFFFFFFFFFFFFFFFFFFFFFFFFFFFF AND SWAP1 POP PUSH0 PUSH3 0x1121 DUP3 PUSH20 0xFFFFFFFFFFFFFFFFFFFFFFFFFFFFFFFFFFFFFFFF AND PUSH4 0xD321FE29 PUSH1 0x40 MLOAD DUP2 PUSH4 0xFFFFFFFF AND PUSH1 0xE0 SHL DUP2 MSTORE PUSH1 0x4 ADD PUSH1 0x20 PUSH1 0x40 MLOAD DUP1 DUP4 SUB DUP2 DUP7 GAS STATICCALL ISZERO DUP1 ISZERO PUSH3 0x10F4 JUMPI RETURNDATASIZE PUSH0 DUP1 RETURNDATACOPY RETURNDATASIZE PUSH0 REVERT JUMPDEST POP POP POP POP PUSH1 0x40 MLOAD RETURNDATASIZE PUSH1 0x1F NOT PUSH1 0x1F DUP3 ADD AND DUP3 ADD DUP1 PUSH1 0x40 MSTORE POP DUP2 ADD SWAP1 PUSH3 0x111A SWAP2 SWAP1 PUSH3 0x17FF JUMP JUMPDEST DUP10 PUSH3 0xD5B JUMP JUMPDEST SWAP1 POP PUSH0 PUSH3 0x1130 DUP3 DUP7 PUSH3 0x94B JUMP JUMPDEST SWAP1 POP DUP3 PUSH20 0xFFFFFFFFFFFFFFFFFFFFFFFFFFFFFFFFFFFFFFFF AND PUSH4 0x21DF0DA7 PUSH1 0x40 MLOAD DUP2 PUSH4 0xFFFFFFFF AND PUSH1 0xE0 SHL DUP2 MSTORE PUSH1 0x4 ADD PUSH1 0x20 PUSH1 0x40 MLOAD DUP1 DUP4 SUB DUP2 DUP7 GAS STATICCALL ISZERO DUP1 ISZERO PUSH3 0x117C JUMPI RETURNDATASIZE PUSH0 DUP1 RETURNDATACOPY RETURNDATASIZE PUSH0 REVERT JUMPDEST POP POP POP POP PUSH1 0x40 MLOAD RETURNDATASIZE PUSH1 0x1F NOT PUSH1 0x1F DUP3 ADD AND DUP3 ADD DUP1 PUSH1 0x40 MSTORE POP DUP2 ADD SWAP1 PUSH3 0x11A2 SWAP2 SWAP1 PUSH3 0x2341 JUMP JUMPDEST PUSH20 0xFFFFFFFFFFFFFFFFFFFFFFFFFFFFFFFFFFFFFFFF AND PUSH4 0x23B872DD ADDRESS DUP6 PUSH20 0xFFFFFFFFFFFFFFFFFFFFFFFFFFFFFFFFFFFFFFFF AND PUSH4 0x10FE9AE8 PUSH1 0x40 MLOAD DUP2 PUSH4 0xFFFFFFFF AND PUSH1 0xE0 SHL DUP2 MSTORE PUSH1 0x4 ADD PUSH1 0x20 PUSH1 0x40 MLOAD DUP1 DUP4 SUB DUP2 DUP7 GAS STATICCALL ISZERO DUP1 ISZERO PUSH3 0x1208 JUMPI RETURNDATASIZE PUSH0 DUP1 RETURNDATACOPY RETURNDATASIZE PUSH0 REVERT JUMPDEST POP POP POP POP PUSH1 0x40 MLOAD RETURNDATASIZE PUSH1 0x1F NOT PUSH1 0x1F DUP3 ADD AND DUP3 ADD DUP1 PUSH1 0x40 MSTORE POP DUP2 ADD SWAP1 PUSH3 0x122E SWAP2 SWAP1 PUSH3 0x2387 JUMP JUMPDEST DUP5 DUP8 PUSH20 0xFFFFFFFFFFFFFFFFFFFFFFFFFFFFFFFFFFFFFFFF AND PUSH4 0xD321FE29 PUSH1 0x40 MLOAD DUP2 PUSH4 0xFFFFFFFF AND PUSH1 0xE0 SHL DUP2 MSTORE PUSH1 0x4 ADD PUSH1 0x20 PUSH1 0x40 MLOAD DUP1 DUP4 SUB DUP2 DUP7 GAS STATICCALL ISZERO DUP1 ISZERO PUSH3 0x1279 JUMPI RETURNDATASIZE PUSH0 DUP1 RETURNDATACOPY RETURNDATASIZE PUSH0 REVERT JUMPDEST POP POP POP POP PUSH1 0x40 MLOAD RETURNDATASIZE PUSH1 0x1F NOT PUSH1 0x1F DUP3 ADD AND DUP3 ADD DUP1 PUSH1 0x40 MSTORE POP DUP2 ADD SWAP1 PUSH3 0x129F SWAP2 SWAP1 PUSH3 0x17FF JUMP JUMPDEST PUSH3 0x12AB SWAP2 SWAP1 PUSH3 0x1A7E JUMP JUMPDEST PUSH1 0x40 MLOAD DUP5 PUSH4 0xFFFFFFFF AND PUSH1 0xE0 SHL DUP2 MSTORE PUSH1 0x4 ADD PUSH3 0x12CB SWAP4 SWAP3 SWAP2 SWAP1 PUSH3 0x23B7 JUMP JUMPDEST PUSH1 0x20 PUSH1 0x40 MLOAD DUP1 DUP4 SUB DUP2 PUSH0 DUP8 GAS CALL ISZERO DUP1 ISZERO PUSH3 0x12E8 JUMPI RETURNDATASIZE PUSH0 DUP1 RETURNDATACOPY RETURNDATASIZE PUSH0 REVERT JUMPDEST POP POP POP POP PUSH1 0x40 MLOAD RETURNDATASIZE PUSH1 0x1F NOT PUSH1 0x1F DUP3 ADD AND DUP3 ADD DUP1 PUSH1 0x40 MSTORE POP DUP2 ADD SWAP1 PUSH3 0x130E SWAP2 SWAP1 PUSH3 0x242C JUMP JUMPDEST PUSH3 0x1350 JUMPI PUSH1 0x40 MLOAD PUSH32 0x8C379A000000000000000000000000000000000000000000000000000000000 DUP2 MSTORE PUSH1 0x4 ADD PUSH3 0x1347 SWAP1 PUSH3 0x24AA JUMP JUMPDEST PUSH1 0x40 MLOAD DUP1 SWAP2 SUB SWAP1 REVERT JUMPDEST POP POP POP DUP1 DUP1 PUSH3 0x1360 SWAP1 PUSH3 0x19DC JUMP JUMPDEST SWAP2 POP POP PUSH3 0x103C JUMP JUMPDEST POP POP DUP1 DUP1 PUSH3 0x1378 SWAP1 PUSH3 0x19DC JUMP JUMPDEST SWAP2 POP POP PUSH3 0x1018 JUMP JUMPDEST POP POP POP POP POP JUMP JUMPDEST PUSH0 DUP1 PUSH3 0x1397 PUSH1 0x2 DUP5 PUSH3 0xD14 JUMP JUMPDEST SWAP1 POP PUSH3 0x13A6 PUSH1 0x64 DUP3 PUSH3 0xD5B JUMP JUMPDEST SWAP2 POP POP SWAP2 SWAP1 POP JUMP JUMPDEST PUSH2 0xAF0 DUP1 PUSH3 0x24CB DUP4 CODECOPY ADD SWAP1 JUMP JUMPDEST PUSH2 0x9FC DUP1 PUSH3 0x2FBB DUP4 CODECOPY ADD SWAP1 JUMP JUMPDEST PUSH0 PUSH1 0x40 MLOAD SWAP1 POP SWAP1 JUMP JUMPDEST PUSH0 DUP1 REVERT JUMPDEST PUSH0 DUP1 REVERT JUMPDEST PUSH0 DUP2 SWAP1 POP SWAP2 SWAP1 POP JUMP JUMPDEST PUSH3 0x13EF DUP2 PUSH3 0x13DB JUMP JUMPDEST DUP2 EQ PUSH3 0x13FA JUMPI PUSH0 DUP1 REVERT JUMPDEST POP JUMP JUMPDEST PUSH0 DUP2 CALLDATALOAD SWAP1 POP PUSH3 0x140D DUP2 PUSH3 0x13E4 JUMP JUMPDEST SWAP3 SWAP2 POP POP JUMP JUMPDEST PUSH0 PUSH1 0x20 DUP3 DUP5 SUB SLT ISZERO PUSH3 0x142B JUMPI PUSH3 0x142A PUSH3 0x13D3 JUMP JUMPDEST JUMPDEST PUSH0 PUSH3 0x143A DUP5 DUP3 DUP6 ADD PUSH3 0x13FD JUMP JUMPDEST SWAP2 POP POP SWAP3 SWAP2 POP POP JUMP JUMPDEST PUSH0 DUP1 PUSH1 0x40 DUP4 DUP6 SUB SLT ISZERO PUSH3 0x145C JUMPI PUSH3 0x145B PUSH3 0x13D3 JUMP JUMPDEST JUMPDEST PUSH0 PUSH3 0x146B DUP6 DUP3 DUP7 ADD PUSH3 0x13FD JUMP JUMPDEST SWAP3 POP POP PUSH1 0x20 PUSH3 0x147E DUP6 DUP3 DUP7 ADD PUSH3 0x13FD JUMP JUMPDEST SWAP2 POP POP SWAP3 POP SWAP3 SWAP1 POP JUMP JUMPDEST PUSH3 0x1493 DUP2 PUSH3 0x13DB JUMP JUMPDEST DUP3 MSTORE POP POP JUMP JUMPDEST PUSH0 PUSH1 0x20 DUP3 ADD SWAP1 POP PUSH3 0x14AE PUSH0 DUP4 ADD DUP5 PUSH3 0x1488 JUMP JUMPDEST SWAP3 SWAP2 POP POP JUMP JUMPDEST PUSH0 PUSH20 0xFFFFFFFFFFFFFFFFFFFFFFFFFFFFFFFFFFFFFFFF DUP3 AND SWAP1 POP SWAP2 SWAP1 POP JUMP JUMPDEST PUSH0 DUP2 SWAP1 POP SWAP2 SWAP1 POP JUMP JUMPDEST PUSH0 PUSH3 0x14FC PUSH3 0x14F6 PUSH3 0x14F0 DUP5 PUSH3 0x14B4 JUMP JUMPDEST PUSH3 0x14D3 JUMP JUMPDEST PUSH3 0x14B4 JUMP JUMPDEST SWAP1 POP SWAP2 SWAP1 POP JUMP JUMPDEST PUSH0 PUSH3 0x150F DUP3 PUSH3 0x14DC JUMP JUMPDEST SWAP1 POP SWAP2 SWAP1 POP JUMP JUMPDEST PUSH0 PUSH3 0x1522 DUP3 PUSH3 0x1503 JUMP JUMPDEST SWAP1 POP SWAP2 SWAP1 POP JUMP JUMPDEST PUSH3 0x1534 DUP2 PUSH3 0x1516 JUMP JUMPDEST DUP3 MSTORE POP POP JUMP JUMPDEST PUSH0 PUSH1 0x20 DUP3 ADD SWAP1 POP PUSH3 0x154F PUSH0 DUP4 ADD DUP5 PUSH3 0x1529 JUMP JUMPDEST SWAP3 SWAP2 POP POP JUMP JUMPDEST PUSH1 0x2 DUP2 LT PUSH3 0x1562 JUMPI PUSH0 DUP1 REVERT JUMPDEST POP JUMP JUMPDEST PUSH0 DUP2 CALLDATALOAD SWAP1 POP PUSH3 0x1575 DUP2 PUSH3 0x1555 JUMP JUMPDEST SWAP3 SWAP2 POP POP JUMP JUMPDEST PUSH0 DUP1 PUSH0 DUP1 PUSH0 PUSH1 0xA0 DUP7 DUP9 SUB SLT ISZERO PUSH3 0x1597 JUMPI PUSH3 0x1596 PUSH3 0x13D3 JUMP JUMPDEST JUMPDEST PUSH0 PUSH3 0x15A6 DUP9 DUP3 DUP10 ADD PUSH3 0x13FD JUMP JUMPDEST SWAP6 POP POP PUSH1 0x20 PUSH3 0x15B9 DUP9 DUP3 DUP10 ADD PUSH3 0x13FD JUMP JUMPDEST SWAP5 POP POP PUSH1 0x40 PUSH3 0x15CC DUP9 DUP3 DUP10 ADD PUSH3 0x13FD JUMP JUMPDEST SWAP4 POP POP PUSH1 0x60 PUSH3 0x15DF DUP9 DUP3 DUP10 ADD PUSH3 0x13FD JUMP JUMPDEST SWAP3 POP POP PUSH1 0x80 PUSH3 0x15F2 DUP9 DUP3 DUP10 ADD PUSH3 0x1565 JUMP JUMPDEST SWAP2 POP POP SWAP3 SWAP6 POP SWAP3 SWAP6 SWAP1 SWAP4 POP JUMP JUMPDEST PUSH0 PUSH3 0x160B DUP3 PUSH3 0x1503 JUMP JUMPDEST SWAP1 POP SWAP2 SWAP1 POP JUMP JUMPDEST PUSH3 0x161D DUP2 PUSH3 0x15FF JUMP JUMPDEST DUP3 MSTORE POP POP JUMP JUMPDEST PUSH0 PUSH1 0x20 DUP3 ADD SWAP1 POP PUSH3 0x1638 PUSH0 DUP4 ADD DUP5 PUSH3 0x1612 JUMP JUMPDEST SWAP3 SWAP2 POP POP JUMP JUMPDEST PUSH1 0x3 DUP2 LT PUSH3 0x164B JUMPI PUSH0 DUP1 REVERT JUMPDEST POP JUMP JUMPDEST PUSH0 DUP2 CALLDATALOAD SWAP1 POP PUSH3 0x165E DUP2 PUSH3 0x163E JUMP JUMPDEST SWAP3 SWAP2 POP POP JUMP JUMPDEST PUSH0 PUSH3 0x1670 DUP3 PUSH3 0x14B4 JUMP JUMPDEST SWAP1 POP SWAP2 SWAP1 POP JUMP JUMPDEST PUSH3 0x1682 DUP2 PUSH3 0x1664 JUMP JUMPDEST DUP2 EQ PUSH3 0x168D JUMPI PUSH0 DUP1 REVERT JUMPDEST POP JUMP JUMPDEST PUSH0 DUP2 CALLDATALOAD SWAP1 POP PUSH3 0x16A0 DUP2 PUSH3 0x1677 JUMP JUMPDEST SWAP3 SWAP2 POP POP JUMP JUMPDEST PUSH0 DUP1 PUSH0 DUP1 PUSH0 DUP1 PUSH1 0xC0 DUP8 DUP10 SUB SLT ISZERO PUSH3 0x16C3 JUMPI PUSH3 0x16C2 PUSH3 0x13D3 JUMP JUMPDEST JUMPDEST PUSH0 PUSH3 0x16D2 DUP10 DUP3 DUP11 ADD PUSH3 0x13FD JUMP JUMPDEST SWAP7 POP POP PUSH1 0x20 PUSH3 0x16E5 DUP10 DUP3 DUP11 ADD PUSH3 0x13FD JUMP JUMPDEST SWAP6 POP POP PUSH1 0x40 PUSH3 0x16F8 DUP10 DUP3 DUP11 ADD PUSH3 0x13FD JUMP JUMPDEST SWAP5 POP POP PUSH1 0x60 PUSH3 0x170B DUP10 DUP3 DUP11 ADD PUSH3 0x164E JUMP JUMPDEST SWAP4 POP POP PUSH1 0x80 PUSH3 0x171E DUP10 DUP3 DUP11 ADD PUSH3 0x1565 JUMP JUMPDEST SWAP3 POP POP PUSH1 0xA0 PUSH3 0x1731 DUP10 DUP3 DUP11 ADD PUSH3 0x1690 JUMP JUMPDEST SWAP2 POP POP SWAP3 SWAP6 POP SWAP3 SWAP6 POP SWAP3 SWAP6 JUMP JUMPDEST PUSH0 DUP3 DUP3 MSTORE PUSH1 0x20 DUP3 ADD SWAP1 POP SWAP3 SWAP2 POP POP JUMP JUMPDEST PUSH32 0x5261636520646F6573206E6F7420657869737400000000000000000000000000 PUSH0 DUP3 ADD MSTORE POP JUMP JUMPDEST PUSH0 PUSH3 0x1784 PUSH1 0x13 DUP4 PUSH3 0x173E JUMP JUMPDEST SWAP2 POP PUSH3 0x1791 DUP3 PUSH3 0x174E JUMP JUMPDEST PUSH1 0x20 DUP3 ADD SWAP1 POP SWAP2 SWAP1 POP JUMP JUMPDEST PUSH0 PUSH1 0x20 DUP3 ADD SWAP1 POP DUP2 DUP2 SUB PUSH0 DUP4 ADD MSTORE PUSH3 0x17B5 DUP2 PUSH3 0x1776 JUMP JUMPDEST SWAP1 POP SWAP2 SWAP1 POP JUMP JUMPDEST PUSH32 0x4E487B7100000000000000000000000000000000000000000000000000000000 PUSH0 MSTORE PUSH1 0x32 PUSH1 0x4 MSTORE PUSH1 0x24 PUSH0 REVERT JUMPDEST PUSH0 DUP2 MLOAD SWAP1 POP PUSH3 0x17F9 DUP2 PUSH3 0x13E4 JUMP JUMPDEST SWAP3 SWAP2 POP POP JUMP JUMPDEST PUSH0 PUSH1 0x20 DUP3 DUP5 SUB SLT ISZERO PUSH3 0x1817 JUMPI PUSH3 0x1816 PUSH3 0x13D3 JUMP JUMPDEST JUMPDEST PUSH0 PUSH3 0x1826 DUP5 DUP3 DUP6 ADD PUSH3 0x17E9 JUMP JUMPDEST SWAP2 POP POP SWAP3 SWAP2 POP POP JUMP JUMPDEST PUSH0 DUP2 MLOAD SWAP1 POP SWAP2 SWAP1 POP JUMP JUMPDEST PUSH0 DUP3 DUP3 MSTORE PUSH1 0x20 DUP3 ADD SWAP1 POP SWAP3 SWAP2 POP POP JUMP JUMPDEST PUSH0 DUP2 SWAP1 POP PUSH1 0x20 DUP3 ADD SWAP1 POP SWAP2 SWAP1 POP JUMP JUMPDEST PUSH3 0x1863 DUP2 PUSH3 0x13DB JUMP JUMPDEST DUP3 MSTORE POP POP JUMP JUMPDEST PUSH0 PUSH3 0x1876 DUP4 DUP4 PUSH3 0x1858 JUMP JUMPDEST PUSH1 0x20 DUP4 ADD SWAP1 POP SWAP3 SWAP2 POP POP JUMP JUMPDEST PUSH0 PUSH1 0x20 DUP3 ADD SWAP1 POP SWAP2 SWAP1 POP JUMP JUMPDEST PUSH0 PUSH3 0x189A DUP3 PUSH3 0x182F JUMP JUMPDEST PUSH3 0x18A6 DUP2 DUP6 PUSH3 0x1839 JUMP JUMPDEST SWAP4 POP PUSH3 0x18B3 DUP4 PUSH3 0x1849 JUMP JUMPDEST DUP1 PUSH0 JUMPDEST DUP4 DUP2 LT ISZERO PUSH3 0x18E9 JUMPI DUP2 MLOAD PUSH3 0x18CD DUP9 DUP3 PUSH3 0x1869 JUMP JUMPDEST SWAP8 POP PUSH3 0x18DA DUP4 PUSH3 0x1882 JUMP JUMPDEST SWAP3 POP POP PUSH1 0x1 DUP2 ADD SWAP1 POP PUSH3 0x18B6 JUMP JUMPDEST POP DUP6 SWAP4 POP POP POP POP SWAP3 SWAP2 POP POP JUMP JUMPDEST PUSH0 PUSH1 0x20 DUP3 ADD SWAP1 POP DUP2 DUP2 SUB PUSH0 DUP4 ADD MSTORE PUSH3 0x1910 DUP2 DUP5 PUSH3 0x188E JUMP JUMPDEST SWAP1 POP SWAP3 SWAP2 POP POP JUMP JUMPDEST PUSH32 0x4E487B7100000000000000000000000000000000000000000000000000000000 PUSH0 MSTORE PUSH1 0x21 PUSH1 0x4 MSTORE PUSH1 0x24 PUSH0 REVERT JUMPDEST PUSH1 0x4 DUP2 LT PUSH3 0x1959 JUMPI PUSH3 0x1958 PUSH3 0x1918 JUMP JUMPDEST JUMPDEST POP JUMP JUMPDEST PUSH0 DUP2 SWAP1 POP PUSH3 0x196B DUP3 PUSH3 0x1945 JUMP JUMPDEST SWAP2 SWAP1 POP JUMP JUMPDEST PUSH0 PUSH3 0x197C DUP3 PUSH3 0x195C JUMP JUMPDEST SWAP1 POP SWAP2 SWAP1 POP JUMP JUMPDEST PUSH3 0x198E DUP2 PUSH3 0x1970 JUMP JUMPDEST DUP3 MSTORE POP POP JUMP JUMPDEST PUSH0 PUSH1 0x20 DUP3 ADD SWAP1 POP PUSH3 0x19A9 PUSH0 DUP4 ADD DUP5 PUSH3 0x1983 JUMP JUMPDEST SWAP3 SWAP2 POP POP JUMP JUMPDEST PUSH32 0x4E487B7100000000000000000000000000000000000000000000000000000000 PUSH0 MSTORE PUSH1 0x11 PUSH1 0x4 MSTORE PUSH1 0x24 PUSH0 REVERT JUMPDEST PUSH0 PUSH3 0x19E8 DUP3 PUSH3 0x13DB JUMP JUMPDEST SWAP2 POP PUSH32 0xFFFFFFFFFFFFFFFFFFFFFFFFFFFFFFFFFFFFFFFFFFFFFFFFFFFFFFFFFFFFFFFF DUP3 SUB PUSH3 0x1A1D JUMPI PUSH3 0x1A1C PUSH3 0x19AF JUMP JUMPDEST JUMPDEST PUSH1 0x1 DUP3 ADD SWAP1 POP SWAP2 SWAP1 POP JUMP JUMPDEST PUSH1 0x4 DUP2 LT PUSH3 0x1A35 JUMPI PUSH0 DUP1 REVERT JUMPDEST POP JUMP JUMPDEST PUSH0 DUP2 MLOAD SWAP1 POP PUSH3 0x1A48 DUP2 PUSH3 0x1A28 JUMP JUMPDEST SWAP3 SWAP2 POP POP JUMP JUMPDEST PUSH0 PUSH1 0x20 DUP3 DUP5 SUB SLT ISZERO PUSH3 0x1A66 JUMPI PUSH3 0x1A65 PUSH3 0x13D3 JUMP JUMPDEST JUMPDEST PUSH0 PUSH3 0x1A75 DUP5 DUP3 DUP6 ADD PUSH3 0x1A38 JUMP JUMPDEST SWAP2 POP POP SWAP3 SWAP2 POP POP JUMP JUMPDEST PUSH0 PUSH3 0x1A8A DUP3 PUSH3 0x13DB JUMP JUMPDEST SWAP2 POP PUSH3 0x1A97 DUP4 PUSH3 0x13DB JUMP JUMPDEST SWAP3 POP DUP3 DUP3 ADD SWAP1 POP DUP1 DUP3 GT ISZERO PUSH3 0x1AB2 JUMPI PUSH3 0x1AB1 PUSH3 0x19AF JUMP JUMPDEST JUMPDEST SWAP3 SWAP2 POP POP JUMP JUMPDEST PUSH0 DUP2 PUSH1 0x1 SHR SWAP1 POP SWAP2 SWAP1 POP JUMP JUMPDEST PUSH0 DUP1 DUP3 SWAP2 POP DUP4 SWAP1 POP JUMPDEST PUSH1 0x1 DUP6 GT ISZERO PUSH3 0x1B15 JUMPI DUP1 DUP7 DIV DUP2 GT ISZERO PUSH3 0x1AED JUMPI PUSH3 0x1AEC PUSH3 0x19AF JUMP JUMPDEST JUMPDEST PUSH1 0x1 DUP6 AND ISZERO PUSH3 0x1AFD JUMPI DUP1 DUP3 MUL SWAP2 POP JUMPDEST DUP1 DUP2 MUL SWAP1 POP PUSH3 0x1B0D DUP6 PUSH3 0x1AB8 JUMP JUMPDEST SWAP5 POP PUSH3 0x1ACD JUMP JUMPDEST SWAP5 POP SWAP5 SWAP3 POP POP POP JUMP JUMPDEST PUSH0 DUP3 PUSH3 0x1B2F JUMPI PUSH1 0x1 SWAP1 POP PUSH3 0x1C01 JUMP JUMPDEST DUP2 PUSH3 0x1B3E JUMPI PUSH0 SWAP1 POP PUSH3 0x1C01 JUMP JUMPDEST DUP2 PUSH1 0x1 DUP2 EQ PUSH3 0x1B57 JUMPI PUSH1 0x2 DUP2 EQ PUSH3 0x1B62 JUMPI PUSH3 0x1B98 JUMP JUMPDEST PUSH1 0x1 SWAP2 POP POP PUSH3 0x1C01 JUMP JUMPDEST PUSH1 0xFF DUP5 GT ISZERO PUSH3 0x1B77 JUMPI PUSH3 0x1B76 PUSH3 0x19AF JUMP JUMPDEST JUMPDEST DUP4 PUSH1 0x2 EXP SWAP2 POP DUP5 DUP3 GT ISZERO PUSH3 0x1B91 JUMPI PUSH3 0x1B90 PUSH3 0x19AF JUMP JUMPDEST JUMPDEST POP PUSH3 0x1C01 JUMP JUMPDEST POP PUSH1 0x20 DUP4 LT PUSH2 0x133 DUP4 LT AND PUSH1 0x4E DUP5 LT PUSH1 0xB DUP5 LT AND OR ISZERO PUSH3 0x1BD2 JUMPI DUP3 DUP3 EXP SWAP1 POP DUP4 DUP2 GT ISZERO PUSH3 0x1BCC JUMPI PUSH3 0x1BCB PUSH3 0x19AF JUMP JUMPDEST JUMPDEST PUSH3 0x1C01 JUMP JUMPDEST PUSH3 0x1BE1 DUP5 DUP5 DUP5 PUSH1 0x1 PUSH3 0x1AC4 JUMP JUMPDEST SWAP3 POP SWAP1 POP DUP2 DUP5 DIV DUP2 GT ISZERO PUSH3 0x1BFB JUMPI PUSH3 0x1BFA PUSH3 0x19AF JUMP JUMPDEST JUMPDEST DUP2 DUP2 MUL SWAP1 POP JUMPDEST SWAP4 SWAP3 POP POP POP JUMP JUMPDEST PUSH0 PUSH3 0x1C14 DUP3 PUSH3 0x13DB JUMP JUMPDEST SWAP2 POP PUSH3 0x1C21 DUP4 PUSH3 0x13DB JUMP JUMPDEST SWAP3 POP PUSH3 0x1C50 PUSH32 0xFFFFFFFFFFFFFFFFFFFFFFFFFFFFFFFFFFFFFFFFFFFFFFFFFFFFFFFFFFFFFFFF DUP5 DUP5 PUSH3 0x1B1E JUMP JUMPDEST SWAP1 POP SWAP3 SWAP2 POP POP JUMP JUMPDEST PUSH0 PUSH3 0x1C64 DUP3 PUSH3 0x13DB JUMP JUMPDEST SWAP2 POP PUSH3 0x1C71 DUP4 PUSH3 0x13DB JUMP JUMPDEST SWAP3 POP DUP3 DUP3 MUL PUSH3 0x1C81 DUP2 PUSH3 0x13DB JUMP JUMPDEST SWAP2 POP DUP3 DUP3 DIV DUP5 EQ DUP4 ISZERO OR PUSH3 0x1C9B JUMPI PUSH3 0x1C9A PUSH3 0x19AF JUMP JUMPDEST JUMPDEST POP SWAP3 SWAP2 POP POP JUMP JUMPDEST PUSH32 0x4E487B7100000000000000000000000000000000000000000000000000000000 PUSH0 MSTORE PUSH1 0x12 PUSH1 0x4 MSTORE PUSH1 0x24 PUSH0 REVERT JUMPDEST PUSH0 PUSH3 0x1CDB DUP3 PUSH3 0x13DB JUMP JUMPDEST SWAP2 POP PUSH3 0x1CE8 DUP4 PUSH3 0x13DB JUMP JUMPDEST SWAP3 POP DUP3 PUSH3 0x1CFB JUMPI PUSH3 0x1CFA PUSH3 0x1CA2 JUMP JUMPDEST JUMPDEST DUP3 DUP3 DIV SWAP1 POP SWAP3 SWAP2 POP POP JUMP JUMPDEST PUSH32 0x52616365206D7573742074616B6520706C61636520696E207468652066757475 PUSH0 DUP3 ADD MSTORE PUSH32 0x7265000000000000000000000000000000000000000000000000000000000000 PUSH1 0x20 DUP3 ADD MSTORE POP JUMP JUMPDEST PUSH0 PUSH3 0x1D62 PUSH1 0x22 DUP4 PUSH3 0x173E JUMP JUMPDEST SWAP2 POP PUSH3 0x1D6F DUP3 PUSH3 0x1D06 JUMP JUMPDEST PUSH1 0x40 DUP3 ADD SWAP1 POP SWAP2 SWAP1 POP JUMP JUMPDEST PUSH0 PUSH1 0x20 DUP3 ADD SWAP1 POP DUP2 DUP2 SUB PUSH0 DUP4 ADD MSTORE PUSH3 0x1D93 DUP2 PUSH3 0x1D54 JUMP JUMPDEST SWAP1 POP SWAP2 SWAP1 POP JUMP JUMPDEST PUSH32 0x5261636520616C72656164792065786973747300000000000000000000000000 PUSH0 DUP3 ADD MSTORE POP JUMP JUMPDEST PUSH0 PUSH3 0x1DD0 PUSH1 0x13 DUP4 PUSH3 0x173E JUMP JUMPDEST SWAP2 POP PUSH3 0x1DDD DUP3 PUSH3 0x1D9A JUMP JUMPDEST PUSH1 0x20 DUP3 ADD SWAP1 POP SWAP2 SWAP1 POP JUMP JUMPDEST PUSH0 PUSH1 0x20 DUP3 ADD SWAP1 POP DUP2 DUP2 SUB PUSH0 DUP4 ADD MSTORE PUSH3 0x1E01 DUP2 PUSH3 0x1DC2 JUMP JUMPDEST SWAP1 POP SWAP2 SWAP1 POP JUMP JUMPDEST PUSH1 0x2 DUP2 LT PUSH3 0x1E1C JUMPI PUSH3 0x1E1B PUSH3 0x1918 JUMP JUMPDEST JUMPDEST POP JUMP JUMPDEST PUSH0 DUP2 SWAP1 POP PUSH3 0x1E2E DUP3 PUSH3 0x1E08 JUMP JUMPDEST SWAP2 SWAP1 POP JUMP JUMPDEST PUSH0 PUSH3 0x1E3F DUP3 PUSH3 0x1E1F JUMP JUMPDEST SWAP1 POP SWAP2 SWAP1 POP JUMP JUMPDEST PUSH3 0x1E51 DUP2 PUSH3 0x1E33 JUMP JUMPDEST DUP3 MSTORE POP POP JUMP JUMPDEST PUSH0 PUSH1 0xA0 DUP3 ADD SWAP1 POP PUSH3 0x1E6C PUSH0 DUP4 ADD DUP9 PUSH3 0x1488 JUMP JUMPDEST PUSH3 0x1E7B PUSH1 0x20 DUP4 ADD DUP8 PUSH3 0x1E46 JUMP JUMPDEST PUSH3 0x1E8A PUSH1 0x40 DUP4 ADD DUP7 PUSH3 0x1488 JUMP JUMPDEST PUSH3 0x1E99 PUSH1 0x60 DUP4 ADD DUP6 PUSH3 0x1488 JUMP JUMPDEST PUSH3 0x1EA8 PUSH1 0x80 DUP4 ADD DUP5 PUSH3 0x1488 JUMP JUMPDEST SWAP7 SWAP6 POP POP POP POP POP POP JUMP JUMPDEST PUSH32 0x42657420616D6F756E74206D75737420626520657175616C206F72206C657373 PUSH0 DUP3 ADD MSTORE PUSH32 0x207468616E2073656E7420616D6F756E74000000000000000000000000000000 PUSH1 0x20 DUP3 ADD MSTORE POP JUMP JUMPDEST PUSH0 PUSH3 0x1F0E PUSH1 0x31 DUP4 PUSH3 0x173E JUMP JUMPDEST SWAP2 POP PUSH3 0x1F1B DUP3 PUSH3 0x1EB2 JUMP JUMPDEST PUSH1 0x40 DUP3 ADD SWAP1 POP SWAP2 SWAP1 POP JUMP JUMPDEST PUSH0 PUSH1 0x20 DUP3 ADD SWAP1 POP DUP2 DUP2 SUB PUSH0 DUP4 ADD MSTORE PUSH3 0x1F3F DUP2 PUSH3 0x1F00 JUMP JUMPDEST SWAP1 POP SWAP2 SWAP1 POP JUMP JUMPDEST PUSH3 0x1F51 DUP2 PUSH3 0x1664 JUMP JUMPDEST DUP3 MSTORE POP POP JUMP JUMPDEST PUSH1 0x3 DUP2 LT PUSH3 0x1F6B JUMPI PUSH3 0x1F6A PUSH3 0x1918 JUMP JUMPDEST JUMPDEST POP JUMP JUMPDEST PUSH0 DUP2 SWAP1 POP PUSH3 0x1F7D DUP3 PUSH3 0x1F57 JUMP JUMPDEST SWAP2 SWAP1 POP JUMP JUMPDEST PUSH0 PUSH3 0x1F8E DUP3 PUSH3 0x1F6E JUMP JUMPDEST SWAP1 POP SWAP2 SWAP1 POP JUMP JUMPDEST PUSH3 0x1FA0 DUP2 PUSH3 0x1F82 JUMP JUMPDEST DUP3 MSTORE POP POP JUMP JUMPDEST PUSH0 PUSH1 0xC0 DUP3 ADD SWAP1 POP PUSH3 0x1FBB PUSH0 DUP4 ADD DUP10 PUSH3 0x1488 JUMP JUMPDEST PUSH3 0x1FCA PUSH1 0x20 DUP4 ADD DUP9 PUSH3 0x1F46 JUMP JUMPDEST PUSH3 0x1FD9 PUSH1 0x40 DUP4 ADD DUP8 PUSH3 0x1F95 JUMP JUMPDEST PUSH3 0x1FE8 PUSH1 0x60 DUP4 ADD DUP7 PUSH3 0x1E46 JUMP JUMPDEST PUSH3 0x1FF7 PUSH1 0x80 DUP4 ADD DUP6 PUSH3 0x1488 JUMP JUMPDEST PUSH3 0x2006 PUSH1 0xA0 DUP4 ADD DUP5 PUSH3 0x1488 JUMP JUMPDEST SWAP8 SWAP7 POP POP POP POP POP POP POP JUMP JUMPDEST PUSH32 0x4E487B7100000000000000000000000000000000000000000000000000000000 PUSH0 MSTORE PUSH1 0x41 PUSH1 0x4 MSTORE PUSH1 0x24 PUSH0 REVERT JUMPDEST PUSH0 DUP2 SWAP1 POP SWAP2 SWAP1 POP JUMP JUMPDEST PUSH3 0x205C PUSH3 0x2056 DUP3 PUSH3 0x13DB JUMP JUMPDEST PUSH3 0x203E JUMP JUMPDEST DUP3 MSTORE POP POP JUMP JUMPDEST PUSH0 PUSH3 0x206F DUP3 DUP6 PUSH3 0x2047 JUMP JUMPDEST PUSH1 0x20 DUP3 ADD SWAP2 POP PUSH3 0x2081 DUP3 DUP5 PUSH3 0x2047 JUMP JUMPDEST PUSH1 0x20 DUP3 ADD SWAP2 POP DUP2 SWAP1 POP SWAP4 SWAP3 POP POP POP JUMP JUMPDEST PUSH0 PUSH3 0x209D DUP3 PUSH3 0x13DB JUMP JUMPDEST SWAP2 POP PUSH3 0x20AA DUP4 PUSH3 0x13DB JUMP JUMPDEST SWAP3 POP DUP3 DUP3 SUB SWAP1 POP DUP2 DUP2 GT ISZERO PUSH3 0x20C5 JUMPI PUSH3 0x20C4 PUSH3 0x19AF JUMP JUMPDEST JUMPDEST SWAP3 SWAP2 POP POP JUMP JUMPDEST PUSH0 DUP2 SWAP1 POP SWAP2 SWAP1 POP JUMP JUMPDEST PUSH0 DUP2 SWAP1 POP SWAP2 SWAP1 POP JUMP JUMPDEST PUSH3 0x20F2 PUSH3 0x20EC DUP3 PUSH3 0x20CB JUMP JUMPDEST PUSH3 0x20D4 JUMP JUMPDEST DUP3 MSTORE POP POP JUMP JUMPDEST PUSH0 PUSH3 0x2105 DUP3 DUP7 PUSH3 0x2047 JUMP JUMPDEST PUSH1 0x20 DUP3 ADD SWAP2 POP PUSH3 0x2117 DUP3 DUP6 PUSH3 0x20DD JUMP JUMPDEST PUSH1 0x20 DUP3 ADD SWAP2 POP PUSH3 0x2129 DUP3 DUP5 PUSH3 0x2047 JUMP JUMPDEST PUSH1 0x20 DUP3 ADD SWAP2 POP DUP2 SWAP1 POP SWAP5 SWAP4 POP POP POP POP JUMP JUMPDEST PUSH0 PUSH3 0x2146 DUP3 PUSH3 0x13DB JUMP JUMPDEST SWAP2 POP PUSH3 0x2153 DUP4 PUSH3 0x13DB JUMP JUMPDEST SWAP3 POP DUP3 PUSH3 0x2166 JUMPI PUSH3 0x2165 PUSH3 0x1CA2 JUMP JUMPDEST JUMPDEST DUP3 DUP3 MOD SWAP1 POP SWAP3 SWAP2 POP POP JUMP JUMPDEST PUSH0 DUP1 REVERT JUMPDEST PUSH0 PUSH1 0x1F NOT PUSH1 0x1F DUP4 ADD AND SWAP1 POP SWAP2 SWAP1 POP JUMP JUMPDEST PUSH3 0x2190 DUP3 PUSH3 0x2175 JUMP JUMPDEST DUP2 ADD DUP2 DUP2 LT PUSH8 0xFFFFFFFFFFFFFFFF DUP3 GT OR ISZERO PUSH3 0x21B2 JUMPI PUSH3 0x21B1 PUSH3 0x2011 JUMP JUMPDEST JUMPDEST DUP1 PUSH1 0x40 MSTORE POP POP POP JUMP JUMPDEST PUSH0 PUSH3 0x21C6 PUSH3 0x13CA JUMP JUMPDEST SWAP1 POP PUSH3 0x21D4 DUP3 DUP3 PUSH3 0x2185 JUMP JUMPDEST SWAP2 SWAP1 POP JUMP JUMPDEST PUSH0 PUSH8 0xFFFFFFFFFFFFFFFF DUP3 GT ISZERO PUSH3 0x21F6 JUMPI PUSH3 0x21F5 PUSH3 0x2011 JUMP JUMPDEST JUMPDEST PUSH1 0x20 DUP3 MUL SWAP1 POP PUSH1 0x20 DUP2 ADD SWAP1 POP SWAP2 SWAP1 POP JUMP JUMPDEST PUSH0 DUP1 REVERT JUMPDEST PUSH0 PUSH3 0x2221 PUSH3 0x221B DUP5 PUSH3 0x21D9 JUMP JUMPDEST PUSH3 0x21BB JUMP JUMPDEST SWAP1 POP DUP1 DUP4 DUP3 MSTORE PUSH1 0x20 DUP3 ADD SWAP1 POP PUSH1 0x20 DUP5 MUL DUP4 ADD DUP6 DUP2 GT ISZERO PUSH3 0x2247 JUMPI PUSH3 0x2246 PUSH3 0x2207 JUMP JUMPDEST JUMPDEST DUP4 JUMPDEST DUP2 DUP2 LT ISZERO PUSH3 0x2274 JUMPI DUP1 PUSH3 0x225F DUP9 DUP3 PUSH3 0x17E9 JUMP JUMPDEST DUP5 MSTORE PUSH1 0x20 DUP5 ADD SWAP4 POP POP PUSH1 0x20 DUP2 ADD SWAP1 POP PUSH3 0x2249 JUMP JUMPDEST POP POP POP SWAP4 SWAP3 POP POP POP JUMP JUMPDEST PUSH0 DUP3 PUSH1 0x1F DUP4 ADD SLT PUSH3 0x2295 JUMPI PUSH3 0x2294 PUSH3 0x2171 JUMP JUMPDEST JUMPDEST DUP2 MLOAD PUSH3 0x22A7 DUP5 DUP3 PUSH1 0x20 DUP7 ADD PUSH3 0x220B JUMP JUMPDEST SWAP2 POP POP SWAP3 SWAP2 POP POP JUMP JUMPDEST PUSH0 PUSH1 0x20 DUP3 DUP5 SUB SLT ISZERO PUSH3 0x22C8 JUMPI PUSH3 0x22C7 PUSH3 0x13D3 JUMP JUMPDEST JUMPDEST PUSH0 DUP3 ADD MLOAD PUSH8 0xFFFFFFFFFFFFFFFF DUP2 GT ISZERO PUSH3 0x22E8 JUMPI PUSH3 0x22E7 PUSH3 0x13D7 JUMP JUMPDEST JUMPDEST PUSH3 0x22F6 DUP5 DUP3 DUP6 ADD PUSH3 0x227E JUMP JUMPDEST SWAP2 POP POP SWAP3 SWAP2 POP POP JUMP JUMPDEST PUSH0 PUSH3 0x230B DUP3 PUSH3 0x1664 JUMP JUMPDEST SWAP1 POP SWAP2 SWAP1 POP JUMP JUMPDEST PUSH3 0x231D DUP2 PUSH3 0x22FF JUMP JUMPDEST DUP2 EQ PUSH3 0x2328 JUMPI PUSH0 DUP1 REVERT JUMPDEST POP JUMP JUMPDEST PUSH0 DUP2 MLOAD SWAP1 POP PUSH3 0x233B DUP2 PUSH3 0x2312 JUMP JUMPDEST SWAP3 SWAP2 POP POP JUMP JUMPDEST PUSH0 PUSH1 0x20 DUP3 DUP5 SUB SLT ISZERO PUSH3 0x2359 JUMPI PUSH3 0x2358 PUSH3 0x13D3 JUMP JUMPDEST JUMPDEST PUSH0 PUSH3 0x2368 DUP5 DUP3 DUP6 ADD PUSH3 0x232B JUMP JUMPDEST SWAP2 POP POP SWAP3 SWAP2 POP POP JUMP JUMPDEST PUSH0 DUP2 MLOAD SWAP1 POP PUSH3 0x2381 DUP2 PUSH3 0x1677 JUMP JUMPDEST SWAP3 SWAP2 POP POP JUMP JUMPDEST PUSH0 PUSH1 0x20 DUP3 DUP5 SUB SLT ISZERO PUSH3 0x239F JUMPI PUSH3 0x239E PUSH3 0x13D3 JUMP JUMPDEST JUMPDEST PUSH0 PUSH3 0x23AE DUP5 DUP3 DUP6 ADD PUSH3 0x2371 JUMP JUMPDEST SWAP2 POP POP SWAP3 SWAP2 POP POP JUMP JUMPDEST PUSH0 PUSH1 0x60 DUP3 ADD SWAP1 POP PUSH3 0x23CC PUSH0 DUP4 ADD DUP7 PUSH3 0x1F46 JUMP JUMPDEST PUSH3 0x23DB PUSH1 0x20 DUP4 ADD DUP6 PUSH3 0x1F46 JUMP JUMPDEST PUSH3 0x23EA PUSH1 0x40 DUP4 ADD DUP5 PUSH3 0x1488 JUMP JUMPDEST SWAP5 SWAP4 POP POP POP POP JUMP JUMPDEST PUSH0 DUP2 ISZERO ISZERO SWAP1 POP SWAP2 SWAP1 POP JUMP JUMPDEST PUSH3 0x2408 DUP2 PUSH3 0x23F2 JUMP JUMPDEST DUP2 EQ PUSH3 0x2413 JUMPI PUSH0 DUP1 REVERT JUMPDEST POP JUMP JUMPDEST PUSH0 DUP2 MLOAD SWAP1 POP PUSH3 0x2426 DUP2 PUSH3 0x23FD JUMP JUMPDEST SWAP3 SWAP2 POP POP JUMP JUMPDEST PUSH0 PUSH1 0x20 DUP3 DUP5 SUB SLT ISZERO PUSH3 0x2444 JUMPI PUSH3 0x2443 PUSH3 0x13D3 JUMP JUMPDEST JUMPDEST PUSH0 PUSH3 0x2453 DUP5 DUP3 DUP6 ADD PUSH3 0x2416 JUMP JUMPDEST SWAP2 POP POP SWAP3 SWAP2 POP POP JUMP JUMPDEST PUSH32 0x546F6B656E207472616E73666572206661696C65640000000000000000000000 PUSH0 DUP3 ADD MSTORE POP JUMP JUMPDEST PUSH0 PUSH3 0x2492 PUSH1 0x15 DUP4 PUSH3 0x173E JUMP JUMPDEST SWAP2 POP PUSH3 0x249F DUP3 PUSH3 0x245C JUMP JUMPDEST PUSH1 0x20 DUP3 ADD SWAP1 POP SWAP2 SWAP1 POP JUMP JUMPDEST PUSH0 PUSH1 0x20 DUP3 ADD SWAP1 POP DUP2 DUP2 SUB PUSH0 DUP4 ADD MSTORE PUSH3 0x24C3 DUP2 PUSH3 0x2484 JUMP JUMPDEST SWAP1 POP SWAP2 SWAP1 POP JUMP INVALID PUSH1 0x80 PUSH1 0x40 MSTORE CALLVALUE DUP1 ISZERO PUSH3 0x10 JUMPI PUSH0 DUP1 REVERT JUMPDEST POP PUSH1 0x40 MLOAD PUSH3 0xAF0 CODESIZE SUB DUP1 PUSH3 0xAF0 DUP4 CODECOPY DUP2 DUP2 ADD PUSH1 0x40 MSTORE DUP2 ADD SWAP1 PUSH3 0x36 SWAP2 SWAP1 PUSH3 0x12A JUMP JUMPDEST CALLER PUSH0 DUP1 PUSH2 0x100 EXP DUP2 SLOAD DUP2 PUSH20 0xFFFFFFFFFFFFFFFFFFFFFFFFFFFFFFFFFFFFFFFF MUL NOT AND SWAP1 DUP4 PUSH20 0xFFFFFFFFFFFFFFFFFFFFFFFFFFFFFFFFFFFFFFFF AND MUL OR SWAP1 SSTORE POP DUP5 PUSH1 0x1 DUP2 SWAP1 SSTORE POP DUP4 PUSH1 0x2 PUSH0 PUSH2 0x100 EXP DUP2 SLOAD DUP2 PUSH1 0xFF MUL NOT AND SWAP1 DUP4 PUSH1 0x1 DUP2 GT ISZERO PUSH3 0xA3 JUMPI PUSH3 0xA2 PUSH3 0x1AE JUMP JUMPDEST JUMPDEST MUL OR SWAP1 SSTORE POP DUP3 PUSH1 0x3 DUP2 SWAP1 SSTORE POP DUP2 PUSH1 0x4 DUP2 SWAP1 SSTORE POP DUP1 PUSH1 0x8 DUP2 SWAP1 SSTORE POP POP POP POP POP POP PUSH3 0x1DB JUMP JUMPDEST PUSH0 DUP1 REVERT JUMPDEST PUSH0 DUP2 SWAP1 POP SWAP2 SWAP1 POP JUMP JUMPDEST PUSH3 0xE0 DUP2 PUSH3 0xCC JUMP JUMPDEST DUP2 EQ PUSH3 0xEB JUMPI PUSH0 DUP1 REVERT JUMPDEST POP JUMP JUMPDEST PUSH0 DUP2 MLOAD SWAP1 POP PUSH3 0xFE DUP2 PUSH3 0xD5 JUMP JUMPDEST SWAP3 SWAP2 POP POP JUMP JUMPDEST PUSH1 0x2 DUP2 LT PUSH3 0x111 JUMPI PUSH0 DUP1 REVERT JUMPDEST POP JUMP JUMPDEST PUSH0 DUP2 MLOAD SWAP1 POP PUSH3 0x124 DUP2 PUSH3 0x104 JUMP JUMPDEST SWAP3 SWAP2 POP POP JUMP JUMPDEST PUSH0 DUP1 PUSH0 DUP1 PUSH0 PUSH1 0xA0 DUP7 DUP9 SUB SLT ISZERO PUSH3 0x146 JUMPI PUSH3 0x145 PUSH3 0xC8 JUMP JUMPDEST JUMPDEST PUSH0 PUSH3 0x155 DUP9 DUP3 DUP10 ADD PUSH3 0xEE JUMP JUMPDEST SWAP6 POP POP PUSH1 0x20 PUSH3 0x168 DUP9 DUP3 DUP10 ADD PUSH3 0x114 JUMP JUMPDEST SWAP5 POP POP PUSH1 0x40 PUSH3 0x17B DUP9 DUP3 DUP10 ADD PUSH3 0xEE JUMP JUMPDEST SWAP4 POP POP PUSH1 0x60 PUSH3 0x18E DUP9 DUP3 DUP10 ADD PUSH3 0xEE JUMP JUMPDEST SWAP3 POP POP PUSH1 0x80 PUSH3 0x1A1 DUP9 DUP3 DUP10 ADD PUSH3 0xEE JUMP JUMPDEST SWAP2 POP POP SWAP3 SWAP6 POP SWAP3 SWAP6 SWAP1 SWAP4 POP JUMP JUMPDEST PUSH32 0x4E487B7100000000000000000000000000000000000000000000000000000000 PUSH0 MSTORE PUSH1 0x21 PUSH1 0x4 MSTORE PUSH1 0x24 PUSH0 REVERT JUMPDEST PUSH2 0x907 DUP1 PUSH3 0x1E9 PUSH0 CODECOPY PUSH0 RETURN INVALID PUSH1 0x80 PUSH1 0x40 MSTORE CALLVALUE DUP1 ISZERO PUSH2 0xF JUMPI PUSH0 DUP1 REVERT JUMPDEST POP PUSH1 0x4 CALLDATASIZE LT PUSH2 0xE8 JUMPI PUSH0 CALLDATALOAD PUSH1 0xE0 SHR DUP1 PUSH4 0x9BF27063 GT PUSH2 0x8A JUMPI DUP1 PUSH4 0xC972E063 GT PUSH2 0x64 JUMPI DUP1 PUSH4 0xC972E063 EQ PUSH2 0x23A JUMPI DUP1 PUSH4 0xCB44CDFF EQ PUSH2 0x26A JUMPI DUP1 PUSH4 0xDF15C37E EQ PUSH2 0x286 JUMPI DUP1 PUSH4 0xED3A865E EQ PUSH2 0x2A4 JUMPI PUSH2 0xE8 JUMP JUMPDEST DUP1 PUSH4 0x9BF27063 EQ PUSH2 0x1D0 JUMPI DUP1 PUSH4 0xA2FB1175 EQ PUSH2 0x1EE JUMPI DUP1 PUSH4 0xAA608D4B EQ PUSH2 0x21E JUMPI PUSH2 0xE8 JUMP JUMPDEST DUP1 PUSH4 0x516F279E GT PUSH2 0xC6 JUMPI DUP1 PUSH4 0x516F279E EQ PUSH2 0x158 JUMPI DUP1 PUSH4 0x78E97925 EQ PUSH2 0x176 JUMPI DUP1 PUSH4 0x8DA5CB5B EQ PUSH2 0x194 JUMPI DUP1 PUSH4 0x90ADEC6F EQ PUSH2 0x1B2 JUMPI PUSH2 0xE8 JUMP JUMPDEST DUP1 PUSH4 0x3197CBB6 EQ PUSH2 0xEC JUMPI DUP1 PUSH4 0x35C1D349 EQ PUSH2 0x10A JUMPI DUP1 PUSH4 0x43BDDF40 EQ PUSH2 0x13A JUMPI JUMPDEST PUSH0 DUP1 REVERT JUMPDEST PUSH2 0xF4 PUSH2 0x2C2 JUMP JUMPDEST PUSH1 0x40 MLOAD PUSH2 0x101 SWAP2 SWAP1 PUSH2 0x500 JUMP JUMPDEST PUSH1 0x40 MLOAD DUP1 SWAP2 SUB SWAP1 RETURN JUMPDEST PUSH2 0x124 PUSH1 0x4 DUP1 CALLDATASIZE SUB DUP2 ADD SWAP1 PUSH2 0x11F SWAP2 SWAP1 PUSH2 0x554 JUMP JUMPDEST PUSH2 0x2C8 JUMP JUMPDEST PUSH1 0x40 MLOAD PUSH2 0x131 SWAP2 SWAP1 PUSH2 0x5BE JUMP JUMPDEST PUSH1 0x40 MLOAD DUP1 SWAP2 SUB SWAP1 RETURN JUMPDEST PUSH2 0x142 PUSH2 0x303 JUMP JUMPDEST PUSH1 0x40 MLOAD PUSH2 0x14F SWAP2 SWAP1 PUSH2 0x500 JUMP JUMPDEST PUSH1 0x40 MLOAD DUP1 SWAP2 SUB SWAP1 RETURN JUMPDEST PUSH2 0x160 PUSH2 0x309 JUMP JUMPDEST PUSH1 0x40 MLOAD PUSH2 0x16D SWAP2 SWAP1 PUSH2 0x64A JUMP JUMPDEST PUSH1 0x40 MLOAD DUP1 SWAP2 SUB SWAP1 RETURN JUMPDEST PUSH2 0x17E PUSH2 0x31B JUMP JUMPDEST PUSH1 0x40 MLOAD PUSH2 0x18B SWAP2 SWAP1 PUSH2 0x500 JUMP JUMPDEST PUSH1 0x40 MLOAD DUP1 SWAP2 SUB SWAP1 RETURN JUMPDEST PUSH2 0x19C PUSH2 0x321 JUMP JUMPDEST PUSH1 0x40 MLOAD PUSH2 0x1A9 SWAP2 SWAP1 PUSH2 0x5BE JUMP JUMPDEST PUSH1 0x40 MLOAD DUP1 SWAP2 SUB SWAP1 RETURN JUMPDEST PUSH2 0x1BA PUSH2 0x344 JUMP JUMPDEST PUSH1 0x40 MLOAD PUSH2 0x1C7 SWAP2 SWAP1 PUSH2 0x500 JUMP JUMPDEST PUSH1 0x40 MLOAD DUP1 SWAP2 SUB SWAP1 RETURN JUMPDEST PUSH2 0x1D8 PUSH2 0x34D JUMP JUMPDEST PUSH1 0x40 MLOAD PUSH2 0x1E5 SWAP2 SWAP1 PUSH2 0x71A JUMP JUMPDEST PUSH1 0x40 MLOAD DUP1 SWAP2 SUB SWAP1 RETURN JUMPDEST PUSH2 0x208 PUSH1 0x4 DUP1 CALLDATASIZE SUB DUP2 ADD SWAP1 PUSH2 0x203 SWAP2 SWAP1 PUSH2 0x554 JUMP JUMPDEST PUSH2 0x3A3 JUMP JUMPDEST PUSH1 0x40 MLOAD PUSH2 0x215 SWAP2 SWAP1 PUSH2 0x500 JUMP JUMPDEST PUSH1 0x40 MLOAD DUP1 SWAP2 SUB SWAP1 RETURN JUMPDEST PUSH2 0x238 PUSH1 0x4 DUP1 CALLDATASIZE SUB DUP2 ADD SWAP1 PUSH2 0x233 SWAP2 SWAP1 PUSH2 0x554 JUMP JUMPDEST PUSH2 0x3C3 JUMP JUMPDEST STOP JUMPDEST PUSH2 0x254 PUSH1 0x4 DUP1 CALLDATASIZE SUB DUP2 ADD SWAP1 PUSH2 0x24F SWAP2 SWAP1 PUSH2 0x554 JUMP JUMPDEST PUSH2 0x3EC JUMP JUMPDEST PUSH1 0x40 MLOAD PUSH2 0x261 SWAP2 SWAP1 PUSH2 0x500 JUMP JUMPDEST PUSH1 0x40 MLOAD DUP1 SWAP2 SUB SWAP1 RETURN JUMPDEST PUSH2 0x284 PUSH1 0x4 DUP1 CALLDATASIZE SUB DUP2 ADD SWAP1 PUSH2 0x27F SWAP2 SWAP1 PUSH2 0x88A JUMP JUMPDEST PUSH2 0x40C JUMP JUMPDEST STOP JUMPDEST PUSH2 0x28E PUSH2 0x426 JUMP JUMPDEST PUSH1 0x40 MLOAD PUSH2 0x29B SWAP2 SWAP1 PUSH2 0x71A JUMP JUMPDEST PUSH1 0x40 MLOAD DUP1 SWAP2 SUB SWAP1 RETURN JUMPDEST PUSH2 0x2AC PUSH2 0x47C JUMP JUMPDEST PUSH1 0x40 MLOAD PUSH2 0x2B9 SWAP2 SWAP1 PUSH2 0x500 JUMP JUMPDEST PUSH1 0x40 MLOAD DUP1 SWAP2 SUB SWAP1 RETURN JUMPDEST PUSH1 0x4 SLOAD DUP2 JUMP JUMPDEST PUSH1 0x5 DUP2 DUP2 SLOAD DUP2 LT PUSH2 0x2D7 JUMPI PUSH0 DUP1 REVERT JUMPDEST SWAP1 PUSH0 MSTORE PUSH1 0x20 PUSH0 KECCAK256 ADD PUSH0 SWAP2 POP SLOAD SWAP1 PUSH2 0x100 EXP SWAP1 DIV PUSH20 0xFFFFFFFFFFFFFFFFFFFFFFFFFFFFFFFFFFFFFFFF AND DUP2 JUMP JUMPDEST PUSH1 0x8 SLOAD DUP2 JUMP JUMPDEST PUSH1 0x2 PUSH0 SWAP1 SLOAD SWAP1 PUSH2 0x100 EXP SWAP1 DIV PUSH1 0xFF AND DUP2 JUMP JUMPDEST PUSH1 0x3 SLOAD DUP2 JUMP JUMPDEST PUSH0 DUP1 SLOAD SWAP1 PUSH2 0x100 EXP SWAP1 DIV PUSH20 0xFFFFFFFFFFFFFFFFFFFFFFFFFFFFFFFFFFFFFFFF AND DUP2 JUMP JUMPDEST PUSH0 PUSH1 0x8 SLOAD SWAP1 POP SWAP1 JUMP JUMPDEST PUSH1 0x60 PUSH1 0x7 DUP1 SLOAD DUP1 PUSH1 0x20 MUL PUSH1 0x20 ADD PUSH1 0x40 MLOAD SWAP1 DUP2 ADD PUSH1 0x40 MSTORE DUP1 SWAP3 SWAP2 SWAP1 DUP2 DUP2 MSTORE PUSH1 0x20 ADD DUP3 DUP1 SLOAD DUP1 ISZERO PUSH2 0x399 JUMPI PUSH1 0x20 MUL DUP3 ADD SWAP2 SWAP1 PUSH0 MSTORE PUSH1 0x20 PUSH0 KECCAK256 SWAP1 JUMPDEST DUP2 SLOAD DUP2 MSTORE PUSH1 0x20 ADD SWAP1 PUSH1 0x1 ADD SWAP1 DUP1 DUP4 GT PUSH2 0x385 JUMPI JUMPDEST POP POP POP POP POP SWAP1 POP SWAP1 JUMP JUMPDEST PUSH1 0x6 DUP2 DUP2 SLOAD DUP2 LT PUSH2 0x3B2 JUMPI PUSH0 DUP1 REVERT JUMPDEST SWAP1 PUSH0 MSTORE PUSH1 0x20 PUSH0 KECCAK256 ADD PUSH0 SWAP2 POP SWAP1 POP SLOAD DUP2 JUMP JUMPDEST PUSH1 0x7 DUP2 SWAP1 DUP1 PUSH1 0x1 DUP2 SLOAD ADD DUP1 DUP3 SSTORE DUP1 SWAP2 POP POP PUSH1 0x1 SWAP1 SUB SWAP1 PUSH0 MSTORE PUSH1 0x20 PUSH0 KECCAK256 ADD PUSH0 SWAP1 SWAP2 SWAP1 SWAP2 SWAP1 SWAP2 POP SSTORE POP JUMP JUMPDEST PUSH1 0x7 DUP2 DUP2 SLOAD DUP2 LT PUSH2 0x3FB JUMPI PUSH0 DUP1 REVERT JUMPDEST SWAP1 PUSH0 MSTORE PUSH1 0x20 PUSH0 KECCAK256 ADD PUSH0 SWAP2 POP SWAP1 POP SLOAD DUP2 JUMP JUMPDEST DUP1 PUSH1 0x6 SWAP1 DUP1 MLOAD SWAP1 PUSH1 0x20 ADD SWAP1 PUSH2 0x422 SWAP3 SWAP2 SWAP1 PUSH2 0x482 JUMP JUMPDEST POP POP JUMP JUMPDEST PUSH1 0x60 PUSH1 0x6 DUP1 SLOAD DUP1 PUSH1 0x20 MUL PUSH1 0x20 ADD PUSH1 0x40 MLOAD SWAP1 DUP2 ADD PUSH1 0x40 MSTORE DUP1 SWAP3 SWAP2 SWAP1 DUP2 DUP2 MSTORE PUSH1 0x20 ADD DUP3 DUP1 SLOAD DUP1 ISZERO PUSH2 0x472 JUMPI PUSH1 0x20 MUL DUP3 ADD SWAP2 SWAP1 PUSH0 MSTORE PUSH1 0x20 PUSH0 KECCAK256 SWAP1 JUMPDEST DUP2 SLOAD DUP2 MSTORE PUSH1 0x20 ADD SWAP1 PUSH1 0x1 ADD SWAP1 DUP1 DUP4 GT PUSH2 0x45E JUMPI JUMPDEST POP POP POP POP POP SWAP1 POP SWAP1 JUMP JUMPDEST PUSH1 0x1 SLOAD DUP2 JUMP JUMPDEST DUP3 DUP1 SLOAD DUP3 DUP3 SSTORE SWAP1 PUSH0 MSTORE PUSH1 0x20 PUSH0 KECCAK256 SWAP1 DUP2 ADD SWAP3 DUP3 ISZERO PUSH2 0x4BC JUMPI SWAP2 PUSH1 0x20 MUL DUP3 ADD JUMPDEST DUP3 DUP2 GT ISZERO PUSH2 0x4BB JUMPI DUP3 MLOAD DUP3 SSTORE SWAP2 PUSH1 0x20 ADD SWAP2 SWAP1 PUSH1 0x1 ADD SWAP1 PUSH2 0x4A0 JUMP JUMPDEST JUMPDEST POP SWAP1 POP PUSH2 0x4C9 SWAP2 SWAP1 PUSH2 0x4CD JUMP JUMPDEST POP SWAP1 JUMP JUMPDEST JUMPDEST DUP1 DUP3 GT ISZERO PUSH2 0x4E4 JUMPI PUSH0 DUP2 PUSH0 SWAP1 SSTORE POP PUSH1 0x1 ADD PUSH2 0x4CE JUMP JUMPDEST POP SWAP1 JUMP JUMPDEST PUSH0 DUP2 SWAP1 POP SWAP2 SWAP1 POP JUMP JUMPDEST PUSH2 0x4FA DUP2 PUSH2 0x4E8 JUMP JUMPDEST DUP3 MSTORE POP POP JUMP JUMPDEST PUSH0 PUSH1 0x20 DUP3 ADD SWAP1 POP PUSH2 0x513 PUSH0 DUP4 ADD DUP5 PUSH2 0x4F1 JUMP JUMPDEST SWAP3 SWAP2 POP POP JUMP JUMPDEST PUSH0 PUSH1 0x40 MLOAD SWAP1 POP SWAP1 JUMP JUMPDEST PUSH0 DUP1 REVERT JUMPDEST PUSH0 DUP1 REVERT JUMPDEST PUSH2 0x533 DUP2 PUSH2 0x4E8 JUMP JUMPDEST DUP2 EQ PUSH2 0x53D JUMPI PUSH0 DUP1 REVERT JUMPDEST POP JUMP JUMPDEST PUSH0 DUP2 CALLDATALOAD SWAP1 POP PUSH2 0x54E DUP2 PUSH2 0x52A JUMP JUMPDEST SWAP3 SWAP2 POP POP JUMP JUMPDEST PUSH0 PUSH1 0x20 DUP3 DUP5 SUB SLT ISZERO PUSH2 0x569 JUMPI PUSH2 0x568 PUSH2 0x522 JUMP JUMPDEST JUMPDEST PUSH0 PUSH2 0x576 DUP5 DUP3 DUP6 ADD PUSH2 0x540 JUMP JUMPDEST SWAP2 POP POP SWAP3 SWAP2 POP POP JUMP JUMPDEST PUSH0 PUSH20 0xFFFFFFFFFFFFFFFFFFFFFFFFFFFFFFFFFFFFFFFF DUP3 AND SWAP1 POP SWAP2 SWAP1 POP JUMP JUMPDEST PUSH0 PUSH2 0x5A8 DUP3 PUSH2 0x57F JUMP JUMPDEST SWAP1 POP SWAP2 SWAP1 POP JUMP JUMPDEST PUSH2 0x5B8 DUP2 PUSH2 0x59E JUMP JUMPDEST DUP3 MSTORE POP POP JUMP JUMPDEST PUSH0 PUSH1 0x20 DUP3 ADD SWAP1 POP PUSH2 0x5D1 PUSH0 DUP4 ADD DUP5 PUSH2 0x5AF JUMP JUMPDEST SWAP3 SWAP2 POP POP JUMP JUMPDEST PUSH32 0x4E487B7100000000000000000000000000000000000000000000000000000000 PUSH0 MSTORE PUSH1 0x21 PUSH1 0x4 MSTORE PUSH1 0x24 PUSH0 REVERT JUMPDEST PUSH1 0x2 DUP2 LT PUSH2 0x615 JUMPI PUSH2 0x614 PUSH2 0x5D7 JUMP JUMPDEST JUMPDEST POP JUMP JUMPDEST PUSH0 DUP2 SWAP1 POP PUSH2 0x625 DUP3 PUSH2 0x604 JUMP JUMPDEST SWAP2 SWAP1 POP JUMP JUMPDEST PUSH0 PUSH2 0x634 DUP3 PUSH2 0x618 JUMP JUMPDEST SWAP1 POP SWAP2 SWAP1 POP JUMP JUMPDEST PUSH2 0x644 DUP2 PUSH2 0x62A JUMP JUMPDEST DUP3 MSTORE POP POP JUMP JUMPDEST PUSH0 PUSH1 0x20 DUP3 ADD SWAP1 POP PUSH2 0x65D PUSH0 DUP4 ADD DUP5 PUSH2 0x63B JUMP JUMPDEST SWAP3 SWAP2 POP POP JUMP JUMPDEST PUSH0 DUP2 MLOAD SWAP1 POP SWAP2 SWAP1 POP JUMP JUMPDEST PUSH0 DUP3 DUP3 MSTORE PUSH1 0x20 DUP3 ADD SWAP1 POP SWAP3 SWAP2 POP POP JUMP JUMPDEST PUSH0 DUP2 SWAP1 POP PUSH1 0x20 DUP3 ADD SWAP1 POP SWAP2 SWAP1 POP JUMP JUMPDEST PUSH2 0x695 DUP2 PUSH2 0x4E8 JUMP JUMPDEST DUP3 MSTORE POP POP JUMP JUMPDEST PUSH0 PUSH2 0x6A6 DUP4 DUP4 PUSH2 0x68C JUMP JUMPDEST PUSH1 0x20 DUP4 ADD SWAP1 POP SWAP3 SWAP2 POP POP JUMP JUMPDEST PUSH0 PUSH1 0x20 DUP3 ADD SWAP1 POP SWAP2 SWAP1 POP JUMP JUMPDEST PUSH0 PUSH2 0x6C8 DUP3 PUSH2 0x663 JUMP JUMPDEST PUSH2 0x6D2 DUP2 DUP6 PUSH2 0x66D JUMP JUMPDEST SWAP4 POP PUSH2 0x6DD DUP4 PUSH2 0x67D JUMP JUMPDEST DUP1 PUSH0 JUMPDEST DUP4 DUP2 LT ISZERO PUSH2 0x70D JUMPI DUP2 MLOAD PUSH2 0x6F4 DUP9 DUP3 PUSH2 0x69B JUMP JUMPDEST SWAP8 POP PUSH2 0x6FF DUP4 PUSH2 0x6B2 JUMP JUMPDEST SWAP3 POP POP PUSH1 0x1 DUP2 ADD SWAP1 POP PUSH2 0x6E0 JUMP JUMPDEST POP DUP6 SWAP4 POP POP POP POP SWAP3 SWAP2 POP POP JUMP JUMPDEST PUSH0 PUSH1 0x20 DUP3 ADD SWAP1 POP DUP2 DUP2 SUB PUSH0 DUP4 ADD MSTORE PUSH2 0x732 DUP2 DUP5 PUSH2 0x6BE JUMP JUMPDEST SWAP1 POP SWAP3 SWAP2 POP POP JUMP JUMPDEST PUSH0 DUP1 REVERT JUMPDEST PUSH0 PUSH1 0x1F NOT PUSH1 0x1F DUP4 ADD AND SWAP1 POP SWAP2 SWAP1 POP JUMP JUMPDEST PUSH32 0x4E487B7100000000000000000000000000000000000000000000000000000000 PUSH0 MSTORE PUSH1 0x41 PUSH1 0x4 MSTORE PUSH1 0x24 PUSH0 REVERT JUMPDEST PUSH2 0x784 DUP3 PUSH2 0x73E JUMP JUMPDEST DUP2 ADD DUP2 DUP2 LT PUSH8 0xFFFFFFFFFFFFFFFF DUP3 GT OR ISZERO PUSH2 0x7A3 JUMPI PUSH2 0x7A2 PUSH2 0x74E JUMP JUMPDEST JUMPDEST DUP1 PUSH1 0x40 MSTORE POP POP POP JUMP JUMPDEST PUSH0 PUSH2 0x7B5 PUSH2 0x519 JUMP JUMPDEST SWAP1 POP PUSH2 0x7C1 DUP3 DUP3 PUSH2 0x77B JUMP JUMPDEST SWAP2 SWAP1 POP JUMP JUMPDEST PUSH0 PUSH8 0xFFFFFFFFFFFFFFFF DUP3 GT ISZERO PUSH2 0x7E0 JUMPI PUSH2 0x7DF PUSH2 0x74E JUMP JUMPDEST JUMPDEST PUSH1 0x20 DUP3 MUL SWAP1 POP PUSH1 0x20 DUP2 ADD SWAP1 POP SWAP2 SWAP1 POP JUMP JUMPDEST PUSH0 DUP1 REVERT JUMPDEST PUSH0 PUSH2 0x807 PUSH2 0x802 DUP5 PUSH2 0x7C6 JUMP JUMPDEST PUSH2 0x7AC JUMP JUMPDEST SWAP1 POP DUP1 DUP4 DUP3 MSTORE PUSH1 0x20 DUP3 ADD SWAP1 POP PUSH1 0x20 DUP5 MUL DUP4 ADD DUP6 DUP2 GT ISZERO PUSH2 0x82A JUMPI PUSH2 0x829 PUSH2 0x7F1 JUMP JUMPDEST JUMPDEST DUP4 JUMPDEST DUP2 DUP2 LT ISZERO PUSH2 0x853 JUMPI DUP1 PUSH2 0x83F DUP9 DUP3 PUSH2 0x540 JUMP JUMPDEST DUP5 MSTORE PUSH1 0x20 DUP5 ADD SWAP4 POP POP PUSH1 0x20 DUP2 ADD SWAP1 POP PUSH2 0x82C JUMP JUMPDEST POP POP POP SWAP4 SWAP3 POP POP POP JUMP JUMPDEST PUSH0 DUP3 PUSH1 0x1F DUP4 ADD SLT PUSH2 0x871 JUMPI PUSH2 0x870 PUSH2 0x73A JUMP JUMPDEST JUMPDEST DUP2 CALLDATALOAD PUSH2 0x881 DUP5 DUP3 PUSH1 0x20 DUP7 ADD PUSH2 0x7F5 JUMP JUMPDEST SWAP2 POP POP SWAP3 SWAP2 POP POP JUMP JUMPDEST PUSH0 PUSH1 0x20 DUP3 DUP5 SUB SLT ISZERO PUSH2 0x89F JUMPI PUSH2 0x89E PUSH2 0x522 JUMP JUMPDEST JUMPDEST PUSH0 DUP3 ADD CALLDATALOAD PUSH8 0xFFFFFFFFFFFFFFFF DUP2 GT ISZERO PUSH2 0x8BC JUMPI PUSH2 0x8BB PUSH2 0x526 JUMP JUMPDEST JUMPDEST PUSH2 0x8C8 DUP5 DUP3 DUP6 ADD PUSH2 0x85D JUMP JUMPDEST SWAP2 POP POP SWAP3 SWAP2 POP POP JUMP INVALID LOG2 PUSH5 0x6970667358 0x22 SLT KECCAK256 CREATE2 PUSH17 0xCFC7B9AC7A95CE8BE239D43A2DC05A470C PUSH14 0xF8CFEF21418F4A53CDF4FAA06473 PUSH16 0x6C634300081500336080604052348015 PUSH3 0x10 JUMPI PUSH0 DUP1 REVERT JUMPDEST POP PUSH1 0x40 MLOAD PUSH3 0x9FC CODESIZE SUB DUP1 PUSH3 0x9FC DUP4 CODECOPY DUP2 DUP2 ADD PUSH1 0x40 MSTORE DUP2 ADD SWAP1 PUSH3 0x36 SWAP2 SWAP1 PUSH3 0x280 JUMP JUMPDEST DUP6 PUSH0 DUP2 SWAP1 SSTORE POP DUP1 PUSH1 0x2 DUP2 SWAP1 SSTORE POP DUP3 PUSH1 0x3 PUSH1 0x14 PUSH2 0x100 EXP DUP2 SLOAD DUP2 PUSH1 0xFF MUL NOT AND SWAP1 DUP4 PUSH1 0x1 DUP2 GT ISZERO PUSH3 0x6B JUMPI PUSH3 0x6A PUSH3 0x318 JUMP JUMPDEST JUMPDEST MUL OR SWAP1 SSTORE POP PUSH1 0x3 DUP1 PUSH1 0x15 PUSH2 0x100 EXP DUP2 SLOAD DUP2 PUSH1 0xFF MUL NOT AND SWAP1 DUP4 PUSH1 0x3 DUP2 GT ISZERO PUSH3 0x98 JUMPI PUSH3 0x97 PUSH3 0x318 JUMP JUMPDEST JUMPDEST MUL OR SWAP1 SSTORE POP DUP4 PUSH1 0x4 PUSH0 CALLER PUSH20 0xFFFFFFFFFFFFFFFFFFFFFFFFFFFFFFFFFFFFFFFF AND PUSH20 0xFFFFFFFFFFFFFFFFFFFFFFFFFFFFFFFFFFFFFFFF AND DUP2 MSTORE PUSH1 0x20 ADD SWAP1 DUP2 MSTORE PUSH1 0x20 ADD PUSH0 KECCAK256 PUSH0 PUSH2 0x100 EXP DUP2 SLOAD DUP2 PUSH1 0xFF MUL NOT AND SWAP1 DUP4 PUSH1 0x2 DUP2 GT ISZERO PUSH3 0xFF JUMPI PUSH3 0xFE PUSH3 0x318 JUMP JUMPDEST JUMPDEST MUL OR SWAP1 SSTORE POP DUP2 PUSH1 0x1 DUP2 SWAP1 SSTORE POP DUP5 PUSH1 0x3 PUSH0 PUSH2 0x100 EXP DUP2 SLOAD DUP2 PUSH20 0xFFFFFFFFFFFFFFFFFFFFFFFFFFFFFFFFFFFFFFFF MUL NOT AND SWAP1 DUP4 PUSH20 0xFFFFFFFFFFFFFFFFFFFFFFFFFFFFFFFFFFFFFFFF AND MUL OR SWAP1 SSTORE POP DUP5 PUSH1 0x5 PUSH0 PUSH2 0x100 EXP DUP2 SLOAD DUP2 PUSH20 0xFFFFFFFFFFFFFFFFFFFFFFFFFFFFFFFFFFFFFFFF MUL NOT AND SWAP1 DUP4 PUSH20 0xFFFFFFFFFFFFFFFFFFFFFFFFFFFFFFFFFFFFFFFF AND MUL OR SWAP1 SSTORE POP POP POP POP POP POP POP PUSH3 0x345 JUMP JUMPDEST PUSH0 DUP1 REVERT JUMPDEST PUSH0 DUP2 SWAP1 POP SWAP2 SWAP1 POP JUMP JUMPDEST PUSH3 0x1AF DUP2 PUSH3 0x19B JUMP JUMPDEST DUP2 EQ PUSH3 0x1BA JUMPI PUSH0 DUP1 REVERT JUMPDEST POP JUMP JUMPDEST PUSH0 DUP2 MLOAD SWAP1 POP PUSH3 0x1CD DUP2 PUSH3 0x1A4 JUMP JUMPDEST SWAP3 SWAP2 POP POP JUMP JUMPDEST PUSH0 PUSH20 0xFFFFFFFFFFFFFFFFFFFFFFFFFFFFFFFFFFFFFFFF DUP3 AND SWAP1 POP SWAP2 SWAP1 POP JUMP JUMPDEST PUSH0 PUSH3 0x1FE DUP3 PUSH3 0x1D3 JUMP JUMPDEST SWAP1 POP SWAP2 SWAP1 POP JUMP JUMPDEST PUSH3 0x210 DUP2 PUSH3 0x1F2 JUMP JUMPDEST DUP2 EQ PUSH3 0x21B JUMPI PUSH0 DUP1 REVERT JUMPDEST POP JUMP JUMPDEST PUSH0 DUP2 MLOAD SWAP1 POP PUSH3 0x22E DUP2 PUSH3 0x205 JUMP JUMPDEST SWAP3 SWAP2 POP POP JUMP JUMPDEST PUSH1 0x3 DUP2 LT PUSH3 0x241 JUMPI PUSH0 DUP1 REVERT JUMPDEST POP JUMP JUMPDEST PUSH0 DUP2 MLOAD SWAP1 POP PUSH3 0x254 DUP2 PUSH3 0x234 JUMP JUMPDEST SWAP3 SWAP2 POP POP JUMP JUMPDEST PUSH1 0x2 DUP2 LT PUSH3 0x267 JUMPI PUSH0 DUP1 REVERT JUMPDEST POP JUMP JUMPDEST PUSH0 DUP2 MLOAD SWAP1 POP PUSH3 0x27A DUP2 PUSH3 0x25A JUMP JUMPDEST SWAP3 SWAP2 POP POP JUMP JUMPDEST PUSH0 DUP1 PUSH0 DUP1 PUSH0 DUP1 PUSH1 0xC0 DUP8 DUP10 SUB SLT ISZERO PUSH3 0x29D JUMPI PUSH3 0x29C PUSH3 0x197 JUMP JUMPDEST JUMPDEST PUSH0 PUSH3 0x2AC DUP10 DUP3 DUP11 ADD PUSH3 0x1BD JUMP JUMPDEST SWAP7 POP POP PUSH1 0x20 PUSH3 0x2BF DUP10 DUP3 DUP11 ADD PUSH3 0x21E JUMP JUMPDEST SWAP6 POP POP PUSH1 0x40 PUSH3 0x2D2 DUP10 DUP3 DUP11 ADD PUSH3 0x244 JUMP JUMPDEST SWAP5 POP POP PUSH1 0x60 PUSH3 0x2E5 DUP10 DUP3 DUP11 ADD PUSH3 0x26A JUMP JUMPDEST SWAP4 POP POP PUSH1 0x80 PUSH3 0x2F8 DUP10 DUP3 DUP11 ADD PUSH3 0x1BD JUMP JUMPDEST SWAP3 POP POP PUSH1 0xA0 PUSH3 0x30B DUP10 DUP3 DUP11 ADD PUSH3 0x1BD JUMP JUMPDEST SWAP2 POP POP SWAP3 SWAP6 POP SWAP3 SWAP6 POP SWAP3 SWAP6 JUMP JUMPDEST PUSH32 0x4E487B7100000000000000000000000000000000000000000000000000000000 PUSH0 MSTORE PUSH1 0x21 PUSH1 0x4 MSTORE PUSH1 0x24 PUSH0 REVERT JUMPDEST PUSH2 0x6A9 DUP1 PUSH3 0x353 PUSH0 CODECOPY PUSH0 RETURN INVALID PUSH1 0x80 PUSH1 0x40 MSTORE CALLVALUE DUP1 ISZERO PUSH2 0xF JUMPI PUSH0 DUP1 REVERT JUMPDEST POP PUSH1 0x4 CALLDATASIZE LT PUSH2 0xCD JUMPI PUSH0 CALLDATALOAD PUSH1 0xE0 SHR DUP1 PUSH4 0xAA8C217C GT PUSH2 0x8A JUMPI DUP1 PUSH4 0xD321FE29 GT PUSH2 0x64 JUMPI DUP1 PUSH4 0xD321FE29 EQ PUSH2 0x1F1 JUMPI DUP1 PUSH4 0xED3A865E EQ PUSH2 0x20F JUMPI DUP1 PUSH4 0xF43C0ECA EQ PUSH2 0x22D JUMPI DUP1 PUSH4 0xFC0C546A EQ PUSH2 0x249 JUMPI PUSH2 0xCD JUMP JUMPDEST DUP1 PUSH4 0xAA8C217C EQ PUSH2 0x197 JUMPI DUP1 PUSH4 0xBFB3047F EQ PUSH2 0x1B5 JUMPI DUP1 PUSH4 0xC41A0C60 EQ PUSH2 0x1D3 JUMPI PUSH2 0xCD JUMP JUMPDEST DUP1 PUSH4 0x10FE9AE8 EQ PUSH2 0xD1 JUMPI DUP1 PUSH4 0x21DF0DA7 EQ PUSH2 0xEF JUMPI DUP1 PUSH4 0x3F3A279D EQ PUSH2 0x10D JUMPI DUP1 PUSH4 0x4E92A646 EQ PUSH2 0x12B JUMPI DUP1 PUSH4 0x516F279E EQ PUSH2 0x15B JUMPI DUP1 PUSH4 0xA1B9182A EQ PUSH2 0x179 JUMPI JUMPDEST PUSH0 DUP1 REVERT JUMPDEST PUSH2 0xD9 PUSH2 0x267 JUMP JUMPDEST PUSH1 0x40 MLOAD PUSH2 0xE6 SWAP2 SWAP1 PUSH2 0x3C4 JUMP JUMPDEST PUSH1 0x40 MLOAD DUP1 SWAP2 SUB SWAP1 RETURN JUMPDEST PUSH2 0xF7 PUSH2 0x28F JUMP JUMPDEST PUSH1 0x40 MLOAD PUSH2 0x104 SWAP2 SWAP1 PUSH2 0x438 JUMP JUMPDEST PUSH1 0x40 MLOAD DUP1 SWAP2 SUB SWAP1 RETURN JUMPDEST PUSH2 0x115 PUSH2 0x2B7 JUMP JUMPDEST PUSH1 0x40 MLOAD PUSH2 0x122 SWAP2 SWAP1 PUSH2 0x4C4 JUMP JUMPDEST PUSH1 0x40 MLOAD DUP1 SWAP2 SUB SWAP1 RETURN JUMPDEST PUSH2 0x145 PUSH1 0x4 DUP1 CALLDATASIZE SUB DUP2 ADD SWAP1 PUSH2 0x140 SWAP2 SWAP1 PUSH2 0x50B JUMP JUMPDEST PUSH2 0x2CD JUMP JUMPDEST PUSH1 0x40 MLOAD PUSH2 0x152 SWAP2 SWAP1 PUSH2 0x57C JUMP JUMPDEST PUSH1 0x40 MLOAD DUP1 SWAP2 SUB SWAP1 RETURN JUMPDEST PUSH2 0x163 PUSH2 0x2EA JUMP JUMPDEST PUSH1 0x40 MLOAD PUSH2 0x170 SWAP2 SWAP1 PUSH2 0x5DB JUMP JUMPDEST PUSH1 0x40 MLOAD DUP1 SWAP2 SUB SWAP1 RETURN JUMPDEST PUSH2 0x181 PUSH2 0x2FD JUMP JUMPDEST PUSH1 0x40 MLOAD PUSH2 0x18E SWAP2 SWAP1 PUSH2 0x60C JUMP JUMPDEST PUSH1 0x40 MLOAD DUP1 SWAP2 SUB SWAP1 RETURN JUMPDEST PUSH2 0x19F PUSH2 0x306 JUMP JUMPDEST PUSH1 0x40 MLOAD PUSH2 0x1AC SWAP2 SWAP1 PUSH2 0x60C JUMP JUMPDEST PUSH1 0x40 MLOAD DUP1 SWAP2 SUB SWAP1 RETURN JUMPDEST PUSH2 0x1BD PUSH2 0x30C JUMP JUMPDEST PUSH1 0x40 MLOAD PUSH2 0x1CA SWAP2 SWAP1 PUSH2 0x4C4 JUMP JUMPDEST PUSH1 0x40 MLOAD DUP1 SWAP2 SUB SWAP1 RETURN JUMPDEST PUSH2 0x1DB PUSH2 0x31F JUMP JUMPDEST PUSH1 0x40 MLOAD PUSH2 0x1E8 SWAP2 SWAP1 PUSH2 0x60C JUMP JUMPDEST PUSH1 0x40 MLOAD DUP1 SWAP2 SUB SWAP1 RETURN JUMPDEST PUSH2 0x1F9 PUSH2 0x325 JUMP JUMPDEST PUSH1 0x40 MLOAD PUSH2 0x206 SWAP2 SWAP1 PUSH2 0x60C JUMP JUMPDEST PUSH1 0x40 MLOAD DUP1 SWAP2 SUB SWAP1 RETURN JUMPDEST PUSH2 0x217 PUSH2 0x32E JUMP JUMPDEST PUSH1 0x40 MLOAD PUSH2 0x224 SWAP2 SWAP1 PUSH2 0x60C JUMP JUMPDEST PUSH1 0x40 MLOAD DUP1 SWAP2 SUB SWAP1 RETURN JUMPDEST PUSH2 0x247 PUSH1 0x4 DUP1 CALLDATASIZE SUB DUP2 ADD SWAP1 PUSH2 0x242 SWAP2 SWAP1 PUSH2 0x648 JUMP JUMPDEST PUSH2 0x333 JUMP JUMPDEST STOP JUMPDEST PUSH2 0x251 PUSH2 0x360 JUMP JUMPDEST PUSH1 0x40 MLOAD PUSH2 0x25E SWAP2 SWAP1 PUSH2 0x438 JUMP JUMPDEST PUSH1 0x40 MLOAD DUP1 SWAP2 SUB SWAP1 RETURN JUMPDEST PUSH0 PUSH1 0x3 PUSH0 SWAP1 SLOAD SWAP1 PUSH2 0x100 EXP SWAP1 DIV PUSH20 0xFFFFFFFFFFFFFFFFFFFFFFFFFFFFFFFFFFFFFFFF AND SWAP1 POP SWAP1 JUMP JUMPDEST PUSH0 PUSH1 0x5 PUSH0 SWAP1 SLOAD SWAP1 PUSH2 0x100 EXP SWAP1 DIV PUSH20 0xFFFFFFFFFFFFFFFFFFFFFFFFFFFFFFFFFFFFFFFF AND SWAP1 POP SWAP1 JUMP JUMPDEST PUSH0 PUSH1 0x3 PUSH1 0x15 SWAP1 SLOAD SWAP1 PUSH2 0x100 EXP SWAP1 DIV PUSH1 0xFF AND SWAP1 POP SWAP1 JUMP JUMPDEST PUSH1 0x4 PUSH1 0x20 MSTORE DUP1 PUSH0 MSTORE PUSH1 0x40 PUSH0 KECCAK256 PUSH0 SWAP2 POP SLOAD SWAP1 PUSH2 0x100 EXP SWAP1 DIV PUSH1 0xFF AND DUP2 JUMP JUMPDEST PUSH1 0x3 PUSH1 0x14 SWAP1 SLOAD SWAP1 PUSH2 0x100 EXP SWAP1 DIV PUSH1 0xFF AND DUP2 JUMP JUMPDEST PUSH0 PUSH1 0x2 SLOAD SWAP1 POP SWAP1 JUMP JUMPDEST PUSH1 0x1 SLOAD DUP2 JUMP JUMPDEST PUSH1 0x3 PUSH1 0x15 SWAP1 SLOAD SWAP1 PUSH2 0x100 EXP SWAP1 DIV PUSH1 0xFF AND DUP2 JUMP JUMPDEST PUSH1 0x2 SLOAD DUP2 JUMP JUMPDEST PUSH0 PUSH1 0x1 SLOAD SWAP1 POP SWAP1 JUMP JUMPDEST PUSH0 SLOAD DUP2 JUMP JUMPDEST DUP1 PUSH1 0x3 PUSH1 0x15 PUSH2 0x100 EXP DUP2 SLOAD DUP2 PUSH1 0xFF MUL NOT AND SWAP1 DUP4 PUSH1 0x3 DUP2 GT ISZERO PUSH2 0x358 JUMPI PUSH2 0x357 PUSH2 0x451 JUMP JUMPDEST JUMPDEST MUL OR SWAP1 SSTORE POP POP JUMP JUMPDEST PUSH1 0x5 PUSH0 SWAP1 SLOAD SWAP1 PUSH2 0x100 EXP SWAP1 DIV PUSH20 0xFFFFFFFFFFFFFFFFFFFFFFFFFFFFFFFFFFFFFFFF AND DUP2 JUMP JUMPDEST PUSH0 PUSH20 0xFFFFFFFFFFFFFFFFFFFFFFFFFFFFFFFFFFFFFFFF DUP3 AND SWAP1 POP SWAP2 SWAP1 POP JUMP JUMPDEST PUSH0 PUSH2 0x3AE DUP3 PUSH2 0x385 JUMP JUMPDEST SWAP1 POP SWAP2 SWAP1 POP JUMP JUMPDEST PUSH2 0x3BE DUP2 PUSH2 0x3A4 JUMP JUMPDEST DUP3 MSTORE POP POP JUMP JUMPDEST PUSH0 PUSH1 0x20 DUP3 ADD SWAP1 POP PUSH2 0x3D7 PUSH0 DUP4 ADD DUP5 PUSH2 0x3B5 JUMP JUMPDEST SWAP3 SWAP2 POP POP JUMP JUMPDEST PUSH0 DUP2 SWAP1 POP SWAP2 SWAP1 POP JUMP JUMPDEST PUSH0 PUSH2 0x400 PUSH2 0x3FB PUSH2 0x3F6 DUP5 PUSH2 0x385 JUMP JUMPDEST PUSH2 0x3DD JUMP JUMPDEST PUSH2 0x385 JUMP JUMPDEST SWAP1 POP SWAP2 SWAP1 POP JUMP JUMPDEST PUSH0 PUSH2 0x411 DUP3 PUSH2 0x3E6 JUMP JUMPDEST SWAP1 POP SWAP2 SWAP1 POP JUMP JUMPDEST PUSH0 PUSH2 0x422 DUP3 PUSH2 0x407 JUMP JUMPDEST SWAP1 POP SWAP2 SWAP1 POP JUMP JUMPDEST PUSH2 0x432 DUP2 PUSH2 0x418 JUMP JUMPDEST DUP3 MSTORE POP POP JUMP JUMPDEST PUSH0 PUSH1 0x20 DUP3 ADD SWAP1 POP PUSH2 0x44B PUSH0 DUP4 ADD DUP5 PUSH2 0x429 JUMP JUMPDEST SWAP3 SWAP2 POP POP JUMP JUMPDEST PUSH32 0x4E487B7100000000000000000000000000000000000000000000000000000000 PUSH0 MSTORE PUSH1 0x21 PUSH1 0x4 MSTORE PUSH1 0x24 PUSH0 REVERT JUMPDEST PUSH1 0x4 DUP2 LT PUSH2 0x48F JUMPI PUSH2 0x48E PUSH2 0x451 JUMP JUMPDEST JUMPDEST POP JUMP JUMPDEST PUSH0 DUP2 SWAP1 POP PUSH2 0x49F DUP3 PUSH2 0x47E JUMP JUMPDEST SWAP2 SWAP1 POP JUMP JUMPDEST PUSH0 PUSH2 0x4AE DUP3 PUSH2 0x492 JUMP JUMPDEST SWAP1 POP SWAP2 SWAP1 POP JUMP JUMPDEST PUSH2 0x4BE DUP2 PUSH2 0x4A4 JUMP JUMPDEST DUP3 MSTORE POP POP JUMP JUMPDEST PUSH0 PUSH1 0x20 DUP3 ADD SWAP1 POP PUSH2 0x4D7 PUSH0 DUP4 ADD DUP5 PUSH2 0x4B5 JUMP JUMPDEST SWAP3 SWAP2 POP POP JUMP JUMPDEST PUSH0 DUP1 REVERT JUMPDEST PUSH2 0x4EA DUP2 PUSH2 0x3A4 JUMP JUMPDEST DUP2 EQ PUSH2 0x4F4 JUMPI PUSH0 DUP1 REVERT JUMPDEST POP JUMP JUMPDEST PUSH0 DUP2 CALLDATALOAD SWAP1 POP PUSH2 0x505 DUP2 PUSH2 0x4E1 JUMP JUMPDEST SWAP3 SWAP2 POP POP JUMP JUMPDEST PUSH0 PUSH1 0x20 DUP3 DUP5 SUB SLT ISZERO PUSH2 0x520 JUMPI PUSH2 0x51F PUSH2 0x4DD JUMP JUMPDEST JUMPDEST PUSH0 PUSH2 0x52D DUP5 DUP3 DUP6 ADD PUSH2 0x4F7 JUMP JUMPDEST SWAP2 POP POP SWAP3 SWAP2 POP POP JUMP JUMPDEST PUSH1 0x3 DUP2 LT PUSH2 0x547 JUMPI PUSH2 0x546 PUSH2 0x451 JUMP JUMPDEST JUMPDEST POP JUMP JUMPDEST PUSH0 DUP2 SWAP1 POP PUSH2 0x557 DUP3 PUSH2 0x536 JUMP JUMPDEST SWAP2 SWAP1 POP JUMP JUMPDEST PUSH0 PUSH2 0x566 DUP3 PUSH2 0x54A JUMP JUMPDEST SWAP1 POP SWAP2 SWAP1 POP JUMP JUMPDEST PUSH2 0x576 DUP2 PUSH2 0x55C JUMP JUMPDEST DUP3 MSTORE POP POP JUMP JUMPDEST PUSH0 PUSH1 0x20 DUP3 ADD SWAP1 POP PUSH2 0x58F PUSH0 DUP4 ADD DUP5 PUSH2 0x56D JUMP JUMPDEST SWAP3 SWAP2 POP POP JUMP JUMPDEST PUSH1 0x2 DUP2 LT PUSH2 0x5A6 JUMPI PUSH2 0x5A5 PUSH2 0x451 JUMP JUMPDEST JUMPDEST POP JUMP JUMPDEST PUSH0 DUP2 SWAP1 POP PUSH2 0x5B6 DUP3 PUSH2 0x595 JUMP JUMPDEST SWAP2 SWAP1 POP JUMP JUMPDEST PUSH0 PUSH2 0x5C5 DUP3 PUSH2 0x5A9 JUMP JUMPDEST SWAP1 POP SWAP2 SWAP1 POP JUMP JUMPDEST PUSH2 0x5D5 DUP2 PUSH2 0x5BB JUMP JUMPDEST DUP3 MSTORE POP POP JUMP JUMPDEST PUSH0 PUSH1 0x20 DUP3 ADD SWAP1 POP PUSH2 0x5EE PUSH0 DUP4 ADD DUP5 PUSH2 0x5CC JUMP JUMPDEST SWAP3 SWAP2 POP POP JUMP JUMPDEST PUSH0 DUP2 SWAP1 POP SWAP2 SWAP1 POP JUMP JUMPDEST PUSH2 0x606 DUP2 PUSH2 0x5F4 JUMP JUMPDEST DUP3 MSTORE POP POP JUMP JUMPDEST PUSH0 PUSH1 0x20 DUP3 ADD SWAP1 POP PUSH2 0x61F PUSH0 DUP4 ADD DUP5 PUSH2 0x5FD JUMP JUMPDEST SWAP3 SWAP2 POP POP JUMP JUMPDEST PUSH1 0x4 DUP2 LT PUSH2 0x631 JUMPI PUSH0 DUP1 REVERT JUMPDEST POP JUMP JUMPDEST PUSH0 DUP2 CALLDATALOAD SWAP1 POP PUSH2 0x642 DUP2 PUSH2 0x625 JUMP JUMPDEST SWAP3 SWAP2 POP POP JUMP JUMPDEST PUSH0 PUSH1 0x20 DUP3 DUP5 SUB SLT ISZERO PUSH2 0x65D JUMPI PUSH2 0x65C PUSH2 0x4DD JUMP JUMPDEST JUMPDEST PUSH0 PUSH2 0x66A DUP5 DUP3 DUP6 ADD PUSH2 0x634 JUMP JUMPDEST SWAP2 POP POP SWAP3 SWAP2 POP POP JUMP INVALID LOG2 PUSH5 0x6970667358 0x22 SLT KECCAK256 CHAINID SELFBALANCE 0x4D MOD CALLCODE PUSH22 0xFB18049779C48CE825BB7BBA6CD048BF7E4D8B790655 SWAP3 PUSH31 0x4D9764736F6C63430008150033A264697066735822122041BBD9D4E47E26CF GT SWAP16 0xC SIGNEXTEND 0xAA DUP6 SWAP7 PUSH31 0xF14C677B2A88DB096FB0D73356F5AFA364736F6C6343000815003300000000 "
		},
		"gasEstimates": {
			"creation": {
				"codeDepositCost": "2965600",
				"executionCost": "8258",
				"totalCost": "2973858"
			},
			"external": {
				"DECIMALS()": "414",
				"HUNDRED()": "391",
				"bets(uint256)": "infinite",
				"betsInSystem()": "2448",
				"createBet(uint256,uint256,uint256,uint8,uint8,address)": "infinite",
				"createRace(uint256,uint256,uint256,uint256,uint8)": "infinite",
				"divide(uint256,uint256)": "infinite",
				"evaluateRace(uint256)": "infinite",
				"multiply(uint256,uint256)": "infinite",
				"power(uint256,uint256)": "infinite",
				"raceExists(uint256)": "infinite",
				"raceToBet(uint256,uint256)": "infinite",
				"races(uint256)": "infinite"
			},
			"internal": {
				"NthWinnerPercent(uint256)": "infinite",
				"distribute(uint256,uint256)": "infinite",
				"getRandom(uint256)": "infinite"
			}
		},
		"methodIdentifiers": {
			"DECIMALS()": "2e0f2625",
			"HUNDRED()": "f85fc0ab",
			"bets(uint256)": "22af00fa",
			"betsInSystem()": "463407fd",
			"createBet(uint256,uint256,uint256,uint8,uint8,address)": "7ed14a2c",
			"createRace(uint256,uint256,uint256,uint256,uint8)": "51b0be77",
			"divide(uint256,uint256)": "f88e9fbf",
			"evaluateRace(uint256)": "114db12f",
			"multiply(uint256,uint256)": "165c4a16",
			"power(uint256,uint256)": "c04f01fc",
			"raceExists(uint256)": "3e5fcd04",
			"raceToBet(uint256,uint256)": "231e5a07",
			"races(uint256)": "7bbc469e"
		}
	},
	"abi": [
		{
			"inputs": [],
			"name": "DECIMALS",
			"outputs": [
				{
					"internalType": "uint256",
					"name": "",
					"type": "uint256"
				}
			],
			"stateMutability": "view",
			"type": "function"
		},
		{
			"inputs": [],
			"name": "HUNDRED",
			"outputs": [
				{
					"internalType": "uint256",
					"name": "",
					"type": "uint256"
				}
			],
			"stateMutability": "view",
			"type": "function"
		},
		{
			"inputs": [
				{
					"internalType": "uint256",
					"name": "",
					"type": "uint256"
				}
			],
			"name": "bets",
			"outputs": [
				{
					"internalType": "contract Betting",
					"name": "",
					"type": "address"
				}
			],
			"stateMutability": "view",
			"type": "function"
		},
		{
			"inputs": [],
			"name": "betsInSystem",
			"outputs": [
				{
					"internalType": "uint256",
					"name": "",
					"type": "uint256"
				}
			],
			"stateMutability": "view",
			"type": "function"
		},
		{
			"inputs": [
				{
					"internalType": "uint256",
					"name": "_raceIndex",
					"type": "uint256"
				},
				{
					"internalType": "uint256",
					"name": "_horseIndex",
					"type": "uint256"
				},
				{
					"internalType": "uint256",
					"name": "_amount",
					"type": "uint256"
				},
				{
					"internalType": "enum Betting.BetType",
					"name": "_betType",
					"type": "uint8"
				},
				{
					"internalType": "enum Betting.Arealocation",
					"name": "_location",
					"type": "uint8"
				},
				{
					"internalType": "address",
					"name": "_tokenAddress",
					"type": "address"
				}
			],
			"name": "createBet",
			"outputs": [],
			"stateMutability": "payable",
			"type": "function"
		},
		{
			"inputs": [
				{
					"internalType": "uint256",
					"name": "_raceId",
					"type": "uint256"
				},
				{
					"internalType": "uint256",
					"name": "_horseNumbers",
					"type": "uint256"
				},
				{
					"internalType": "uint256",
					"name": "_startTime",
					"type": "uint256"
				},
				{
					"internalType": "uint256",
					"name": "_endTime",
					"type": "uint256"
				},
				{
					"internalType": "enum Betting.Arealocation",
					"name": "_location",
					"type": "uint8"
				}
			],
			"name": "createRace",
			"outputs": [],
			"stateMutability": "nonpayable",
			"type": "function"
		},
		{
			"inputs": [
				{
					"internalType": "uint256",
					"name": "a",
					"type": "uint256"
				},
				{
					"internalType": "uint256",
					"name": "b",
					"type": "uint256"
				}
			],
			"name": "divide",
			"outputs": [
				{
					"internalType": "uint256",
					"name": "",
					"type": "uint256"
				}
			],
			"stateMutability": "pure",
			"type": "function"
		},
		{
			"inputs": [
				{
					"internalType": "uint256",
					"name": "_raceIndex",
					"type": "uint256"
				}
			],
			"name": "evaluateRace",
			"outputs": [],
			"stateMutability": "payable",
			"type": "function"
		},
		{
			"inputs": [
				{
					"internalType": "uint256",
					"name": "a",
					"type": "uint256"
				},
				{
					"internalType": "uint256",
					"name": "b",
					"type": "uint256"
				}
			],
			"name": "multiply",
			"outputs": [
				{
					"internalType": "uint256",
					"name": "",
					"type": "uint256"
				}
			],
			"stateMutability": "pure",
			"type": "function"
		},
		{
			"inputs": [
				{
					"internalType": "uint256",
					"name": "base",
					"type": "uint256"
				},
				{
					"internalType": "uint256",
					"name": "exponent",
					"type": "uint256"
				}
			],
			"name": "power",
			"outputs": [
				{
					"internalType": "uint256",
					"name": "",
					"type": "uint256"
				}
			],
			"stateMutability": "pure",
			"type": "function"
		},
		{
			"inputs": [
				{
					"internalType": "uint256",
					"name": "",
					"type": "uint256"
				}
			],
			"name": "raceExists",
			"outputs": [
				{
					"internalType": "uint256",
					"name": "",
					"type": "uint256"
				}
			],
			"stateMutability": "view",
			"type": "function"
		},
		{
			"inputs": [
				{
					"internalType": "uint256",
					"name": "",
					"type": "uint256"
				},
				{
					"internalType": "uint256",
					"name": "",
					"type": "uint256"
				}
			],
			"name": "raceToBet",
			"outputs": [
				{
					"internalType": "uint256",
					"name": "",
					"type": "uint256"
				}
			],
			"stateMutability": "view",
			"type": "function"
		},
		{
			"inputs": [
				{
					"internalType": "uint256",
					"name": "",
					"type": "uint256"
				}
			],
			"name": "races",
			"outputs": [
				{
					"internalType": "contract RaceCourse",
					"name": "",
					"type": "address"
				}
			],
			"stateMutability": "view",
			"type": "function"
		}
	]
}